{"contracts/SismoAAFactory.sol":{"SismoAAFactory":{"abi":[{"inputs":[{"internalType":"address","name":"_verifierContract","type":"address"}],"stateMutability":"nonpayable","type":"constructor"},{"inputs":[{"internalType":"bytes32","name":"","type":"bytes32"}],"name":"accounts","outputs":[{"internalType":"address","name":"","type":"address"}],"stateMutability":"view","type":"function"},{"inputs":[{"internalType":"bytes32","name":"_owner","type":"bytes32"}],"name":"createAA","outputs":[{"internalType":"address","name":"","type":"address"}],"stateMutability":"nonpayable","type":"function"},{"inputs":[{"internalType":"uint256","name":"","type":"uint256"}],"name":"deployedAA","outputs":[{"internalType":"address","name":"","type":"address"}],"stateMutability":"view","type":"function"},{"inputs":[{"internalType":"bytes32","name":"_owner","type":"bytes32"}],"name":"getAAForVaultId","outputs":[{"internalType":"address","name":"","type":"address"}],"stateMutability":"view","type":"function"},{"inputs":[],"name":"getDeployedAA","outputs":[{"internalType":"address[]","name":"","type":"address[]"}],"stateMutability":"view","type":"function"},{"inputs":[],"name":"verifierContract","outputs":[{"internalType":"address","name":"","type":"address"}],"stateMutability":"view","type":"function"}],"devdoc":{"kind":"dev","methods":{},"version":1},"evm":{"bytecode":{"linkReferences":{},"object":"60803461007457601f610ab738819003918201601f19168301916001600160401b038311848410176100795780849260209460405283398101031261007457516001600160a01b0381169081900361007457600080546001600160a01b031916919091179055604051610a2790816100908239f35b600080fd5b634e487b7160e01b600052604160045260246000fdfe6040608081526004908136101561001557600080fd5b600091823560e01c806325dbc22b146102da5780639550a09d146101e4578063b870b0c9146100f6578063bc529c43146100c4578063cf695688146100985763fc4450de1461006357600080fd5b346100945760203660031901126100945735825260026020908152918190205490516001600160a01b039091168152f35b8280fd5b5050346100c057816003193601126100c057905490516001600160a01b039091168152602090f35b5080fd5b50346100945760203660031901126100945735825260026020908152918190205490516001600160a01b039091168152f35b50903461009457826003193601126100945780518060019485549384835260208080940180968985527fb10e2d527612073b26eecdfd717e6a320cf44b4afac2b0732d9fcbe2b7fa0cf6908a865b8281106101c65750505050859003601f01601f1916850196905067ffffffffffffffff8711858810176101b3575092869284878096528186019282875251809352850195925b8281106101975785870386f35b83516001600160a01b031687529581019592810192840161018a565b634e487b7160e01b835260419052602482fd5b83546001600160a01b03168552889590940193928101928101610144565b509190346100c05760203660031901126100c057815481516001600160a01b039391853591906106878083019187169067ffffffffffffffff8311848410176102c757918391879361036b8439858252602082015203019083f080156102bd57841693600154680100000000000000008110156102aa576020965090610273826001879695940160015561031d565b819291549060031b9188831b921b191617905581526002855220826bffffffffffffffffffffffff60a01b82541617905551908152f35b634e487b7160e01b845260418752602484fd5b83513d84823e3d90fd5b634e487b7160e01b865260418952602486fd5b503461009457602036600319011261009457359160015483101561031a575061030460209261031d565b905491519160018060a01b039160031b1c168152f35b80fd5b6001548110156103545760016000527fb10e2d527612073b26eecdfd717e6a320cf44b4afac2b0732d9fcbe2b7fa0cf60190600090565b634e487b7160e01b600052603260045260246000fdfe60803461007e57601f61068738819003918201601f19168301916001600160401b0383118484101761008357808492604094855283398101031261007e5780516020909101516001600160a01b038116919082900361007e57600055600180546001600160a01b0319169190911790556040516105ed908161009a8239f35b600080fd5b634e487b7160e01b600052604160045260246000fdfe604060808152600436101561001d575b50361561001b57600080fd5b005b600090813560e01c80635eb6adcd146101ce5780638da5cb5b146101b2578063905da30f14610185578063cf6956881461015d5763ed9d479514610061575061000f565b346101595760a03660031901126101595767ffffffffffffffff906004358281116101555761009490369060040161049d565b9161009d6104e9565b606435918211610151576100b7602092369060040161049d565b906100c06104ff565b9460018060a01b0360015416916100f086519788958694859463a6213ae760e01b8652604435916004870161055f565b03915afa91821561014757839261010c575b6020838351908152f35b9091506020813d821161013f575b8161012760209383610449565b8101031261013b5760209250519038610102565b8280fd5b3d915061011a565b81513d85823e3d90fd5b8480fd5b8380fd5b5080fd5b503461015957816003193601126101595760015490516001600160a01b039091168152602090f35b50346101595760203660031901126101595760ff8160209360043581526002855220541690519015158152f35b5034610159578160031936011261015957602091549051908152f35b50346101595760c03660031901126101595767ffffffffffffffff916004358381116101595761020290369060040161049d565b61020a6104e9565b6064359480861161015557602061022861026097369060040161049d565b936102316104ff565b908560018060a01b03600154169189519a8b948593849363a6213ae760e01b85528a604435916004870161055f565b03915afa95861561043f57849661040b575b5085156103d55760a435808552600260205260ff868620541661039c5784526002602052848420600160ff198254161790558451956020870190815260208752858701918783109083111761038857818652865190208454036103575750818392916020849351920190604435905af1903d15610351573d906102f482610481565b9161030185519384610449565b825260203d92013e5b15610319576020905160018152f35b5162461bcd60e51b8152602060048201526012602482015271151c985b9cd858dd1a5bdb8819985a5b195960721b6044820152606490fd5b5061030a565b6064906c2737ba103a34329037bbb732b960991b60848862461bcd60e51b845260206044820152600d858201520152fd5b634e487b7160e01b85526041600452602485fd5b855162461bcd60e51b8152602060048201526012602482015271139bdb98d948185b1c9958591e481d5cd95960721b6044820152606490fd5b845162461bcd60e51b815260206004820152600f60248201526e125b9d985b1a59081d985d5b1d1259608a1b6044820152606490fd5b9095506020813d602011610437575b8161042760209383610449565b8101031261015557519438610272565b3d915061041a565b85513d86823e3d90fd5b90601f8019910116810190811067ffffffffffffffff82111761046b57604052565b634e487b7160e01b600052604160045260246000fd5b67ffffffffffffffff811161046b57601f01601f191660200190565b81601f820112156104e4578035906104b482610481565b926104c26040519485610449565b828452602083830101116104e457816000926020809301838601378301015290565b600080fd5b602435906001600160a01b03821682036104e457565b608435906fffffffffffffffffffffffffffffffff19821682036104e457565b919082519283825260005b84811061054b575050826000602080949584010152601f8019910116010190565b60208183018101518483018201520161052a565b9360809361057c61059e949398979860a0885260a088019061051f565b6001600160a01b0390931660208701526040860152848203606086015261051f565b936fffffffffffffffffffffffffffffffff191691015256fea26469706673582212203a100a77cf25275fa9929b9a512414b5f9ef49fdae0a314134ed38ac56e68d8d64736f6c63430008130033a2646970667358221220ce1346b2f7a7d47de85ba56ab942da8030052246d99e5bfc35188d16136da70464736f6c63430008130033","opcodes":"PUSH1 0x80 CALLVALUE PUSH2 0x74 JUMPI PUSH1 0x1F PUSH2 0xAB7 CODESIZE DUP2 SWAP1 SUB SWAP2 DUP3 ADD PUSH1 0x1F NOT AND DUP4 ADD SWAP2 PUSH1 0x1 PUSH1 0x1 PUSH1 0x40 SHL SUB DUP4 GT DUP5 DUP5 LT OR PUSH2 0x79 JUMPI DUP1 DUP5 SWAP3 PUSH1 0x20 SWAP5 PUSH1 0x40 MSTORE DUP4 CODECOPY DUP2 ADD SUB SLT PUSH2 0x74 JUMPI MLOAD PUSH1 0x1 PUSH1 0x1 PUSH1 0xA0 SHL SUB DUP2 AND SWAP1 DUP2 SWAP1 SUB PUSH2 0x74 JUMPI PUSH1 0x0 DUP1 SLOAD PUSH1 0x1 PUSH1 0x1 PUSH1 0xA0 SHL SUB NOT AND SWAP2 SWAP1 SWAP2 OR SWAP1 SSTORE PUSH1 0x40 MLOAD PUSH2 0xA27 SWAP1 DUP2 PUSH2 0x90 DUP3 CODECOPY RETURN JUMPDEST PUSH1 0x0 DUP1 REVERT JUMPDEST PUSH4 0x4E487B71 PUSH1 0xE0 SHL PUSH1 0x0 MSTORE PUSH1 0x41 PUSH1 0x4 MSTORE PUSH1 0x24 PUSH1 0x0 REVERT INVALID PUSH1 0x40 PUSH1 0x80 DUP2 MSTORE PUSH1 0x4 SWAP1 DUP2 CALLDATASIZE LT ISZERO PUSH2 0x15 JUMPI PUSH1 0x0 DUP1 REVERT JUMPDEST PUSH1 0x0 SWAP2 DUP3 CALLDATALOAD PUSH1 0xE0 SHR DUP1 PUSH4 0x25DBC22B EQ PUSH2 0x2DA JUMPI DUP1 PUSH4 0x9550A09D EQ PUSH2 0x1E4 JUMPI DUP1 PUSH4 0xB870B0C9 EQ PUSH2 0xF6 JUMPI DUP1 PUSH4 0xBC529C43 EQ PUSH2 0xC4 JUMPI DUP1 PUSH4 0xCF695688 EQ PUSH2 0x98 JUMPI PUSH4 0xFC4450DE EQ PUSH2 0x63 JUMPI PUSH1 0x0 DUP1 REVERT JUMPDEST CALLVALUE PUSH2 0x94 JUMPI PUSH1 0x20 CALLDATASIZE PUSH1 0x3 NOT ADD SLT PUSH2 0x94 JUMPI CALLDATALOAD DUP3 MSTORE PUSH1 0x2 PUSH1 0x20 SWAP1 DUP2 MSTORE SWAP2 DUP2 SWAP1 KECCAK256 SLOAD SWAP1 MLOAD PUSH1 0x1 PUSH1 0x1 PUSH1 0xA0 SHL SUB SWAP1 SWAP2 AND DUP2 MSTORE RETURN JUMPDEST DUP3 DUP1 REVERT JUMPDEST POP POP CALLVALUE PUSH2 0xC0 JUMPI DUP2 PUSH1 0x3 NOT CALLDATASIZE ADD SLT PUSH2 0xC0 JUMPI SWAP1 SLOAD SWAP1 MLOAD PUSH1 0x1 PUSH1 0x1 PUSH1 0xA0 SHL SUB SWAP1 SWAP2 AND DUP2 MSTORE PUSH1 0x20 SWAP1 RETURN JUMPDEST POP DUP1 REVERT JUMPDEST POP CALLVALUE PUSH2 0x94 JUMPI PUSH1 0x20 CALLDATASIZE PUSH1 0x3 NOT ADD SLT PUSH2 0x94 JUMPI CALLDATALOAD DUP3 MSTORE PUSH1 0x2 PUSH1 0x20 SWAP1 DUP2 MSTORE SWAP2 DUP2 SWAP1 KECCAK256 SLOAD SWAP1 MLOAD PUSH1 0x1 PUSH1 0x1 PUSH1 0xA0 SHL SUB SWAP1 SWAP2 AND DUP2 MSTORE RETURN JUMPDEST POP SWAP1 CALLVALUE PUSH2 0x94 JUMPI DUP3 PUSH1 0x3 NOT CALLDATASIZE ADD SLT PUSH2 0x94 JUMPI DUP1 MLOAD DUP1 PUSH1 0x1 SWAP5 DUP6 SLOAD SWAP4 DUP5 DUP4 MSTORE PUSH1 0x20 DUP1 DUP1 SWAP5 ADD DUP1 SWAP7 DUP10 DUP6 MSTORE PUSH32 0xB10E2D527612073B26EECDFD717E6A320CF44B4AFAC2B0732D9FCBE2B7FA0CF6 SWAP1 DUP11 DUP7 JUMPDEST DUP3 DUP2 LT PUSH2 0x1C6 JUMPI POP POP POP POP DUP6 SWAP1 SUB PUSH1 0x1F ADD PUSH1 0x1F NOT AND DUP6 ADD SWAP7 SWAP1 POP PUSH8 0xFFFFFFFFFFFFFFFF DUP8 GT DUP6 DUP9 LT OR PUSH2 0x1B3 JUMPI POP SWAP3 DUP7 SWAP3 DUP5 DUP8 DUP1 SWAP7 MSTORE DUP2 DUP7 ADD SWAP3 DUP3 DUP8 MSTORE MLOAD DUP1 SWAP4 MSTORE DUP6 ADD SWAP6 SWAP3 JUMPDEST DUP3 DUP2 LT PUSH2 0x197 JUMPI DUP6 DUP8 SUB DUP7 RETURN JUMPDEST DUP4 MLOAD PUSH1 0x1 PUSH1 0x1 PUSH1 0xA0 SHL SUB AND DUP8 MSTORE SWAP6 DUP2 ADD SWAP6 SWAP3 DUP2 ADD SWAP3 DUP5 ADD PUSH2 0x18A JUMP JUMPDEST PUSH4 0x4E487B71 PUSH1 0xE0 SHL DUP4 MSTORE PUSH1 0x41 SWAP1 MSTORE PUSH1 0x24 DUP3 REVERT JUMPDEST DUP4 SLOAD PUSH1 0x1 PUSH1 0x1 PUSH1 0xA0 SHL SUB AND DUP6 MSTORE DUP9 SWAP6 SWAP1 SWAP5 ADD SWAP4 SWAP3 DUP2 ADD SWAP3 DUP2 ADD PUSH2 0x144 JUMP JUMPDEST POP SWAP2 SWAP1 CALLVALUE PUSH2 0xC0 JUMPI PUSH1 0x20 CALLDATASIZE PUSH1 0x3 NOT ADD SLT PUSH2 0xC0 JUMPI DUP2 SLOAD DUP2 MLOAD PUSH1 0x1 PUSH1 0x1 PUSH1 0xA0 SHL SUB SWAP4 SWAP2 DUP6 CALLDATALOAD SWAP2 SWAP1 PUSH2 0x687 DUP1 DUP4 ADD SWAP2 DUP8 AND SWAP1 PUSH8 0xFFFFFFFFFFFFFFFF DUP4 GT DUP5 DUP5 LT OR PUSH2 0x2C7 JUMPI SWAP2 DUP4 SWAP2 DUP8 SWAP4 PUSH2 0x36B DUP5 CODECOPY DUP6 DUP3 MSTORE PUSH1 0x20 DUP3 ADD MSTORE SUB ADD SWAP1 DUP4 CREATE DUP1 ISZERO PUSH2 0x2BD JUMPI DUP5 AND SWAP4 PUSH1 0x1 SLOAD PUSH9 0x10000000000000000 DUP2 LT ISZERO PUSH2 0x2AA JUMPI PUSH1 0x20 SWAP7 POP SWAP1 PUSH2 0x273 DUP3 PUSH1 0x1 DUP8 SWAP7 SWAP6 SWAP5 ADD PUSH1 0x1 SSTORE PUSH2 0x31D JUMP JUMPDEST DUP2 SWAP3 SWAP2 SLOAD SWAP1 PUSH1 0x3 SHL SWAP2 DUP9 DUP4 SHL SWAP3 SHL NOT AND OR SWAP1 SSTORE DUP2 MSTORE PUSH1 0x2 DUP6 MSTORE KECCAK256 DUP3 PUSH12 0xFFFFFFFFFFFFFFFFFFFFFFFF PUSH1 0xA0 SHL DUP3 SLOAD AND OR SWAP1 SSTORE MLOAD SWAP1 DUP2 MSTORE RETURN JUMPDEST PUSH4 0x4E487B71 PUSH1 0xE0 SHL DUP5 MSTORE PUSH1 0x41 DUP8 MSTORE PUSH1 0x24 DUP5 REVERT JUMPDEST DUP4 MLOAD RETURNDATASIZE DUP5 DUP3 RETURNDATACOPY RETURNDATASIZE SWAP1 REVERT JUMPDEST PUSH4 0x4E487B71 PUSH1 0xE0 SHL DUP7 MSTORE PUSH1 0x41 DUP10 MSTORE PUSH1 0x24 DUP7 REVERT JUMPDEST POP CALLVALUE PUSH2 0x94 JUMPI PUSH1 0x20 CALLDATASIZE PUSH1 0x3 NOT ADD SLT PUSH2 0x94 JUMPI CALLDATALOAD SWAP2 PUSH1 0x1 SLOAD DUP4 LT ISZERO PUSH2 0x31A JUMPI POP PUSH2 0x304 PUSH1 0x20 SWAP3 PUSH2 0x31D JUMP JUMPDEST SWAP1 SLOAD SWAP2 MLOAD SWAP2 PUSH1 0x1 DUP1 PUSH1 0xA0 SHL SUB SWAP2 PUSH1 0x3 SHL SHR AND DUP2 MSTORE RETURN JUMPDEST DUP1 REVERT JUMPDEST PUSH1 0x1 SLOAD DUP2 LT ISZERO PUSH2 0x354 JUMPI PUSH1 0x1 PUSH1 0x0 MSTORE PUSH32 0xB10E2D527612073B26EECDFD717E6A320CF44B4AFAC2B0732D9FCBE2B7FA0CF6 ADD SWAP1 PUSH1 0x0 SWAP1 JUMP JUMPDEST PUSH4 0x4E487B71 PUSH1 0xE0 SHL PUSH1 0x0 MSTORE PUSH1 0x32 PUSH1 0x4 MSTORE PUSH1 0x24 PUSH1 0x0 REVERT INVALID PUSH1 0x80 CALLVALUE PUSH2 0x7E JUMPI PUSH1 0x1F PUSH2 0x687 CODESIZE DUP2 SWAP1 SUB SWAP2 DUP3 ADD PUSH1 0x1F NOT AND DUP4 ADD SWAP2 PUSH1 0x1 PUSH1 0x1 PUSH1 0x40 SHL SUB DUP4 GT DUP5 DUP5 LT OR PUSH2 0x83 JUMPI DUP1 DUP5 SWAP3 PUSH1 0x40 SWAP5 DUP6 MSTORE DUP4 CODECOPY DUP2 ADD SUB SLT PUSH2 0x7E JUMPI DUP1 MLOAD PUSH1 0x20 SWAP1 SWAP2 ADD MLOAD PUSH1 0x1 PUSH1 0x1 PUSH1 0xA0 SHL SUB DUP2 AND SWAP2 SWAP1 DUP3 SWAP1 SUB PUSH2 0x7E JUMPI PUSH1 0x0 SSTORE PUSH1 0x1 DUP1 SLOAD PUSH1 0x1 PUSH1 0x1 PUSH1 0xA0 SHL SUB NOT AND SWAP2 SWAP1 SWAP2 OR SWAP1 SSTORE PUSH1 0x40 MLOAD PUSH2 0x5ED SWAP1 DUP2 PUSH2 0x9A DUP3 CODECOPY RETURN JUMPDEST PUSH1 0x0 DUP1 REVERT JUMPDEST PUSH4 0x4E487B71 PUSH1 0xE0 SHL PUSH1 0x0 MSTORE PUSH1 0x41 PUSH1 0x4 MSTORE PUSH1 0x24 PUSH1 0x0 REVERT INVALID PUSH1 0x40 PUSH1 0x80 DUP2 MSTORE PUSH1 0x4 CALLDATASIZE LT ISZERO PUSH2 0x1D JUMPI JUMPDEST POP CALLDATASIZE ISZERO PUSH2 0x1B JUMPI PUSH1 0x0 DUP1 REVERT JUMPDEST STOP JUMPDEST PUSH1 0x0 SWAP1 DUP2 CALLDATALOAD PUSH1 0xE0 SHR DUP1 PUSH4 0x5EB6ADCD EQ PUSH2 0x1CE JUMPI DUP1 PUSH4 0x8DA5CB5B EQ PUSH2 0x1B2 JUMPI DUP1 PUSH4 0x905DA30F EQ PUSH2 0x185 JUMPI DUP1 PUSH4 0xCF695688 EQ PUSH2 0x15D JUMPI PUSH4 0xED9D4795 EQ PUSH2 0x61 JUMPI POP PUSH2 0xF JUMP JUMPDEST CALLVALUE PUSH2 0x159 JUMPI PUSH1 0xA0 CALLDATASIZE PUSH1 0x3 NOT ADD SLT PUSH2 0x159 JUMPI PUSH8 0xFFFFFFFFFFFFFFFF SWAP1 PUSH1 0x4 CALLDATALOAD DUP3 DUP2 GT PUSH2 0x155 JUMPI PUSH2 0x94 SWAP1 CALLDATASIZE SWAP1 PUSH1 0x4 ADD PUSH2 0x49D JUMP JUMPDEST SWAP2 PUSH2 0x9D PUSH2 0x4E9 JUMP JUMPDEST PUSH1 0x64 CALLDATALOAD SWAP2 DUP3 GT PUSH2 0x151 JUMPI PUSH2 0xB7 PUSH1 0x20 SWAP3 CALLDATASIZE SWAP1 PUSH1 0x4 ADD PUSH2 0x49D JUMP JUMPDEST SWAP1 PUSH2 0xC0 PUSH2 0x4FF JUMP JUMPDEST SWAP5 PUSH1 0x1 DUP1 PUSH1 0xA0 SHL SUB PUSH1 0x1 SLOAD AND SWAP2 PUSH2 0xF0 DUP7 MLOAD SWAP8 DUP9 SWAP6 DUP7 SWAP5 DUP6 SWAP5 PUSH4 0xA6213AE7 PUSH1 0xE0 SHL DUP7 MSTORE PUSH1 0x44 CALLDATALOAD SWAP2 PUSH1 0x4 DUP8 ADD PUSH2 0x55F JUMP JUMPDEST SUB SWAP2 GAS STATICCALL SWAP2 DUP3 ISZERO PUSH2 0x147 JUMPI DUP4 SWAP3 PUSH2 0x10C JUMPI JUMPDEST PUSH1 0x20 DUP4 DUP4 MLOAD SWAP1 DUP2 MSTORE RETURN JUMPDEST SWAP1 SWAP2 POP PUSH1 0x20 DUP2 RETURNDATASIZE DUP3 GT PUSH2 0x13F JUMPI JUMPDEST DUP2 PUSH2 0x127 PUSH1 0x20 SWAP4 DUP4 PUSH2 0x449 JUMP JUMPDEST DUP2 ADD SUB SLT PUSH2 0x13B JUMPI PUSH1 0x20 SWAP3 POP MLOAD SWAP1 CODESIZE PUSH2 0x102 JUMP JUMPDEST DUP3 DUP1 REVERT JUMPDEST RETURNDATASIZE SWAP2 POP PUSH2 0x11A JUMP JUMPDEST DUP2 MLOAD RETURNDATASIZE DUP6 DUP3 RETURNDATACOPY RETURNDATASIZE SWAP1 REVERT JUMPDEST DUP5 DUP1 REVERT JUMPDEST DUP4 DUP1 REVERT JUMPDEST POP DUP1 REVERT JUMPDEST POP CALLVALUE PUSH2 0x159 JUMPI DUP2 PUSH1 0x3 NOT CALLDATASIZE ADD SLT PUSH2 0x159 JUMPI PUSH1 0x1 SLOAD SWAP1 MLOAD PUSH1 0x1 PUSH1 0x1 PUSH1 0xA0 SHL SUB SWAP1 SWAP2 AND DUP2 MSTORE PUSH1 0x20 SWAP1 RETURN JUMPDEST POP CALLVALUE PUSH2 0x159 JUMPI PUSH1 0x20 CALLDATASIZE PUSH1 0x3 NOT ADD SLT PUSH2 0x159 JUMPI PUSH1 0xFF DUP2 PUSH1 0x20 SWAP4 PUSH1 0x4 CALLDATALOAD DUP2 MSTORE PUSH1 0x2 DUP6 MSTORE KECCAK256 SLOAD AND SWAP1 MLOAD SWAP1 ISZERO ISZERO DUP2 MSTORE RETURN JUMPDEST POP CALLVALUE PUSH2 0x159 JUMPI DUP2 PUSH1 0x3 NOT CALLDATASIZE ADD SLT PUSH2 0x159 JUMPI PUSH1 0x20 SWAP2 SLOAD SWAP1 MLOAD SWAP1 DUP2 MSTORE RETURN JUMPDEST POP CALLVALUE PUSH2 0x159 JUMPI PUSH1 0xC0 CALLDATASIZE PUSH1 0x3 NOT ADD SLT PUSH2 0x159 JUMPI PUSH8 0xFFFFFFFFFFFFFFFF SWAP2 PUSH1 0x4 CALLDATALOAD DUP4 DUP2 GT PUSH2 0x159 JUMPI PUSH2 0x202 SWAP1 CALLDATASIZE SWAP1 PUSH1 0x4 ADD PUSH2 0x49D JUMP JUMPDEST PUSH2 0x20A PUSH2 0x4E9 JUMP JUMPDEST PUSH1 0x64 CALLDATALOAD SWAP5 DUP1 DUP7 GT PUSH2 0x155 JUMPI PUSH1 0x20 PUSH2 0x228 PUSH2 0x260 SWAP8 CALLDATASIZE SWAP1 PUSH1 0x4 ADD PUSH2 0x49D JUMP JUMPDEST SWAP4 PUSH2 0x231 PUSH2 0x4FF JUMP JUMPDEST SWAP1 DUP6 PUSH1 0x1 DUP1 PUSH1 0xA0 SHL SUB PUSH1 0x1 SLOAD AND SWAP2 DUP10 MLOAD SWAP11 DUP12 SWAP5 DUP6 SWAP4 DUP5 SWAP4 PUSH4 0xA6213AE7 PUSH1 0xE0 SHL DUP6 MSTORE DUP11 PUSH1 0x44 CALLDATALOAD SWAP2 PUSH1 0x4 DUP8 ADD PUSH2 0x55F JUMP JUMPDEST SUB SWAP2 GAS STATICCALL SWAP6 DUP7 ISZERO PUSH2 0x43F JUMPI DUP5 SWAP7 PUSH2 0x40B JUMPI JUMPDEST POP DUP6 ISZERO PUSH2 0x3D5 JUMPI PUSH1 0xA4 CALLDATALOAD DUP1 DUP6 MSTORE PUSH1 0x2 PUSH1 0x20 MSTORE PUSH1 0xFF DUP7 DUP7 KECCAK256 SLOAD AND PUSH2 0x39C JUMPI DUP5 MSTORE PUSH1 0x2 PUSH1 0x20 MSTORE DUP5 DUP5 KECCAK256 PUSH1 0x1 PUSH1 0xFF NOT DUP3 SLOAD AND OR SWAP1 SSTORE DUP5 MLOAD SWAP6 PUSH1 0x20 DUP8 ADD SWAP1 DUP2 MSTORE PUSH1 0x20 DUP8 MSTORE DUP6 DUP8 ADD SWAP2 DUP8 DUP4 LT SWAP1 DUP4 GT OR PUSH2 0x388 JUMPI DUP2 DUP7 MSTORE DUP7 MLOAD SWAP1 KECCAK256 DUP5 SLOAD SUB PUSH2 0x357 JUMPI POP DUP2 DUP4 SWAP3 SWAP2 PUSH1 0x20 DUP5 SWAP4 MLOAD SWAP3 ADD SWAP1 PUSH1 0x44 CALLDATALOAD SWAP1 GAS CALL SWAP1 RETURNDATASIZE ISZERO PUSH2 0x351 JUMPI RETURNDATASIZE SWAP1 PUSH2 0x2F4 DUP3 PUSH2 0x481 JUMP JUMPDEST SWAP2 PUSH2 0x301 DUP6 MLOAD SWAP4 DUP5 PUSH2 0x449 JUMP JUMPDEST DUP3 MSTORE PUSH1 0x20 RETURNDATASIZE SWAP3 ADD RETURNDATACOPY JUMPDEST ISZERO PUSH2 0x319 JUMPI PUSH1 0x20 SWAP1 MLOAD PUSH1 0x1 DUP2 MSTORE RETURN JUMPDEST MLOAD PUSH3 0x461BCD PUSH1 0xE5 SHL DUP2 MSTORE PUSH1 0x20 PUSH1 0x4 DUP3 ADD MSTORE PUSH1 0x12 PUSH1 0x24 DUP3 ADD MSTORE PUSH18 0x151C985B9CD858DD1A5BDB8819985A5B1959 PUSH1 0x72 SHL PUSH1 0x44 DUP3 ADD MSTORE PUSH1 0x64 SWAP1 REVERT JUMPDEST POP PUSH2 0x30A JUMP JUMPDEST PUSH1 0x64 SWAP1 PUSH13 0x2737BA103A34329037BBB732B9 PUSH1 0x99 SHL PUSH1 0x84 DUP9 PUSH3 0x461BCD PUSH1 0xE5 SHL DUP5 MSTORE PUSH1 0x20 PUSH1 0x44 DUP3 ADD MSTORE PUSH1 0xD DUP6 DUP3 ADD MSTORE ADD MSTORE REVERT JUMPDEST PUSH4 0x4E487B71 PUSH1 0xE0 SHL DUP6 MSTORE PUSH1 0x41 PUSH1 0x4 MSTORE PUSH1 0x24 DUP6 REVERT JUMPDEST DUP6 MLOAD PUSH3 0x461BCD PUSH1 0xE5 SHL DUP2 MSTORE PUSH1 0x20 PUSH1 0x4 DUP3 ADD MSTORE PUSH1 0x12 PUSH1 0x24 DUP3 ADD MSTORE PUSH18 0x139BDB98D948185B1C9958591E481D5CD959 PUSH1 0x72 SHL PUSH1 0x44 DUP3 ADD MSTORE PUSH1 0x64 SWAP1 REVERT JUMPDEST DUP5 MLOAD PUSH3 0x461BCD PUSH1 0xE5 SHL DUP2 MSTORE PUSH1 0x20 PUSH1 0x4 DUP3 ADD MSTORE PUSH1 0xF PUSH1 0x24 DUP3 ADD MSTORE PUSH15 0x125B9D985B1A59081D985D5B1D1259 PUSH1 0x8A SHL PUSH1 0x44 DUP3 ADD MSTORE PUSH1 0x64 SWAP1 REVERT JUMPDEST SWAP1 SWAP6 POP PUSH1 0x20 DUP2 RETURNDATASIZE PUSH1 0x20 GT PUSH2 0x437 JUMPI JUMPDEST DUP2 PUSH2 0x427 PUSH1 0x20 SWAP4 DUP4 PUSH2 0x449 JUMP JUMPDEST DUP2 ADD SUB SLT PUSH2 0x155 JUMPI MLOAD SWAP5 CODESIZE PUSH2 0x272 JUMP JUMPDEST RETURNDATASIZE SWAP2 POP PUSH2 0x41A JUMP JUMPDEST DUP6 MLOAD RETURNDATASIZE DUP7 DUP3 RETURNDATACOPY RETURNDATASIZE SWAP1 REVERT JUMPDEST SWAP1 PUSH1 0x1F DUP1 NOT SWAP2 ADD AND DUP2 ADD SWAP1 DUP2 LT PUSH8 0xFFFFFFFFFFFFFFFF DUP3 GT OR PUSH2 0x46B JUMPI PUSH1 0x40 MSTORE JUMP JUMPDEST PUSH4 0x4E487B71 PUSH1 0xE0 SHL PUSH1 0x0 MSTORE PUSH1 0x41 PUSH1 0x4 MSTORE PUSH1 0x24 PUSH1 0x0 REVERT JUMPDEST PUSH8 0xFFFFFFFFFFFFFFFF DUP2 GT PUSH2 0x46B JUMPI PUSH1 0x1F ADD PUSH1 0x1F NOT AND PUSH1 0x20 ADD SWAP1 JUMP JUMPDEST DUP2 PUSH1 0x1F DUP3 ADD SLT ISZERO PUSH2 0x4E4 JUMPI DUP1 CALLDATALOAD SWAP1 PUSH2 0x4B4 DUP3 PUSH2 0x481 JUMP JUMPDEST SWAP3 PUSH2 0x4C2 PUSH1 0x40 MLOAD SWAP5 DUP6 PUSH2 0x449 JUMP JUMPDEST DUP3 DUP5 MSTORE PUSH1 0x20 DUP4 DUP4 ADD ADD GT PUSH2 0x4E4 JUMPI DUP2 PUSH1 0x0 SWAP3 PUSH1 0x20 DUP1 SWAP4 ADD DUP4 DUP7 ADD CALLDATACOPY DUP4 ADD ADD MSTORE SWAP1 JUMP JUMPDEST PUSH1 0x0 DUP1 REVERT JUMPDEST PUSH1 0x24 CALLDATALOAD SWAP1 PUSH1 0x1 PUSH1 0x1 PUSH1 0xA0 SHL SUB DUP3 AND DUP3 SUB PUSH2 0x4E4 JUMPI JUMP JUMPDEST PUSH1 0x84 CALLDATALOAD SWAP1 PUSH16 0xFFFFFFFFFFFFFFFFFFFFFFFFFFFFFFFF NOT DUP3 AND DUP3 SUB PUSH2 0x4E4 JUMPI JUMP JUMPDEST SWAP2 SWAP1 DUP3 MLOAD SWAP3 DUP4 DUP3 MSTORE PUSH1 0x0 JUMPDEST DUP5 DUP2 LT PUSH2 0x54B JUMPI POP POP DUP3 PUSH1 0x0 PUSH1 0x20 DUP1 SWAP5 SWAP6 DUP5 ADD ADD MSTORE PUSH1 0x1F DUP1 NOT SWAP2 ADD AND ADD ADD SWAP1 JUMP JUMPDEST PUSH1 0x20 DUP2 DUP4 ADD DUP2 ADD MLOAD DUP5 DUP4 ADD DUP3 ADD MSTORE ADD PUSH2 0x52A JUMP JUMPDEST SWAP4 PUSH1 0x80 SWAP4 PUSH2 0x57C PUSH2 0x59E SWAP5 SWAP4 SWAP9 SWAP8 SWAP9 PUSH1 0xA0 DUP9 MSTORE PUSH1 0xA0 DUP9 ADD SWAP1 PUSH2 0x51F JUMP JUMPDEST PUSH1 0x1 PUSH1 0x1 PUSH1 0xA0 SHL SUB SWAP1 SWAP4 AND PUSH1 0x20 DUP8 ADD MSTORE PUSH1 0x40 DUP7 ADD MSTORE DUP5 DUP3 SUB PUSH1 0x60 DUP7 ADD MSTORE PUSH2 0x51F JUMP JUMPDEST SWAP4 PUSH16 0xFFFFFFFFFFFFFFFFFFFFFFFFFFFFFFFF NOT AND SWAP2 ADD MSTORE JUMP INVALID LOG2 PUSH5 0x6970667358 0x22 SLT KECCAK256 GASPRICE LT EXP PUSH24 0xCF25275FA9929B9A512414B5F9EF49FDAE0A314134ED38AC JUMP 0xE6 DUP14 DUP14 PUSH5 0x736F6C6343 STOP ADDMOD SGT STOP CALLER LOG2 PUSH5 0x6970667358 0x22 SLT KECCAK256 0xCE SGT CHAINID 0xB2 0xF7 0xA7 0xD4 PUSH30 0xE85BA56AB942DA8030052246D99E5BFC35188D16136DA70464736F6C6343 STOP ADDMOD SGT STOP CALLER "},"gasEstimates":{"creation":{"codeDepositCost":"519800","executionCost":"infinite","totalCost":"infinite"},"external":{"accounts(bytes32)":"2423","createAA(bytes32)":"infinite","deployedAA(uint256)":"6606","getAAForVaultId(bytes32)":"2462","getDeployedAA()":"infinite","verifierContract()":"2381"}},"methodIdentifiers":{"accounts(bytes32)":"bc529c43","createAA(bytes32)":"9550a09d","deployedAA(uint256)":"25dbc22b","getAAForVaultId(bytes32)":"fc4450de","getDeployedAA()":"b870b0c9","verifierContract()":"cf695688"}},"storageLayout":{"storage":[{"astId":173,"contract":"contracts/SismoAAFactory.sol:SismoAAFactory","label":"verifierContract","offset":0,"slot":"0","type":"t_address"},{"astId":176,"contract":"contracts/SismoAAFactory.sol:SismoAAFactory","label":"deployedAA","offset":0,"slot":"1","type":"t_array(t_address)dyn_storage"},{"astId":190,"contract":"contracts/SismoAAFactory.sol:SismoAAFactory","label":"accounts","offset":0,"slot":"2","type":"t_mapping(t_bytes32,t_address)"}],"types":{"t_address":{"encoding":"inplace","label":"address","numberOfBytes":"20"},"t_array(t_address)dyn_storage":{"base":"t_address","encoding":"dynamic_array","label":"address[]","numberOfBytes":"32"},"t_bytes32":{"encoding":"inplace","label":"bytes32","numberOfBytes":"32"},"t_mapping(t_bytes32,t_address)":{"encoding":"mapping","key":"t_bytes32","label":"mapping(bytes32 => address)","numberOfBytes":"32","value":"t_address"}}},"userdoc":{"kind":"user","methods":{},"version":1}}}}