{"contracts/SismoVerifier.sol":{"SismoVerifier":{"abi":[{"inputs":[{"internalType":"enum AuthType","name":"authType","type":"uint8"}],"name":"AuthTypeNotFoundInVerifiedResult","type":"error"},{"inputs":[],"name":"ADDRESSES_PROVIDER_V2","outputs":[{"internalType":"contract IAddressesProvider","name":"","type":"address"}],"stateMutability":"view","type":"function"},{"inputs":[],"name":"APP_ID","outputs":[{"internalType":"bytes16","name":"","type":"bytes16"}],"stateMutability":"view","type":"function"},{"inputs":[],"name":"IS_IMPERSONATION_MODE","outputs":[{"internalType":"bool","name":"","type":"bool"}],"stateMutability":"view","type":"function"},{"inputs":[],"name":"SISMO_CONNECT_LIB_VERSION","outputs":[{"internalType":"uint256","name":"","type":"uint256"}],"stateMutability":"view","type":"function"},{"inputs":[{"internalType":"bytes16","name":"_appId","type":"bytes16"}],"name":"config","outputs":[{"components":[{"internalType":"bytes16","name":"appId","type":"bytes16"},{"components":[{"internalType":"bool","name":"isImpersonationMode","type":"bool"}],"internalType":"struct VaultConfig","name":"vault","type":"tuple"}],"internalType":"struct SismoConnectConfig","name":"","type":"tuple"}],"stateMutability":"pure","type":"function"},{"inputs":[{"internalType":"bytes","name":"sismoConnectResponse","type":"bytes"},{"internalType":"address","name":"_to","type":"address"},{"internalType":"uint256","name":"_value","type":"uint256"},{"internalType":"bytes","name":"_data","type":"bytes"},{"internalType":"bytes16","name":"_appId","type":"bytes16"}],"name":"sismoVerify","outputs":[{"internalType":"uint256","name":"","type":"uint256"}],"stateMutability":"view","type":"function"}],"devdoc":{"kind":"dev","methods":{},"version":1},"evm":{"bytecode":{"linkReferences":{},"object":"6101406040908082523462000377576000916101209183835262000023816200037c565b6019815260207f7369736d6f436f6e6e65637456657269666965722d76312e320000000000000081830152825191826200006c63349f642f60e11b9283835260048301620003f3565b038284733cd5334eb64ebbd4003b72022cc25465f1bfcee69281845afa9384156200036d57879462000349575b506001600160a01b039384166080528451620000f8908490620000bc816200037c565b601781527f61757468526571756573744275696c6465722d76312e310000000000000000008282015287518093819287835260048301620003f3565b0381855afa908115620002fb57908591899162000327575b501660a0526200016383865162000127816200037c565b601881527f636c61696d526571756573744275696c6465722d76312e3100000000000000008282015287518093819287835260048301620003f3565b0381855afa908115620002fb57908591899162000305575b501660c052620001ce83865162000192816200037c565b601581527f7369676e61747572654275696c6465722d76312e3100000000000000000000008282015287518093819287835260048301620003f3565b0381855afa908115620002fb5791858594926200023e96948b91620002d9575b501660e05286519162000201836200037c565b601383527f726571756573744275696c6465722d76312e3100000000000000000000000000848401528751809681948293835260048301620003f3565b03915afa958615620002ce579562000298575b5050610100931683525190611e5392836200043f843960805183610bbd015260a051836101df015260c05183505060e051836102ae01525182610a2f0152518161176c0152f35b620002bd929550803d10620002c6575b620002b48183620003ae565b810190620003d2565b92388062000251565b503d620002a8565b8451903d90823e3d90fd5b620002f49150853d8711620002c657620002b48183620003ae565b38620001ee565b86513d8a823e3d90fd5b620003209150853d8711620002c657620002b48183620003ae565b386200017b565b620003429150853d8711620002c657620002b48183620003ae565b3862000110565b62000365919450833d8511620002c657620002b48183620003ae565b923862000099565b85513d89823e3d90fd5b600080fd5b604081019081106001600160401b038211176200039857604052565b634e487b7160e01b600052604160045260246000fd5b601f909101601f19168101906001600160401b038211908210176200039857604052565b908160209103126200037757516001600160a01b0381168103620003775790565b6020808252825181830181905290939260005b8281106200042957505060409293506000838284010152601f8019910116010190565b8181018601518482016040015285016200040656fe61024080604052600436101561001457600080fd5b60003560e01c908163469163011461179157508063a183dc2714611754578063a6213ae714610103578063c187bbc1146100d8578063c9512d99146100bc5763e88c88971461006257600080fd5b346100b75760203660031901126100b7576004356001600160801b0319811681036100b757610092604091611a4c565b6100b582518092602080916001600160801b031981511684520151511515910152565bf35b600080fd5b346100b75760003660031901126100b757602060405160028152f35b346100b75760003660031901126100b757602060005460801b604051906001600160801b0319168152f35b346100b75760a03660031901126100b7576004356001600160401b0381116100b7576101339036906004016118cd565b6080526024356001600160a01b03811690036100b7576064356001600160401b0381116100b7576101689036906004016118cd565b6084356001600160801b0319811690036100b757608051511561171e576040519061019282611840565b6001825260005b60208110156101b9576020906101ad61192b565b82828601015201610199565b506101c261192b565b50604051633a0ba6ff60e01b8152600060048201819052816024817f00000000000000000000000000000000000000000000000000000000000000006001600160a01b03165afa90811561118a576000916116dd575b5061022283611960565b5261022c82611960565b506102aa60006040516bffffffffffffffffffffffff1960243560601b166020820152604435603482015261027f605482865161026f8184840160208b01611997565b8101036034810184520182611891565b610287611d15565b5060405180938192631a0d7ccb60e21b8352602060048401526024830190611b5c565b03817f00000000000000000000000000000000000000000000000000000000000000006001600160a01b03165afa90811561118a5760009161169c575b50606060a06040516102f8816117be565b6000815260006020820152600060408201528280820152826080820152015260805180518101610220526020816102205103126100b7576020810151610100526001600160401b0361010051116100b75760a09061010051016102205103126100b75760405190610368826117ef565b61037b6020610100516080510101611b3a565b82526103906040610100516080510101611b3a565b6020830152606061010051608051010151604083015261010051608051016080810151906001600160401b0382116100b75760206103d6928161022051019201016119df565b6060830152610100516080510160a081015160c0526001600160401b0360c051116100b75760206102205101603f60c05183010112156100b75760c05101602001519361042285611914565b61042f6040519182611891565b8061012052858152602081016101205260c0516101005160805101016020610220510160408860051b830101116100b7576040016101405285858486855b60c05161010051608051010160408660051b8201016101405110156109ba5761014051516101c0526001600160401b036101c051116100b75760a090601f19906101c05101610220510301126100b7576040516101a0526104d06101a0516117ef565b6101c05160c05161010051608051010101604081015160e0526001600160401b0360e051116100b75760206102205101605f60e05183010112156100b75760409060e0510101516101605261052761016051611914565b956105356040519788611891565b610160518752602087019360e0516101c05160c0516101005160805101010101610200526020610220510160606101605160051b610200510101116100b75760606102005101945b60e0516101c05160c05161010051608051010101019060606101605160051b8301018710156106be578651916001600160401b0383116100b7576102205160a09184019003603f1901126100b757604051916105d8836117ef565b60608160e0516101c05160c051610100516080510101010101015160068110156100b757835261061f60808260e0516101c05160c051610100518551010101010101611b4f565b602084015261064660a08260e0516101c05160c05161010051608051010101010101611b4f565b604084015260c08160e0516101c05183516101005160805101010101010151606084015260e0516101c05160c0516101005160805101010101019060e0820151926001600160401b0384116100b7576106ae60209493606086958661022051019201016119df565b608082015281520195019461057d565b5050935093909491956101a051526101c05160c05161010051608051010101606081015160a0526001600160401b0360a051116100b75760206102205101605f60a05183010112156100b75760409060a0510101516101805261072361018051611914565b956107316040519788611891565b610180518752602087019360a0516101c05160c05161010051608051010101016101e0526020610220510160606101805160051b6101e0510101116100b75760606101e05101945b60a0516101c05160c05161010051608051010101019060606101805160051b8301018710156108e1578651916001600160401b0383116100b7576102205160c09184019003603f1901126100b757604051916107d4836117be565b60608160a0516101c05160c051610100516080510101010101015160058110156100b757835261081b60808260a0516101c05160c051610100518551010101010101611b3a565b602084015261084160a08281516101c05160c05161010051608051010101010101611b3a565b604084015261086760c08260a0516101c051835161010051608051010101010101611b4f565b606084015260e08160a0516101c05160c0516101005160805101010101010151608084015260a0516101c05160c05161010051608051010101010190610100820151926001600160401b0384116100b7576108d160209493606086958661022051019201016119df565b60a0820152815201950194610779565b50509350939094919560206101a051015260806101c05160c051610100518351010101015160406101a05101526101c05160c0516101005160805101010160a0810151906001600160401b0382116100b757604061094892602061022051019201016119df565b60606101a05101526101c05160c0516101005160805101010160c0810151906001600160401b0382116100b757604061098a92602061022051019201016119df565b60806101a05101526101a0516101205152602061012051016101205260206101405101610140529493929061046d565b50916000610a1985948860808601526040516109d58161180a565b838152606060208201526060604082015260606109f0611d15565b910152610a2b6040519485938493632ceb1e8d60e01b8552604060048601526044850190611bb1565b83810360031901602485015290611c54565b03817f00000000000000000000000000000000000000000000000000000000000000006001600160a01b03165afa90811561118a576000916113d8575b5090610a75608435611a4c565b906040519283916312b037ff60e01b8352608060048401526001600160801b031981511660848401526001600160801b031960208201511660a4840152604081015160c48401526080610ad8606083015160a060e4870152610124860190611b5c565b9101519060831984820301610104850152815180825260208201916020808360051b8301019401926000915b83831061122e5750505050506003198382030160248401526001600160801b03198251168152610b436020830151608060208401526080830190611bb1565b916040810151928281036040840152835180825260208201916020808360051b8301019601926000915b838310611196575050505050610b988493600096936060610bb9940151906060818403910152611c54565b82516001600160801b03191660448501526020909201515115156064840152565b03817f00000000000000000000000000000000000000000000000000000000000000006001600160a01b03165afa90811561118a57600091610de8575b5060608101515191610c0783611914565b92610c156040519485611891565b808452610c24601f1991611914565b0160005b818110610daf57505060005b60608301518051821015610c715790610c5081610c6c93611983565b51610c5b8287611983565b52610c668186611983565b506119ba565b610c34565b505060a0610c7e83611d9b565b92015180518101906060818303126100b75760208101516001600160a01b03811692908390036100b7576040820151916060810151916001600160401b0383116100b757610cd39260208092019201016119df565b916024356001600160a01b031603610d755760443503610d405760208151910120906020815191012003610d0c57602090604051908152f35b60405162461bcd60e51b815260206004820152600c60248201526b496e76616c6964206461746160a01b6044820152606490fd5b60405162461bcd60e51b815260206004820152600d60248201526c496e76616c69642076616c756560981b6044820152606490fd5b60405162461bcd60e51b8152602060048201526012602482015271496e76616c696420746f206164647265737360701b6044820152606490fd5b602090604051610dbe816117ef565b60008152600083820152600060408201526060808201526060608082015282828801015201610c28565b90503d806000833e610dfa8183611891565b60208282810103126100b7578151916001600160401b0383116100b75760c083820183830103126100b75760405192610e32846117be565b610e3d818301611b3a565b8452610e4d602082840101611b3a565b602085015281810160408181015190860152606001516001600160401b0381116100b757838301601f82848601010112156100b757808284010151610e9181611914565b91610e9f6040519384611891565b8183526020830186860160208460051b84888a01010101116100b7576020828688010101905b60208460051b84888a0101010182106110a057505050506060850152608081830101516001600160401b0381116100b757838301601f82848601010112156100b757808284010151610f1681611914565b91610f246040519384611891565b8183526020830186860160208460051b84888a01010101116100b7576020828688010101905b60208460051b84888a010101018210610f955750505050608085015260a08183010151906001600160401b0382116100b757610f8a9383019201016119df565b60a082015282610bf6565b81516001600160401b0381116100b75760e0888801850182018a8a0103601f1901126100b75760405191610fc883611825565b602082868a8c010101015160058110156100b7578352610ff0604083878b8d01010101611b3a565b6020840152611007606083878b8d01010101611b3a565b6040840152888801850182016080810151606085015260a001516001600160401b0381116100b757611047908b8b01908a8c0188018501016020016119df565b60808401528888018501820160c081015160a085015260e00151906001600160401b0382116100b75760209361108e8b868096958f968b8f849986019501010101016119df565b60c08201528152019201919050610f4a565b81516001600160401b0381116100b75760a0888801850182018a8a0103601f1901126100b757604051916110d3836117ef565b602082868a8c010101015160068110156100b75783526110fb604083878b8d01010101611b4f565b60208401528888018501820160608101516040850152608001516001600160401b0381116100b75761113b908b8b01908a8c0188018501016020016119df565b606084015260a082868a8c0101010151906001600160401b0382116100b7576020936111788b868096958f968b8f849986019501010101016119df565b60808201528152019201919050610ec5565b6040513d6000823e3d90fd5b919397509193949560208061121a600193601f1986820301875260e08c51916111c0818451611ba4565b6001600160801b03198584015116858201526001600160801b031960408401511660408201526060830151606082015260808301511515608082015260a0830151151560a08201528160c080940151938201520190611b5c565b990193019301909289979695949293610b6d565b91939596509193601f1982820301835285519060a0810182519060a08352815180915260c08301602060c08360051b86010193019160005b818110611375575050505060208301519082810360208401528151808252602082016020808360051b85010194019260005b8381106112f45750505050506112e18360209360806112d0869560406001990151604085015260608501518482036060860152611b5c565b920151906080818403910152611b5c565b9701930193019092889695949293610b04565b9091929394602080611368600193601f1987820301885260c060a08b5161131c848251611ba4565b6001600160801b03198682015116868501526001600160801b03196040820151166040850152606081015115156060850152608081015160808501520151918160a08201520190611b5c565b9701959401929101611298565b909192936020806113cc60019360bf198a820301885260a060808a5161139c848251611b81565b85810151151586850152604081015115156040850152606081015160608501520151918160808201520190611b5c565b96019401929101611266565b90503d806000833e6113ea8183611891565b60208282810103126100b7578151916001600160401b0383116100b757608083820183830103126100b757604051926114228461180a565b61142d818301611b3a565b8452602081830101516001600160401b0381116100b757838301601f82848601010112156100b75780828401015161146481611914565b916114726040519384611891565b8183526020830186860160208460051b84888a01010101116100b7576020828688010101905b60208460051b84888a01010101821061166257505050506020850152604081830101516001600160401b0381116100b757838301601f82848601010112156100b7578082840101516114e981611914565b916114f76040519384611891565b8183526020830186860160208460051b84888a01010101116100b7576020828688010101905b60208460051b84888a0101010182106115685750505050604085015260608183010151906001600160401b0382116100b75761155d938301920101611d35565b606082015283610a68565b81516001600160401b0381116100b75760e0888801850182018a8a0103601f1901126100b7576040519161159b83611825565b602082868a8c010101015160058110156100b75783526115c3604083878b8d01010101611b3a565b60208401526115da606083878b8d01010101611b3a565b604084015288880185018201608081015160608501526115fc9060a001611b4f565b608084015261161360c083878b8d01010101611b4f565b60a084015260e082868a8c0101010151906001600160401b0382116100b7576020936116508b868096958f968b8f849986019501010101016119df565b60c0820152815201920191905061151d565b8151906001600160401b0382116100b757602080929161168f8a838095898f8e9085019401010101611c8a565b8152019201919050611498565b3d9150816000823e6116ae8282611891565b60208183810103126100b75780516001600160401b0381116100b7576116d79282019101611d35565b836102e7565b3d9150816000823e6116ef8282611891565b60208183810103126100b75780516001600160401b0381116100b7576117189282019101611c8a565b83610218565b60405162461bcd60e51b815260206004820152600e60248201526d656d70747920726573706f6e736560901b6044820152606490fd5b346100b75760003660031901126100b75760206040517f000000000000000000000000000000000000000000000000000000000000000015158152f35b346100b75760003660031901126100b75780733cd5334eb64ebbd4003b72022cc25465f1bfcee660209252f35b60c081019081106001600160401b038211176117d957604052565b634e487b7160e01b600052604160045260246000fd5b60a081019081106001600160401b038211176117d957604052565b608081019081106001600160401b038211176117d957604052565b60e081019081106001600160401b038211176117d957604052565b604081019081106001600160401b038211176117d957604052565b602081019081106001600160401b038211176117d957604052565b606081019081106001600160401b038211176117d957604052565b90601f801991011681019081106001600160401b038211176117d957604052565b6001600160401b0381116117d957601f01601f191660200190565b81601f820112156100b7578035906118e4826118b2565b926118f26040519485611891565b828452602083830101116100b757816000926020809301838601378301015290565b6001600160401b0381116117d95760051b60200190565b60405190611938826117be565b606060a083600081526000602082015260006040820152600083820152600060808201520152565b80511561196d5760200190565b634e487b7160e01b600052603260045260246000fd5b805182101561196d5760209160051b010190565b60005b8381106119aa5750506000910152565b818101518382015260200161199a565b60001981146119c95760010190565b634e487b7160e01b600052601160045260246000fd5b81601f820112156100b75780516119f5816118b2565b92611a036040519485611891565b818452602082840101116100b757611a219160208085019101611997565b90565b60405190611a3182611840565b60008252604051602083611a448361185b565b600083520152565b611a54611a24565b50611a5d611a24565b506000604051611a6c8161185b565b52604051611a798161185b565b6000815260405191611a8a83611840565b6001600160801b0319168083526020830191825215611afd575151611aac5790565b60405162461bcd60e51b815260206004820152602360248201527f696d706572736f6e6174696f6e206d6f6465206973206e6f7420737570706f726044820152621d195960ea1b6064820152608490fd5b60405162461bcd60e51b815260206004820152601560248201527461707049642063616e6e6f7420626520656d70747960581b6044820152606490fd5b51906001600160801b0319821682036100b757565b519081151582036100b757565b90602091611b7581518092818552858086019101611997565b601f01601f1916010190565b906006821015611b8e5752565b634e487b7160e01b600052602160045260246000fd5b906005821015611b8e5752565b908082519081815260208091019281808460051b8301019501936000915b848310611bdf5750505050505090565b9091929394958480611c44600193601f198682030187528a51611c03828251611b81565b838101518483015260408082015115159083015260608082015115159083015260808082015115159083015260a0809101519160c080928201520190611b5c565b9801930193019194939290611bcf565b611a21916040611c6d8351606084526060840190611b5c565b926020810151151560208401520151906040818403910152611b5c565b919060c0838203126100b75760405190611ca3826117be565b8193805160068110156100b757835260208101516020840152611cc860408201611b4f565b6040840152611cd960608201611b4f565b6060840152611cea60808201611b4f565b608084015260a0810151916001600160401b0383116100b75760a092611d1092016119df565b910152565b60405190611d2282611876565b6060604083828152600060208201520152565b91906060838203126100b75760405190611d4e82611876565b81938051916001600160401b03928381116100b75781611d6f9184016119df565b8452611d7d60208301611b4f565b602085015260408201519283116100b757604092611d1092016119df565b6000805b6060830180518051831015611e045782611db891611983565b51516006811015611df05715611ddb5750611dd46060916119ba565b9050611d9f565b60409350611dea925051611983565b51015190565b634e487b7160e01b84526021600452602484fd5b60405163267ac2cf60e01b815260048101859052602490fdfea264697066735822122009763c09d44f24b4ee726a920449d06895f5be037471183e9f2643e3763f426864736f6c63430008130033","opcodes":"PUSH2 0x140 PUSH1 0x40 SWAP1 DUP1 DUP3 MSTORE CALLVALUE PUSH3 0x377 JUMPI PUSH1 0x0 SWAP2 PUSH2 0x120 SWAP2 DUP4 DUP4 MSTORE PUSH3 0x23 DUP2 PUSH3 0x37C JUMP JUMPDEST PUSH1 0x19 DUP2 MSTORE PUSH1 0x20 PUSH32 0x7369736D6F436F6E6E65637456657269666965722D76312E3200000000000000 DUP2 DUP4 ADD MSTORE DUP3 MLOAD SWAP2 DUP3 PUSH3 0x6C PUSH4 0x349F642F PUSH1 0xE1 SHL SWAP3 DUP4 DUP4 MSTORE PUSH1 0x4 DUP4 ADD PUSH3 0x3F3 JUMP JUMPDEST SUB DUP3 DUP5 PUSH20 0x3CD5334EB64EBBD4003B72022CC25465F1BFCEE6 SWAP3 DUP2 DUP5 GAS STATICCALL SWAP4 DUP5 ISZERO PUSH3 0x36D JUMPI DUP8 SWAP5 PUSH3 0x349 JUMPI JUMPDEST POP PUSH1 0x1 PUSH1 0x1 PUSH1 0xA0 SHL SUB SWAP4 DUP5 AND PUSH1 0x80 MSTORE DUP5 MLOAD PUSH3 0xF8 SWAP1 DUP5 SWAP1 PUSH3 0xBC DUP2 PUSH3 0x37C JUMP JUMPDEST PUSH1 0x17 DUP2 MSTORE PUSH32 0x61757468526571756573744275696C6465722D76312E31000000000000000000 DUP3 DUP3 ADD MSTORE DUP8 MLOAD DUP1 SWAP4 DUP2 SWAP3 DUP8 DUP4 MSTORE PUSH1 0x4 DUP4 ADD PUSH3 0x3F3 JUMP JUMPDEST SUB DUP2 DUP6 GAS STATICCALL SWAP1 DUP2 ISZERO PUSH3 0x2FB JUMPI SWAP1 DUP6 SWAP2 DUP10 SWAP2 PUSH3 0x327 JUMPI JUMPDEST POP AND PUSH1 0xA0 MSTORE PUSH3 0x163 DUP4 DUP7 MLOAD PUSH3 0x127 DUP2 PUSH3 0x37C JUMP JUMPDEST PUSH1 0x18 DUP2 MSTORE PUSH32 0x636C61696D526571756573744275696C6465722D76312E310000000000000000 DUP3 DUP3 ADD MSTORE DUP8 MLOAD DUP1 SWAP4 DUP2 SWAP3 DUP8 DUP4 MSTORE PUSH1 0x4 DUP4 ADD PUSH3 0x3F3 JUMP JUMPDEST SUB DUP2 DUP6 GAS STATICCALL SWAP1 DUP2 ISZERO PUSH3 0x2FB JUMPI SWAP1 DUP6 SWAP2 DUP10 SWAP2 PUSH3 0x305 JUMPI JUMPDEST POP AND PUSH1 0xC0 MSTORE PUSH3 0x1CE DUP4 DUP7 MLOAD PUSH3 0x192 DUP2 PUSH3 0x37C JUMP JUMPDEST PUSH1 0x15 DUP2 MSTORE PUSH32 0x7369676E61747572654275696C6465722D76312E310000000000000000000000 DUP3 DUP3 ADD MSTORE DUP8 MLOAD DUP1 SWAP4 DUP2 SWAP3 DUP8 DUP4 MSTORE PUSH1 0x4 DUP4 ADD PUSH3 0x3F3 JUMP JUMPDEST SUB DUP2 DUP6 GAS STATICCALL SWAP1 DUP2 ISZERO PUSH3 0x2FB JUMPI SWAP2 DUP6 DUP6 SWAP5 SWAP3 PUSH3 0x23E SWAP7 SWAP5 DUP12 SWAP2 PUSH3 0x2D9 JUMPI JUMPDEST POP AND PUSH1 0xE0 MSTORE DUP7 MLOAD SWAP2 PUSH3 0x201 DUP4 PUSH3 0x37C JUMP JUMPDEST PUSH1 0x13 DUP4 MSTORE PUSH32 0x726571756573744275696C6465722D76312E3100000000000000000000000000 DUP5 DUP5 ADD MSTORE DUP8 MLOAD DUP1 SWAP7 DUP2 SWAP5 DUP3 SWAP4 DUP4 MSTORE PUSH1 0x4 DUP4 ADD PUSH3 0x3F3 JUMP JUMPDEST SUB SWAP2 GAS STATICCALL SWAP6 DUP7 ISZERO PUSH3 0x2CE JUMPI SWAP6 PUSH3 0x298 JUMPI JUMPDEST POP POP PUSH2 0x100 SWAP4 AND DUP4 MSTORE MLOAD SWAP1 PUSH2 0x1E53 SWAP3 DUP4 PUSH3 0x43F DUP5 CODECOPY PUSH1 0x80 MLOAD DUP4 PUSH2 0xBBD ADD MSTORE PUSH1 0xA0 MLOAD DUP4 PUSH2 0x1DF ADD MSTORE PUSH1 0xC0 MLOAD DUP4 POP POP PUSH1 0xE0 MLOAD DUP4 PUSH2 0x2AE ADD MSTORE MLOAD DUP3 PUSH2 0xA2F ADD MSTORE MLOAD DUP2 PUSH2 0x176C ADD MSTORE RETURN JUMPDEST PUSH3 0x2BD SWAP3 SWAP6 POP DUP1 RETURNDATASIZE LT PUSH3 0x2C6 JUMPI JUMPDEST PUSH3 0x2B4 DUP2 DUP4 PUSH3 0x3AE JUMP JUMPDEST DUP2 ADD SWAP1 PUSH3 0x3D2 JUMP JUMPDEST SWAP3 CODESIZE DUP1 PUSH3 0x251 JUMP JUMPDEST POP RETURNDATASIZE PUSH3 0x2A8 JUMP JUMPDEST DUP5 MLOAD SWAP1 RETURNDATASIZE SWAP1 DUP3 RETURNDATACOPY RETURNDATASIZE SWAP1 REVERT JUMPDEST PUSH3 0x2F4 SWAP2 POP DUP6 RETURNDATASIZE DUP8 GT PUSH3 0x2C6 JUMPI PUSH3 0x2B4 DUP2 DUP4 PUSH3 0x3AE JUMP JUMPDEST CODESIZE PUSH3 0x1EE JUMP JUMPDEST DUP7 MLOAD RETURNDATASIZE DUP11 DUP3 RETURNDATACOPY RETURNDATASIZE SWAP1 REVERT JUMPDEST PUSH3 0x320 SWAP2 POP DUP6 RETURNDATASIZE DUP8 GT PUSH3 0x2C6 JUMPI PUSH3 0x2B4 DUP2 DUP4 PUSH3 0x3AE JUMP JUMPDEST CODESIZE PUSH3 0x17B JUMP JUMPDEST PUSH3 0x342 SWAP2 POP DUP6 RETURNDATASIZE DUP8 GT PUSH3 0x2C6 JUMPI PUSH3 0x2B4 DUP2 DUP4 PUSH3 0x3AE JUMP JUMPDEST CODESIZE PUSH3 0x110 JUMP JUMPDEST PUSH3 0x365 SWAP2 SWAP5 POP DUP4 RETURNDATASIZE DUP6 GT PUSH3 0x2C6 JUMPI PUSH3 0x2B4 DUP2 DUP4 PUSH3 0x3AE JUMP JUMPDEST SWAP3 CODESIZE PUSH3 0x99 JUMP JUMPDEST DUP6 MLOAD RETURNDATASIZE DUP10 DUP3 RETURNDATACOPY RETURNDATASIZE SWAP1 REVERT JUMPDEST PUSH1 0x0 DUP1 REVERT JUMPDEST PUSH1 0x40 DUP2 ADD SWAP1 DUP2 LT PUSH1 0x1 PUSH1 0x1 PUSH1 0x40 SHL SUB DUP3 GT OR PUSH3 0x398 JUMPI PUSH1 0x40 MSTORE JUMP JUMPDEST PUSH4 0x4E487B71 PUSH1 0xE0 SHL PUSH1 0x0 MSTORE PUSH1 0x41 PUSH1 0x4 MSTORE PUSH1 0x24 PUSH1 0x0 REVERT JUMPDEST PUSH1 0x1F SWAP1 SWAP2 ADD PUSH1 0x1F NOT AND DUP2 ADD SWAP1 PUSH1 0x1 PUSH1 0x1 PUSH1 0x40 SHL SUB DUP3 GT SWAP1 DUP3 LT OR PUSH3 0x398 JUMPI PUSH1 0x40 MSTORE JUMP JUMPDEST SWAP1 DUP2 PUSH1 0x20 SWAP2 SUB SLT PUSH3 0x377 JUMPI MLOAD PUSH1 0x1 PUSH1 0x1 PUSH1 0xA0 SHL SUB DUP2 AND DUP2 SUB PUSH3 0x377 JUMPI SWAP1 JUMP JUMPDEST PUSH1 0x20 DUP1 DUP3 MSTORE DUP3 MLOAD DUP2 DUP4 ADD DUP2 SWAP1 MSTORE SWAP1 SWAP4 SWAP3 PUSH1 0x0 JUMPDEST DUP3 DUP2 LT PUSH3 0x429 JUMPI POP POP PUSH1 0x40 SWAP3 SWAP4 POP PUSH1 0x0 DUP4 DUP3 DUP5 ADD ADD MSTORE PUSH1 0x1F DUP1 NOT SWAP2 ADD AND ADD ADD SWAP1 JUMP JUMPDEST DUP2 DUP2 ADD DUP7 ADD MLOAD DUP5 DUP3 ADD PUSH1 0x40 ADD MSTORE DUP6 ADD PUSH3 0x406 JUMP INVALID PUSH2 0x240 DUP1 PUSH1 0x40 MSTORE PUSH1 0x4 CALLDATASIZE LT ISZERO PUSH2 0x14 JUMPI PUSH1 0x0 DUP1 REVERT JUMPDEST PUSH1 0x0 CALLDATALOAD PUSH1 0xE0 SHR SWAP1 DUP2 PUSH4 0x46916301 EQ PUSH2 0x1791 JUMPI POP DUP1 PUSH4 0xA183DC27 EQ PUSH2 0x1754 JUMPI DUP1 PUSH4 0xA6213AE7 EQ PUSH2 0x103 JUMPI DUP1 PUSH4 0xC187BBC1 EQ PUSH2 0xD8 JUMPI DUP1 PUSH4 0xC9512D99 EQ PUSH2 0xBC JUMPI PUSH4 0xE88C8897 EQ PUSH2 0x62 JUMPI PUSH1 0x0 DUP1 REVERT JUMPDEST CALLVALUE PUSH2 0xB7 JUMPI PUSH1 0x20 CALLDATASIZE PUSH1 0x3 NOT ADD SLT PUSH2 0xB7 JUMPI PUSH1 0x4 CALLDATALOAD PUSH1 0x1 PUSH1 0x1 PUSH1 0x80 SHL SUB NOT DUP2 AND DUP2 SUB PUSH2 0xB7 JUMPI PUSH2 0x92 PUSH1 0x40 SWAP2 PUSH2 0x1A4C JUMP JUMPDEST PUSH2 0xB5 DUP3 MLOAD DUP1 SWAP3 PUSH1 0x20 DUP1 SWAP2 PUSH1 0x1 PUSH1 0x1 PUSH1 0x80 SHL SUB NOT DUP2 MLOAD AND DUP5 MSTORE ADD MLOAD MLOAD ISZERO ISZERO SWAP2 ADD MSTORE JUMP JUMPDEST RETURN JUMPDEST PUSH1 0x0 DUP1 REVERT JUMPDEST CALLVALUE PUSH2 0xB7 JUMPI PUSH1 0x0 CALLDATASIZE PUSH1 0x3 NOT ADD SLT PUSH2 0xB7 JUMPI PUSH1 0x20 PUSH1 0x40 MLOAD PUSH1 0x2 DUP2 MSTORE RETURN JUMPDEST CALLVALUE PUSH2 0xB7 JUMPI PUSH1 0x0 CALLDATASIZE PUSH1 0x3 NOT ADD SLT PUSH2 0xB7 JUMPI PUSH1 0x20 PUSH1 0x0 SLOAD PUSH1 0x80 SHL PUSH1 0x40 MLOAD SWAP1 PUSH1 0x1 PUSH1 0x1 PUSH1 0x80 SHL SUB NOT AND DUP2 MSTORE RETURN JUMPDEST CALLVALUE PUSH2 0xB7 JUMPI PUSH1 0xA0 CALLDATASIZE PUSH1 0x3 NOT ADD SLT PUSH2 0xB7 JUMPI PUSH1 0x4 CALLDATALOAD PUSH1 0x1 PUSH1 0x1 PUSH1 0x40 SHL SUB DUP2 GT PUSH2 0xB7 JUMPI PUSH2 0x133 SWAP1 CALLDATASIZE SWAP1 PUSH1 0x4 ADD PUSH2 0x18CD JUMP JUMPDEST PUSH1 0x80 MSTORE PUSH1 0x24 CALLDATALOAD PUSH1 0x1 PUSH1 0x1 PUSH1 0xA0 SHL SUB DUP2 AND SWAP1 SUB PUSH2 0xB7 JUMPI PUSH1 0x64 CALLDATALOAD PUSH1 0x1 PUSH1 0x1 PUSH1 0x40 SHL SUB DUP2 GT PUSH2 0xB7 JUMPI PUSH2 0x168 SWAP1 CALLDATASIZE SWAP1 PUSH1 0x4 ADD PUSH2 0x18CD JUMP JUMPDEST PUSH1 0x84 CALLDATALOAD PUSH1 0x1 PUSH1 0x1 PUSH1 0x80 SHL SUB NOT DUP2 AND SWAP1 SUB PUSH2 0xB7 JUMPI PUSH1 0x80 MLOAD MLOAD ISZERO PUSH2 0x171E JUMPI PUSH1 0x40 MLOAD SWAP1 PUSH2 0x192 DUP3 PUSH2 0x1840 JUMP JUMPDEST PUSH1 0x1 DUP3 MSTORE PUSH1 0x0 JUMPDEST PUSH1 0x20 DUP2 LT ISZERO PUSH2 0x1B9 JUMPI PUSH1 0x20 SWAP1 PUSH2 0x1AD PUSH2 0x192B JUMP JUMPDEST DUP3 DUP3 DUP7 ADD ADD MSTORE ADD PUSH2 0x199 JUMP JUMPDEST POP PUSH2 0x1C2 PUSH2 0x192B JUMP JUMPDEST POP PUSH1 0x40 MLOAD PUSH4 0x3A0BA6FF PUSH1 0xE0 SHL DUP2 MSTORE PUSH1 0x0 PUSH1 0x4 DUP3 ADD DUP2 SWAP1 MSTORE DUP2 PUSH1 0x24 DUP2 PUSH32 0x0 PUSH1 0x1 PUSH1 0x1 PUSH1 0xA0 SHL SUB AND GAS STATICCALL SWAP1 DUP2 ISZERO PUSH2 0x118A JUMPI PUSH1 0x0 SWAP2 PUSH2 0x16DD JUMPI JUMPDEST POP PUSH2 0x222 DUP4 PUSH2 0x1960 JUMP JUMPDEST MSTORE PUSH2 0x22C DUP3 PUSH2 0x1960 JUMP JUMPDEST POP PUSH2 0x2AA PUSH1 0x0 PUSH1 0x40 MLOAD PUSH12 0xFFFFFFFFFFFFFFFFFFFFFFFF NOT PUSH1 0x24 CALLDATALOAD PUSH1 0x60 SHL AND PUSH1 0x20 DUP3 ADD MSTORE PUSH1 0x44 CALLDATALOAD PUSH1 0x34 DUP3 ADD MSTORE PUSH2 0x27F PUSH1 0x54 DUP3 DUP7 MLOAD PUSH2 0x26F DUP2 DUP5 DUP5 ADD PUSH1 0x20 DUP12 ADD PUSH2 0x1997 JUMP JUMPDEST DUP2 ADD SUB PUSH1 0x34 DUP2 ADD DUP5 MSTORE ADD DUP3 PUSH2 0x1891 JUMP JUMPDEST PUSH2 0x287 PUSH2 0x1D15 JUMP JUMPDEST POP PUSH1 0x40 MLOAD DUP1 SWAP4 DUP2 SWAP3 PUSH4 0x1A0D7CCB PUSH1 0xE2 SHL DUP4 MSTORE PUSH1 0x20 PUSH1 0x4 DUP5 ADD MSTORE PUSH1 0x24 DUP4 ADD SWAP1 PUSH2 0x1B5C JUMP JUMPDEST SUB DUP2 PUSH32 0x0 PUSH1 0x1 PUSH1 0x1 PUSH1 0xA0 SHL SUB AND GAS STATICCALL SWAP1 DUP2 ISZERO PUSH2 0x118A JUMPI PUSH1 0x0 SWAP2 PUSH2 0x169C JUMPI JUMPDEST POP PUSH1 0x60 PUSH1 0xA0 PUSH1 0x40 MLOAD PUSH2 0x2F8 DUP2 PUSH2 0x17BE JUMP JUMPDEST PUSH1 0x0 DUP2 MSTORE PUSH1 0x0 PUSH1 0x20 DUP3 ADD MSTORE PUSH1 0x0 PUSH1 0x40 DUP3 ADD MSTORE DUP3 DUP1 DUP3 ADD MSTORE DUP3 PUSH1 0x80 DUP3 ADD MSTORE ADD MSTORE PUSH1 0x80 MLOAD DUP1 MLOAD DUP2 ADD PUSH2 0x220 MSTORE PUSH1 0x20 DUP2 PUSH2 0x220 MLOAD SUB SLT PUSH2 0xB7 JUMPI PUSH1 0x20 DUP2 ADD MLOAD PUSH2 0x100 MSTORE PUSH1 0x1 PUSH1 0x1 PUSH1 0x40 SHL SUB PUSH2 0x100 MLOAD GT PUSH2 0xB7 JUMPI PUSH1 0xA0 SWAP1 PUSH2 0x100 MLOAD ADD PUSH2 0x220 MLOAD SUB SLT PUSH2 0xB7 JUMPI PUSH1 0x40 MLOAD SWAP1 PUSH2 0x368 DUP3 PUSH2 0x17EF JUMP JUMPDEST PUSH2 0x37B PUSH1 0x20 PUSH2 0x100 MLOAD PUSH1 0x80 MLOAD ADD ADD PUSH2 0x1B3A JUMP JUMPDEST DUP3 MSTORE PUSH2 0x390 PUSH1 0x40 PUSH2 0x100 MLOAD PUSH1 0x80 MLOAD ADD ADD PUSH2 0x1B3A JUMP JUMPDEST PUSH1 0x20 DUP4 ADD MSTORE PUSH1 0x60 PUSH2 0x100 MLOAD PUSH1 0x80 MLOAD ADD ADD MLOAD PUSH1 0x40 DUP4 ADD MSTORE PUSH2 0x100 MLOAD PUSH1 0x80 MLOAD ADD PUSH1 0x80 DUP2 ADD MLOAD SWAP1 PUSH1 0x1 PUSH1 0x1 PUSH1 0x40 SHL SUB DUP3 GT PUSH2 0xB7 JUMPI PUSH1 0x20 PUSH2 0x3D6 SWAP3 DUP2 PUSH2 0x220 MLOAD ADD SWAP3 ADD ADD PUSH2 0x19DF JUMP JUMPDEST PUSH1 0x60 DUP4 ADD MSTORE PUSH2 0x100 MLOAD PUSH1 0x80 MLOAD ADD PUSH1 0xA0 DUP2 ADD MLOAD PUSH1 0xC0 MSTORE PUSH1 0x1 PUSH1 0x1 PUSH1 0x40 SHL SUB PUSH1 0xC0 MLOAD GT PUSH2 0xB7 JUMPI PUSH1 0x20 PUSH2 0x220 MLOAD ADD PUSH1 0x3F PUSH1 0xC0 MLOAD DUP4 ADD ADD SLT ISZERO PUSH2 0xB7 JUMPI PUSH1 0xC0 MLOAD ADD PUSH1 0x20 ADD MLOAD SWAP4 PUSH2 0x422 DUP6 PUSH2 0x1914 JUMP JUMPDEST PUSH2 0x42F PUSH1 0x40 MLOAD SWAP2 DUP3 PUSH2 0x1891 JUMP JUMPDEST DUP1 PUSH2 0x120 MSTORE DUP6 DUP2 MSTORE PUSH1 0x20 DUP2 ADD PUSH2 0x120 MSTORE PUSH1 0xC0 MLOAD PUSH2 0x100 MLOAD PUSH1 0x80 MLOAD ADD ADD PUSH1 0x20 PUSH2 0x220 MLOAD ADD PUSH1 0x40 DUP9 PUSH1 0x5 SHL DUP4 ADD ADD GT PUSH2 0xB7 JUMPI PUSH1 0x40 ADD PUSH2 0x140 MSTORE DUP6 DUP6 DUP5 DUP7 DUP6 JUMPDEST PUSH1 0xC0 MLOAD PUSH2 0x100 MLOAD PUSH1 0x80 MLOAD ADD ADD PUSH1 0x40 DUP7 PUSH1 0x5 SHL DUP3 ADD ADD PUSH2 0x140 MLOAD LT ISZERO PUSH2 0x9BA JUMPI PUSH2 0x140 MLOAD MLOAD PUSH2 0x1C0 MSTORE PUSH1 0x1 PUSH1 0x1 PUSH1 0x40 SHL SUB PUSH2 0x1C0 MLOAD GT PUSH2 0xB7 JUMPI PUSH1 0xA0 SWAP1 PUSH1 0x1F NOT SWAP1 PUSH2 0x1C0 MLOAD ADD PUSH2 0x220 MLOAD SUB ADD SLT PUSH2 0xB7 JUMPI PUSH1 0x40 MLOAD PUSH2 0x1A0 MSTORE PUSH2 0x4D0 PUSH2 0x1A0 MLOAD PUSH2 0x17EF JUMP JUMPDEST PUSH2 0x1C0 MLOAD PUSH1 0xC0 MLOAD PUSH2 0x100 MLOAD PUSH1 0x80 MLOAD ADD ADD ADD PUSH1 0x40 DUP2 ADD MLOAD PUSH1 0xE0 MSTORE PUSH1 0x1 PUSH1 0x1 PUSH1 0x40 SHL SUB PUSH1 0xE0 MLOAD GT PUSH2 0xB7 JUMPI PUSH1 0x20 PUSH2 0x220 MLOAD ADD PUSH1 0x5F PUSH1 0xE0 MLOAD DUP4 ADD ADD SLT ISZERO PUSH2 0xB7 JUMPI PUSH1 0x40 SWAP1 PUSH1 0xE0 MLOAD ADD ADD MLOAD PUSH2 0x160 MSTORE PUSH2 0x527 PUSH2 0x160 MLOAD PUSH2 0x1914 JUMP JUMPDEST SWAP6 PUSH2 0x535 PUSH1 0x40 MLOAD SWAP8 DUP9 PUSH2 0x1891 JUMP JUMPDEST PUSH2 0x160 MLOAD DUP8 MSTORE PUSH1 0x20 DUP8 ADD SWAP4 PUSH1 0xE0 MLOAD PUSH2 0x1C0 MLOAD PUSH1 0xC0 MLOAD PUSH2 0x100 MLOAD PUSH1 0x80 MLOAD ADD ADD ADD ADD PUSH2 0x200 MSTORE PUSH1 0x20 PUSH2 0x220 MLOAD ADD PUSH1 0x60 PUSH2 0x160 MLOAD PUSH1 0x5 SHL PUSH2 0x200 MLOAD ADD ADD GT PUSH2 0xB7 JUMPI PUSH1 0x60 PUSH2 0x200 MLOAD ADD SWAP5 JUMPDEST PUSH1 0xE0 MLOAD PUSH2 0x1C0 MLOAD PUSH1 0xC0 MLOAD PUSH2 0x100 MLOAD PUSH1 0x80 MLOAD ADD ADD ADD ADD SWAP1 PUSH1 0x60 PUSH2 0x160 MLOAD PUSH1 0x5 SHL DUP4 ADD ADD DUP8 LT ISZERO PUSH2 0x6BE JUMPI DUP7 MLOAD SWAP2 PUSH1 0x1 PUSH1 0x1 PUSH1 0x40 SHL SUB DUP4 GT PUSH2 0xB7 JUMPI PUSH2 0x220 MLOAD PUSH1 0xA0 SWAP2 DUP5 ADD SWAP1 SUB PUSH1 0x3F NOT ADD SLT PUSH2 0xB7 JUMPI PUSH1 0x40 MLOAD SWAP2 PUSH2 0x5D8 DUP4 PUSH2 0x17EF JUMP JUMPDEST PUSH1 0x60 DUP2 PUSH1 0xE0 MLOAD PUSH2 0x1C0 MLOAD PUSH1 0xC0 MLOAD PUSH2 0x100 MLOAD PUSH1 0x80 MLOAD ADD ADD ADD ADD ADD ADD MLOAD PUSH1 0x6 DUP2 LT ISZERO PUSH2 0xB7 JUMPI DUP4 MSTORE PUSH2 0x61F PUSH1 0x80 DUP3 PUSH1 0xE0 MLOAD PUSH2 0x1C0 MLOAD PUSH1 0xC0 MLOAD PUSH2 0x100 MLOAD DUP6 MLOAD ADD ADD ADD ADD ADD ADD PUSH2 0x1B4F JUMP JUMPDEST PUSH1 0x20 DUP5 ADD MSTORE PUSH2 0x646 PUSH1 0xA0 DUP3 PUSH1 0xE0 MLOAD PUSH2 0x1C0 MLOAD PUSH1 0xC0 MLOAD PUSH2 0x100 MLOAD PUSH1 0x80 MLOAD ADD ADD ADD ADD ADD ADD PUSH2 0x1B4F JUMP JUMPDEST PUSH1 0x40 DUP5 ADD MSTORE PUSH1 0xC0 DUP2 PUSH1 0xE0 MLOAD PUSH2 0x1C0 MLOAD DUP4 MLOAD PUSH2 0x100 MLOAD PUSH1 0x80 MLOAD ADD ADD ADD ADD ADD ADD MLOAD PUSH1 0x60 DUP5 ADD MSTORE PUSH1 0xE0 MLOAD PUSH2 0x1C0 MLOAD PUSH1 0xC0 MLOAD PUSH2 0x100 MLOAD PUSH1 0x80 MLOAD ADD ADD ADD ADD ADD SWAP1 PUSH1 0xE0 DUP3 ADD MLOAD SWAP3 PUSH1 0x1 PUSH1 0x1 PUSH1 0x40 SHL SUB DUP5 GT PUSH2 0xB7 JUMPI PUSH2 0x6AE PUSH1 0x20 SWAP5 SWAP4 PUSH1 0x60 DUP7 SWAP6 DUP7 PUSH2 0x220 MLOAD ADD SWAP3 ADD ADD PUSH2 0x19DF JUMP JUMPDEST PUSH1 0x80 DUP3 ADD MSTORE DUP2 MSTORE ADD SWAP6 ADD SWAP5 PUSH2 0x57D JUMP JUMPDEST POP POP SWAP4 POP SWAP4 SWAP1 SWAP5 SWAP2 SWAP6 PUSH2 0x1A0 MLOAD MSTORE PUSH2 0x1C0 MLOAD PUSH1 0xC0 MLOAD PUSH2 0x100 MLOAD PUSH1 0x80 MLOAD ADD ADD ADD PUSH1 0x60 DUP2 ADD MLOAD PUSH1 0xA0 MSTORE PUSH1 0x1 PUSH1 0x1 PUSH1 0x40 SHL SUB PUSH1 0xA0 MLOAD GT PUSH2 0xB7 JUMPI PUSH1 0x20 PUSH2 0x220 MLOAD ADD PUSH1 0x5F PUSH1 0xA0 MLOAD DUP4 ADD ADD SLT ISZERO PUSH2 0xB7 JUMPI PUSH1 0x40 SWAP1 PUSH1 0xA0 MLOAD ADD ADD MLOAD PUSH2 0x180 MSTORE PUSH2 0x723 PUSH2 0x180 MLOAD PUSH2 0x1914 JUMP JUMPDEST SWAP6 PUSH2 0x731 PUSH1 0x40 MLOAD SWAP8 DUP9 PUSH2 0x1891 JUMP JUMPDEST PUSH2 0x180 MLOAD DUP8 MSTORE PUSH1 0x20 DUP8 ADD SWAP4 PUSH1 0xA0 MLOAD PUSH2 0x1C0 MLOAD PUSH1 0xC0 MLOAD PUSH2 0x100 MLOAD PUSH1 0x80 MLOAD ADD ADD ADD ADD PUSH2 0x1E0 MSTORE PUSH1 0x20 PUSH2 0x220 MLOAD ADD PUSH1 0x60 PUSH2 0x180 MLOAD PUSH1 0x5 SHL PUSH2 0x1E0 MLOAD ADD ADD GT PUSH2 0xB7 JUMPI PUSH1 0x60 PUSH2 0x1E0 MLOAD ADD SWAP5 JUMPDEST PUSH1 0xA0 MLOAD PUSH2 0x1C0 MLOAD PUSH1 0xC0 MLOAD PUSH2 0x100 MLOAD PUSH1 0x80 MLOAD ADD ADD ADD ADD SWAP1 PUSH1 0x60 PUSH2 0x180 MLOAD PUSH1 0x5 SHL DUP4 ADD ADD DUP8 LT ISZERO PUSH2 0x8E1 JUMPI DUP7 MLOAD SWAP2 PUSH1 0x1 PUSH1 0x1 PUSH1 0x40 SHL SUB DUP4 GT PUSH2 0xB7 JUMPI PUSH2 0x220 MLOAD PUSH1 0xC0 SWAP2 DUP5 ADD SWAP1 SUB PUSH1 0x3F NOT ADD SLT PUSH2 0xB7 JUMPI PUSH1 0x40 MLOAD SWAP2 PUSH2 0x7D4 DUP4 PUSH2 0x17BE JUMP JUMPDEST PUSH1 0x60 DUP2 PUSH1 0xA0 MLOAD PUSH2 0x1C0 MLOAD PUSH1 0xC0 MLOAD PUSH2 0x100 MLOAD PUSH1 0x80 MLOAD ADD ADD ADD ADD ADD ADD MLOAD PUSH1 0x5 DUP2 LT ISZERO PUSH2 0xB7 JUMPI DUP4 MSTORE PUSH2 0x81B PUSH1 0x80 DUP3 PUSH1 0xA0 MLOAD PUSH2 0x1C0 MLOAD PUSH1 0xC0 MLOAD PUSH2 0x100 MLOAD DUP6 MLOAD ADD ADD ADD ADD ADD ADD PUSH2 0x1B3A JUMP JUMPDEST PUSH1 0x20 DUP5 ADD MSTORE PUSH2 0x841 PUSH1 0xA0 DUP3 DUP2 MLOAD PUSH2 0x1C0 MLOAD PUSH1 0xC0 MLOAD PUSH2 0x100 MLOAD PUSH1 0x80 MLOAD ADD ADD ADD ADD ADD ADD PUSH2 0x1B3A JUMP JUMPDEST PUSH1 0x40 DUP5 ADD MSTORE PUSH2 0x867 PUSH1 0xC0 DUP3 PUSH1 0xA0 MLOAD PUSH2 0x1C0 MLOAD DUP4 MLOAD PUSH2 0x100 MLOAD PUSH1 0x80 MLOAD ADD ADD ADD ADD ADD ADD PUSH2 0x1B4F JUMP JUMPDEST PUSH1 0x60 DUP5 ADD MSTORE PUSH1 0xE0 DUP2 PUSH1 0xA0 MLOAD PUSH2 0x1C0 MLOAD PUSH1 0xC0 MLOAD PUSH2 0x100 MLOAD PUSH1 0x80 MLOAD ADD ADD ADD ADD ADD ADD MLOAD PUSH1 0x80 DUP5 ADD MSTORE PUSH1 0xA0 MLOAD PUSH2 0x1C0 MLOAD PUSH1 0xC0 MLOAD PUSH2 0x100 MLOAD PUSH1 0x80 MLOAD ADD ADD ADD ADD ADD SWAP1 PUSH2 0x100 DUP3 ADD MLOAD SWAP3 PUSH1 0x1 PUSH1 0x1 PUSH1 0x40 SHL SUB DUP5 GT PUSH2 0xB7 JUMPI PUSH2 0x8D1 PUSH1 0x20 SWAP5 SWAP4 PUSH1 0x60 DUP7 SWAP6 DUP7 PUSH2 0x220 MLOAD ADD SWAP3 ADD ADD PUSH2 0x19DF JUMP JUMPDEST PUSH1 0xA0 DUP3 ADD MSTORE DUP2 MSTORE ADD SWAP6 ADD SWAP5 PUSH2 0x779 JUMP JUMPDEST POP POP SWAP4 POP SWAP4 SWAP1 SWAP5 SWAP2 SWAP6 PUSH1 0x20 PUSH2 0x1A0 MLOAD ADD MSTORE PUSH1 0x80 PUSH2 0x1C0 MLOAD PUSH1 0xC0 MLOAD PUSH2 0x100 MLOAD DUP4 MLOAD ADD ADD ADD ADD MLOAD PUSH1 0x40 PUSH2 0x1A0 MLOAD ADD MSTORE PUSH2 0x1C0 MLOAD PUSH1 0xC0 MLOAD PUSH2 0x100 MLOAD PUSH1 0x80 MLOAD ADD ADD ADD PUSH1 0xA0 DUP2 ADD MLOAD SWAP1 PUSH1 0x1 PUSH1 0x1 PUSH1 0x40 SHL SUB DUP3 GT PUSH2 0xB7 JUMPI PUSH1 0x40 PUSH2 0x948 SWAP3 PUSH1 0x20 PUSH2 0x220 MLOAD ADD SWAP3 ADD ADD PUSH2 0x19DF JUMP JUMPDEST PUSH1 0x60 PUSH2 0x1A0 MLOAD ADD MSTORE PUSH2 0x1C0 MLOAD PUSH1 0xC0 MLOAD PUSH2 0x100 MLOAD PUSH1 0x80 MLOAD ADD ADD ADD PUSH1 0xC0 DUP2 ADD MLOAD SWAP1 PUSH1 0x1 PUSH1 0x1 PUSH1 0x40 SHL SUB DUP3 GT PUSH2 0xB7 JUMPI PUSH1 0x40 PUSH2 0x98A SWAP3 PUSH1 0x20 PUSH2 0x220 MLOAD ADD SWAP3 ADD ADD PUSH2 0x19DF JUMP JUMPDEST PUSH1 0x80 PUSH2 0x1A0 MLOAD ADD MSTORE PUSH2 0x1A0 MLOAD PUSH2 0x120 MLOAD MSTORE PUSH1 0x20 PUSH2 0x120 MLOAD ADD PUSH2 0x120 MSTORE PUSH1 0x20 PUSH2 0x140 MLOAD ADD PUSH2 0x140 MSTORE SWAP5 SWAP4 SWAP3 SWAP1 PUSH2 0x46D JUMP JUMPDEST POP SWAP2 PUSH1 0x0 PUSH2 0xA19 DUP6 SWAP5 DUP9 PUSH1 0x80 DUP7 ADD MSTORE PUSH1 0x40 MLOAD PUSH2 0x9D5 DUP2 PUSH2 0x180A JUMP JUMPDEST DUP4 DUP2 MSTORE PUSH1 0x60 PUSH1 0x20 DUP3 ADD MSTORE PUSH1 0x60 PUSH1 0x40 DUP3 ADD MSTORE PUSH1 0x60 PUSH2 0x9F0 PUSH2 0x1D15 JUMP JUMPDEST SWAP2 ADD MSTORE PUSH2 0xA2B PUSH1 0x40 MLOAD SWAP5 DUP6 SWAP4 DUP5 SWAP4 PUSH4 0x2CEB1E8D PUSH1 0xE0 SHL DUP6 MSTORE PUSH1 0x40 PUSH1 0x4 DUP7 ADD MSTORE PUSH1 0x44 DUP6 ADD SWAP1 PUSH2 0x1BB1 JUMP JUMPDEST DUP4 DUP2 SUB PUSH1 0x3 NOT ADD PUSH1 0x24 DUP6 ADD MSTORE SWAP1 PUSH2 0x1C54 JUMP JUMPDEST SUB DUP2 PUSH32 0x0 PUSH1 0x1 PUSH1 0x1 PUSH1 0xA0 SHL SUB AND GAS STATICCALL SWAP1 DUP2 ISZERO PUSH2 0x118A JUMPI PUSH1 0x0 SWAP2 PUSH2 0x13D8 JUMPI JUMPDEST POP SWAP1 PUSH2 0xA75 PUSH1 0x84 CALLDATALOAD PUSH2 0x1A4C JUMP JUMPDEST SWAP1 PUSH1 0x40 MLOAD SWAP3 DUP4 SWAP2 PUSH4 0x12B037FF PUSH1 0xE0 SHL DUP4 MSTORE PUSH1 0x80 PUSH1 0x4 DUP5 ADD MSTORE PUSH1 0x1 PUSH1 0x1 PUSH1 0x80 SHL SUB NOT DUP2 MLOAD AND PUSH1 0x84 DUP5 ADD MSTORE PUSH1 0x1 PUSH1 0x1 PUSH1 0x80 SHL SUB NOT PUSH1 0x20 DUP3 ADD MLOAD AND PUSH1 0xA4 DUP5 ADD MSTORE PUSH1 0x40 DUP2 ADD MLOAD PUSH1 0xC4 DUP5 ADD MSTORE PUSH1 0x80 PUSH2 0xAD8 PUSH1 0x60 DUP4 ADD MLOAD PUSH1 0xA0 PUSH1 0xE4 DUP8 ADD MSTORE PUSH2 0x124 DUP7 ADD SWAP1 PUSH2 0x1B5C JUMP JUMPDEST SWAP2 ADD MLOAD SWAP1 PUSH1 0x83 NOT DUP5 DUP3 SUB ADD PUSH2 0x104 DUP6 ADD MSTORE DUP2 MLOAD DUP1 DUP3 MSTORE PUSH1 0x20 DUP3 ADD SWAP2 PUSH1 0x20 DUP1 DUP4 PUSH1 0x5 SHL DUP4 ADD ADD SWAP5 ADD SWAP3 PUSH1 0x0 SWAP2 JUMPDEST DUP4 DUP4 LT PUSH2 0x122E JUMPI POP POP POP POP POP PUSH1 0x3 NOT DUP4 DUP3 SUB ADD PUSH1 0x24 DUP5 ADD MSTORE PUSH1 0x1 PUSH1 0x1 PUSH1 0x80 SHL SUB NOT DUP3 MLOAD AND DUP2 MSTORE PUSH2 0xB43 PUSH1 0x20 DUP4 ADD MLOAD PUSH1 0x80 PUSH1 0x20 DUP5 ADD MSTORE PUSH1 0x80 DUP4 ADD SWAP1 PUSH2 0x1BB1 JUMP JUMPDEST SWAP2 PUSH1 0x40 DUP2 ADD MLOAD SWAP3 DUP3 DUP2 SUB PUSH1 0x40 DUP5 ADD MSTORE DUP4 MLOAD DUP1 DUP3 MSTORE PUSH1 0x20 DUP3 ADD SWAP2 PUSH1 0x20 DUP1 DUP4 PUSH1 0x5 SHL DUP4 ADD ADD SWAP7 ADD SWAP3 PUSH1 0x0 SWAP2 JUMPDEST DUP4 DUP4 LT PUSH2 0x1196 JUMPI POP POP POP POP POP PUSH2 0xB98 DUP5 SWAP4 PUSH1 0x0 SWAP7 SWAP4 PUSH1 0x60 PUSH2 0xBB9 SWAP5 ADD MLOAD SWAP1 PUSH1 0x60 DUP2 DUP5 SUB SWAP2 ADD MSTORE PUSH2 0x1C54 JUMP JUMPDEST DUP3 MLOAD PUSH1 0x1 PUSH1 0x1 PUSH1 0x80 SHL SUB NOT AND PUSH1 0x44 DUP6 ADD MSTORE PUSH1 0x20 SWAP1 SWAP3 ADD MLOAD MLOAD ISZERO ISZERO PUSH1 0x64 DUP5 ADD MSTORE JUMP JUMPDEST SUB DUP2 PUSH32 0x0 PUSH1 0x1 PUSH1 0x1 PUSH1 0xA0 SHL SUB AND GAS STATICCALL SWAP1 DUP2 ISZERO PUSH2 0x118A JUMPI PUSH1 0x0 SWAP2 PUSH2 0xDE8 JUMPI JUMPDEST POP PUSH1 0x60 DUP2 ADD MLOAD MLOAD SWAP2 PUSH2 0xC07 DUP4 PUSH2 0x1914 JUMP JUMPDEST SWAP3 PUSH2 0xC15 PUSH1 0x40 MLOAD SWAP5 DUP6 PUSH2 0x1891 JUMP JUMPDEST DUP1 DUP5 MSTORE PUSH2 0xC24 PUSH1 0x1F NOT SWAP2 PUSH2 0x1914 JUMP JUMPDEST ADD PUSH1 0x0 JUMPDEST DUP2 DUP2 LT PUSH2 0xDAF JUMPI POP POP PUSH1 0x0 JUMPDEST PUSH1 0x60 DUP4 ADD MLOAD DUP1 MLOAD DUP3 LT ISZERO PUSH2 0xC71 JUMPI SWAP1 PUSH2 0xC50 DUP2 PUSH2 0xC6C SWAP4 PUSH2 0x1983 JUMP JUMPDEST MLOAD PUSH2 0xC5B DUP3 DUP8 PUSH2 0x1983 JUMP JUMPDEST MSTORE PUSH2 0xC66 DUP2 DUP7 PUSH2 0x1983 JUMP JUMPDEST POP PUSH2 0x19BA JUMP JUMPDEST PUSH2 0xC34 JUMP JUMPDEST POP POP PUSH1 0xA0 PUSH2 0xC7E DUP4 PUSH2 0x1D9B JUMP JUMPDEST SWAP3 ADD MLOAD DUP1 MLOAD DUP2 ADD SWAP1 PUSH1 0x60 DUP2 DUP4 SUB SLT PUSH2 0xB7 JUMPI PUSH1 0x20 DUP2 ADD MLOAD PUSH1 0x1 PUSH1 0x1 PUSH1 0xA0 SHL SUB DUP2 AND SWAP3 SWAP1 DUP4 SWAP1 SUB PUSH2 0xB7 JUMPI PUSH1 0x40 DUP3 ADD MLOAD SWAP2 PUSH1 0x60 DUP2 ADD MLOAD SWAP2 PUSH1 0x1 PUSH1 0x1 PUSH1 0x40 SHL SUB DUP4 GT PUSH2 0xB7 JUMPI PUSH2 0xCD3 SWAP3 PUSH1 0x20 DUP1 SWAP3 ADD SWAP3 ADD ADD PUSH2 0x19DF JUMP JUMPDEST SWAP2 PUSH1 0x24 CALLDATALOAD PUSH1 0x1 PUSH1 0x1 PUSH1 0xA0 SHL SUB AND SUB PUSH2 0xD75 JUMPI PUSH1 0x44 CALLDATALOAD SUB PUSH2 0xD40 JUMPI PUSH1 0x20 DUP2 MLOAD SWAP2 ADD KECCAK256 SWAP1 PUSH1 0x20 DUP2 MLOAD SWAP2 ADD KECCAK256 SUB PUSH2 0xD0C JUMPI PUSH1 0x20 SWAP1 PUSH1 0x40 MLOAD SWAP1 DUP2 MSTORE RETURN JUMPDEST PUSH1 0x40 MLOAD PUSH3 0x461BCD PUSH1 0xE5 SHL DUP2 MSTORE PUSH1 0x20 PUSH1 0x4 DUP3 ADD MSTORE PUSH1 0xC PUSH1 0x24 DUP3 ADD MSTORE PUSH12 0x496E76616C69642064617461 PUSH1 0xA0 SHL PUSH1 0x44 DUP3 ADD MSTORE PUSH1 0x64 SWAP1 REVERT JUMPDEST PUSH1 0x40 MLOAD PUSH3 0x461BCD PUSH1 0xE5 SHL DUP2 MSTORE PUSH1 0x20 PUSH1 0x4 DUP3 ADD MSTORE PUSH1 0xD PUSH1 0x24 DUP3 ADD MSTORE PUSH13 0x496E76616C69642076616C7565 PUSH1 0x98 SHL PUSH1 0x44 DUP3 ADD MSTORE PUSH1 0x64 SWAP1 REVERT JUMPDEST PUSH1 0x40 MLOAD PUSH3 0x461BCD PUSH1 0xE5 SHL DUP2 MSTORE PUSH1 0x20 PUSH1 0x4 DUP3 ADD MSTORE PUSH1 0x12 PUSH1 0x24 DUP3 ADD MSTORE PUSH18 0x496E76616C696420746F2061646472657373 PUSH1 0x70 SHL PUSH1 0x44 DUP3 ADD MSTORE PUSH1 0x64 SWAP1 REVERT JUMPDEST PUSH1 0x20 SWAP1 PUSH1 0x40 MLOAD PUSH2 0xDBE DUP2 PUSH2 0x17EF JUMP JUMPDEST PUSH1 0x0 DUP2 MSTORE PUSH1 0x0 DUP4 DUP3 ADD MSTORE PUSH1 0x0 PUSH1 0x40 DUP3 ADD MSTORE PUSH1 0x60 DUP1 DUP3 ADD MSTORE PUSH1 0x60 PUSH1 0x80 DUP3 ADD MSTORE DUP3 DUP3 DUP9 ADD ADD MSTORE ADD PUSH2 0xC28 JUMP JUMPDEST SWAP1 POP RETURNDATASIZE DUP1 PUSH1 0x0 DUP4 RETURNDATACOPY PUSH2 0xDFA DUP2 DUP4 PUSH2 0x1891 JUMP JUMPDEST PUSH1 0x20 DUP3 DUP3 DUP2 ADD SUB SLT PUSH2 0xB7 JUMPI DUP2 MLOAD SWAP2 PUSH1 0x1 PUSH1 0x1 PUSH1 0x40 SHL SUB DUP4 GT PUSH2 0xB7 JUMPI PUSH1 0xC0 DUP4 DUP3 ADD DUP4 DUP4 ADD SUB SLT PUSH2 0xB7 JUMPI PUSH1 0x40 MLOAD SWAP3 PUSH2 0xE32 DUP5 PUSH2 0x17BE JUMP JUMPDEST PUSH2 0xE3D DUP2 DUP4 ADD PUSH2 0x1B3A JUMP JUMPDEST DUP5 MSTORE PUSH2 0xE4D PUSH1 0x20 DUP3 DUP5 ADD ADD PUSH2 0x1B3A JUMP JUMPDEST PUSH1 0x20 DUP6 ADD MSTORE DUP2 DUP2 ADD PUSH1 0x40 DUP2 DUP2 ADD MLOAD SWAP1 DUP7 ADD MSTORE PUSH1 0x60 ADD MLOAD PUSH1 0x1 PUSH1 0x1 PUSH1 0x40 SHL SUB DUP2 GT PUSH2 0xB7 JUMPI DUP4 DUP4 ADD PUSH1 0x1F DUP3 DUP5 DUP7 ADD ADD ADD SLT ISZERO PUSH2 0xB7 JUMPI DUP1 DUP3 DUP5 ADD ADD MLOAD PUSH2 0xE91 DUP2 PUSH2 0x1914 JUMP JUMPDEST SWAP2 PUSH2 0xE9F PUSH1 0x40 MLOAD SWAP4 DUP5 PUSH2 0x1891 JUMP JUMPDEST DUP2 DUP4 MSTORE PUSH1 0x20 DUP4 ADD DUP7 DUP7 ADD PUSH1 0x20 DUP5 PUSH1 0x5 SHL DUP5 DUP9 DUP11 ADD ADD ADD ADD GT PUSH2 0xB7 JUMPI PUSH1 0x20 DUP3 DUP7 DUP9 ADD ADD ADD SWAP1 JUMPDEST PUSH1 0x20 DUP5 PUSH1 0x5 SHL DUP5 DUP9 DUP11 ADD ADD ADD ADD DUP3 LT PUSH2 0x10A0 JUMPI POP POP POP POP PUSH1 0x60 DUP6 ADD MSTORE PUSH1 0x80 DUP2 DUP4 ADD ADD MLOAD PUSH1 0x1 PUSH1 0x1 PUSH1 0x40 SHL SUB DUP2 GT PUSH2 0xB7 JUMPI DUP4 DUP4 ADD PUSH1 0x1F DUP3 DUP5 DUP7 ADD ADD ADD SLT ISZERO PUSH2 0xB7 JUMPI DUP1 DUP3 DUP5 ADD ADD MLOAD PUSH2 0xF16 DUP2 PUSH2 0x1914 JUMP JUMPDEST SWAP2 PUSH2 0xF24 PUSH1 0x40 MLOAD SWAP4 DUP5 PUSH2 0x1891 JUMP JUMPDEST DUP2 DUP4 MSTORE PUSH1 0x20 DUP4 ADD DUP7 DUP7 ADD PUSH1 0x20 DUP5 PUSH1 0x5 SHL DUP5 DUP9 DUP11 ADD ADD ADD ADD GT PUSH2 0xB7 JUMPI PUSH1 0x20 DUP3 DUP7 DUP9 ADD ADD ADD SWAP1 JUMPDEST PUSH1 0x20 DUP5 PUSH1 0x5 SHL DUP5 DUP9 DUP11 ADD ADD ADD ADD DUP3 LT PUSH2 0xF95 JUMPI POP POP POP POP PUSH1 0x80 DUP6 ADD MSTORE PUSH1 0xA0 DUP2 DUP4 ADD ADD MLOAD SWAP1 PUSH1 0x1 PUSH1 0x1 PUSH1 0x40 SHL SUB DUP3 GT PUSH2 0xB7 JUMPI PUSH2 0xF8A SWAP4 DUP4 ADD SWAP3 ADD ADD PUSH2 0x19DF JUMP JUMPDEST PUSH1 0xA0 DUP3 ADD MSTORE DUP3 PUSH2 0xBF6 JUMP JUMPDEST DUP2 MLOAD PUSH1 0x1 PUSH1 0x1 PUSH1 0x40 SHL SUB DUP2 GT PUSH2 0xB7 JUMPI PUSH1 0xE0 DUP9 DUP9 ADD DUP6 ADD DUP3 ADD DUP11 DUP11 ADD SUB PUSH1 0x1F NOT ADD SLT PUSH2 0xB7 JUMPI PUSH1 0x40 MLOAD SWAP2 PUSH2 0xFC8 DUP4 PUSH2 0x1825 JUMP JUMPDEST PUSH1 0x20 DUP3 DUP7 DUP11 DUP13 ADD ADD ADD ADD MLOAD PUSH1 0x5 DUP2 LT ISZERO PUSH2 0xB7 JUMPI DUP4 MSTORE PUSH2 0xFF0 PUSH1 0x40 DUP4 DUP8 DUP12 DUP14 ADD ADD ADD ADD PUSH2 0x1B3A JUMP JUMPDEST PUSH1 0x20 DUP5 ADD MSTORE PUSH2 0x1007 PUSH1 0x60 DUP4 DUP8 DUP12 DUP14 ADD ADD ADD ADD PUSH2 0x1B3A JUMP JUMPDEST PUSH1 0x40 DUP5 ADD MSTORE DUP9 DUP9 ADD DUP6 ADD DUP3 ADD PUSH1 0x80 DUP2 ADD MLOAD PUSH1 0x60 DUP6 ADD MSTORE PUSH1 0xA0 ADD MLOAD PUSH1 0x1 PUSH1 0x1 PUSH1 0x40 SHL SUB DUP2 GT PUSH2 0xB7 JUMPI PUSH2 0x1047 SWAP1 DUP12 DUP12 ADD SWAP1 DUP11 DUP13 ADD DUP9 ADD DUP6 ADD ADD PUSH1 0x20 ADD PUSH2 0x19DF JUMP JUMPDEST PUSH1 0x80 DUP5 ADD MSTORE DUP9 DUP9 ADD DUP6 ADD DUP3 ADD PUSH1 0xC0 DUP2 ADD MLOAD PUSH1 0xA0 DUP6 ADD MSTORE PUSH1 0xE0 ADD MLOAD SWAP1 PUSH1 0x1 PUSH1 0x1 PUSH1 0x40 SHL SUB DUP3 GT PUSH2 0xB7 JUMPI PUSH1 0x20 SWAP4 PUSH2 0x108E DUP12 DUP7 DUP1 SWAP7 SWAP6 DUP16 SWAP7 DUP12 DUP16 DUP5 SWAP10 DUP7 ADD SWAP6 ADD ADD ADD ADD ADD PUSH2 0x19DF JUMP JUMPDEST PUSH1 0xC0 DUP3 ADD MSTORE DUP2 MSTORE ADD SWAP3 ADD SWAP2 SWAP1 POP PUSH2 0xF4A JUMP JUMPDEST DUP2 MLOAD PUSH1 0x1 PUSH1 0x1 PUSH1 0x40 SHL SUB DUP2 GT PUSH2 0xB7 JUMPI PUSH1 0xA0 DUP9 DUP9 ADD DUP6 ADD DUP3 ADD DUP11 DUP11 ADD SUB PUSH1 0x1F NOT ADD SLT PUSH2 0xB7 JUMPI PUSH1 0x40 MLOAD SWAP2 PUSH2 0x10D3 DUP4 PUSH2 0x17EF JUMP JUMPDEST PUSH1 0x20 DUP3 DUP7 DUP11 DUP13 ADD ADD ADD ADD MLOAD PUSH1 0x6 DUP2 LT ISZERO PUSH2 0xB7 JUMPI DUP4 MSTORE PUSH2 0x10FB PUSH1 0x40 DUP4 DUP8 DUP12 DUP14 ADD ADD ADD ADD PUSH2 0x1B4F JUMP JUMPDEST PUSH1 0x20 DUP5 ADD MSTORE DUP9 DUP9 ADD DUP6 ADD DUP3 ADD PUSH1 0x60 DUP2 ADD MLOAD PUSH1 0x40 DUP6 ADD MSTORE PUSH1 0x80 ADD MLOAD PUSH1 0x1 PUSH1 0x1 PUSH1 0x40 SHL SUB DUP2 GT PUSH2 0xB7 JUMPI PUSH2 0x113B SWAP1 DUP12 DUP12 ADD SWAP1 DUP11 DUP13 ADD DUP9 ADD DUP6 ADD ADD PUSH1 0x20 ADD PUSH2 0x19DF JUMP JUMPDEST PUSH1 0x60 DUP5 ADD MSTORE PUSH1 0xA0 DUP3 DUP7 DUP11 DUP13 ADD ADD ADD ADD MLOAD SWAP1 PUSH1 0x1 PUSH1 0x1 PUSH1 0x40 SHL SUB DUP3 GT PUSH2 0xB7 JUMPI PUSH1 0x20 SWAP4 PUSH2 0x1178 DUP12 DUP7 DUP1 SWAP7 SWAP6 DUP16 SWAP7 DUP12 DUP16 DUP5 SWAP10 DUP7 ADD SWAP6 ADD ADD ADD ADD ADD PUSH2 0x19DF JUMP JUMPDEST PUSH1 0x80 DUP3 ADD MSTORE DUP2 MSTORE ADD SWAP3 ADD SWAP2 SWAP1 POP PUSH2 0xEC5 JUMP JUMPDEST PUSH1 0x40 MLOAD RETURNDATASIZE PUSH1 0x0 DUP3 RETURNDATACOPY RETURNDATASIZE SWAP1 REVERT JUMPDEST SWAP2 SWAP4 SWAP8 POP SWAP2 SWAP4 SWAP5 SWAP6 PUSH1 0x20 DUP1 PUSH2 0x121A PUSH1 0x1 SWAP4 PUSH1 0x1F NOT DUP7 DUP3 SUB ADD DUP8 MSTORE PUSH1 0xE0 DUP13 MLOAD SWAP2 PUSH2 0x11C0 DUP2 DUP5 MLOAD PUSH2 0x1BA4 JUMP JUMPDEST PUSH1 0x1 PUSH1 0x1 PUSH1 0x80 SHL SUB NOT DUP6 DUP5 ADD MLOAD AND DUP6 DUP3 ADD MSTORE PUSH1 0x1 PUSH1 0x1 PUSH1 0x80 SHL SUB NOT PUSH1 0x40 DUP5 ADD MLOAD AND PUSH1 0x40 DUP3 ADD MSTORE PUSH1 0x60 DUP4 ADD MLOAD PUSH1 0x60 DUP3 ADD MSTORE PUSH1 0x80 DUP4 ADD MLOAD ISZERO ISZERO PUSH1 0x80 DUP3 ADD MSTORE PUSH1 0xA0 DUP4 ADD MLOAD ISZERO ISZERO PUSH1 0xA0 DUP3 ADD MSTORE DUP2 PUSH1 0xC0 DUP1 SWAP5 ADD MLOAD SWAP4 DUP3 ADD MSTORE ADD SWAP1 PUSH2 0x1B5C JUMP JUMPDEST SWAP10 ADD SWAP4 ADD SWAP4 ADD SWAP1 SWAP3 DUP10 SWAP8 SWAP7 SWAP6 SWAP5 SWAP3 SWAP4 PUSH2 0xB6D JUMP JUMPDEST SWAP2 SWAP4 SWAP6 SWAP7 POP SWAP2 SWAP4 PUSH1 0x1F NOT DUP3 DUP3 SUB ADD DUP4 MSTORE DUP6 MLOAD SWAP1 PUSH1 0xA0 DUP2 ADD DUP3 MLOAD SWAP1 PUSH1 0xA0 DUP4 MSTORE DUP2 MLOAD DUP1 SWAP2 MSTORE PUSH1 0xC0 DUP4 ADD PUSH1 0x20 PUSH1 0xC0 DUP4 PUSH1 0x5 SHL DUP7 ADD ADD SWAP4 ADD SWAP2 PUSH1 0x0 JUMPDEST DUP2 DUP2 LT PUSH2 0x1375 JUMPI POP POP POP POP PUSH1 0x20 DUP4 ADD MLOAD SWAP1 DUP3 DUP2 SUB PUSH1 0x20 DUP5 ADD MSTORE DUP2 MLOAD DUP1 DUP3 MSTORE PUSH1 0x20 DUP3 ADD PUSH1 0x20 DUP1 DUP4 PUSH1 0x5 SHL DUP6 ADD ADD SWAP5 ADD SWAP3 PUSH1 0x0 JUMPDEST DUP4 DUP2 LT PUSH2 0x12F4 JUMPI POP POP POP POP POP PUSH2 0x12E1 DUP4 PUSH1 0x20 SWAP4 PUSH1 0x80 PUSH2 0x12D0 DUP7 SWAP6 PUSH1 0x40 PUSH1 0x1 SWAP10 ADD MLOAD PUSH1 0x40 DUP6 ADD MSTORE PUSH1 0x60 DUP6 ADD MLOAD DUP5 DUP3 SUB PUSH1 0x60 DUP7 ADD MSTORE PUSH2 0x1B5C JUMP JUMPDEST SWAP3 ADD MLOAD SWAP1 PUSH1 0x80 DUP2 DUP5 SUB SWAP2 ADD MSTORE PUSH2 0x1B5C JUMP JUMPDEST SWAP8 ADD SWAP4 ADD SWAP4 ADD SWAP1 SWAP3 DUP9 SWAP7 SWAP6 SWAP5 SWAP3 SWAP4 PUSH2 0xB04 JUMP JUMPDEST SWAP1 SWAP2 SWAP3 SWAP4 SWAP5 PUSH1 0x20 DUP1 PUSH2 0x1368 PUSH1 0x1 SWAP4 PUSH1 0x1F NOT DUP8 DUP3 SUB ADD DUP9 MSTORE PUSH1 0xC0 PUSH1 0xA0 DUP12 MLOAD PUSH2 0x131C DUP5 DUP3 MLOAD PUSH2 0x1BA4 JUMP JUMPDEST PUSH1 0x1 PUSH1 0x1 PUSH1 0x80 SHL SUB NOT DUP7 DUP3 ADD MLOAD AND DUP7 DUP6 ADD MSTORE PUSH1 0x1 PUSH1 0x1 PUSH1 0x80 SHL SUB NOT PUSH1 0x40 DUP3 ADD MLOAD AND PUSH1 0x40 DUP6 ADD MSTORE PUSH1 0x60 DUP2 ADD MLOAD ISZERO ISZERO PUSH1 0x60 DUP6 ADD MSTORE PUSH1 0x80 DUP2 ADD MLOAD PUSH1 0x80 DUP6 ADD MSTORE ADD MLOAD SWAP2 DUP2 PUSH1 0xA0 DUP3 ADD MSTORE ADD SWAP1 PUSH2 0x1B5C JUMP JUMPDEST SWAP8 ADD SWAP6 SWAP5 ADD SWAP3 SWAP2 ADD PUSH2 0x1298 JUMP JUMPDEST SWAP1 SWAP2 SWAP3 SWAP4 PUSH1 0x20 DUP1 PUSH2 0x13CC PUSH1 0x1 SWAP4 PUSH1 0xBF NOT DUP11 DUP3 SUB ADD DUP9 MSTORE PUSH1 0xA0 PUSH1 0x80 DUP11 MLOAD PUSH2 0x139C DUP5 DUP3 MLOAD PUSH2 0x1B81 JUMP JUMPDEST DUP6 DUP2 ADD MLOAD ISZERO ISZERO DUP7 DUP6 ADD MSTORE PUSH1 0x40 DUP2 ADD MLOAD ISZERO ISZERO PUSH1 0x40 DUP6 ADD MSTORE PUSH1 0x60 DUP2 ADD MLOAD PUSH1 0x60 DUP6 ADD MSTORE ADD MLOAD SWAP2 DUP2 PUSH1 0x80 DUP3 ADD MSTORE ADD SWAP1 PUSH2 0x1B5C JUMP JUMPDEST SWAP7 ADD SWAP5 ADD SWAP3 SWAP2 ADD PUSH2 0x1266 JUMP JUMPDEST SWAP1 POP RETURNDATASIZE DUP1 PUSH1 0x0 DUP4 RETURNDATACOPY PUSH2 0x13EA DUP2 DUP4 PUSH2 0x1891 JUMP JUMPDEST PUSH1 0x20 DUP3 DUP3 DUP2 ADD SUB SLT PUSH2 0xB7 JUMPI DUP2 MLOAD SWAP2 PUSH1 0x1 PUSH1 0x1 PUSH1 0x40 SHL SUB DUP4 GT PUSH2 0xB7 JUMPI PUSH1 0x80 DUP4 DUP3 ADD DUP4 DUP4 ADD SUB SLT PUSH2 0xB7 JUMPI PUSH1 0x40 MLOAD SWAP3 PUSH2 0x1422 DUP5 PUSH2 0x180A JUMP JUMPDEST PUSH2 0x142D DUP2 DUP4 ADD PUSH2 0x1B3A JUMP JUMPDEST DUP5 MSTORE PUSH1 0x20 DUP2 DUP4 ADD ADD MLOAD PUSH1 0x1 PUSH1 0x1 PUSH1 0x40 SHL SUB DUP2 GT PUSH2 0xB7 JUMPI DUP4 DUP4 ADD PUSH1 0x1F DUP3 DUP5 DUP7 ADD ADD ADD SLT ISZERO PUSH2 0xB7 JUMPI DUP1 DUP3 DUP5 ADD ADD MLOAD PUSH2 0x1464 DUP2 PUSH2 0x1914 JUMP JUMPDEST SWAP2 PUSH2 0x1472 PUSH1 0x40 MLOAD SWAP4 DUP5 PUSH2 0x1891 JUMP JUMPDEST DUP2 DUP4 MSTORE PUSH1 0x20 DUP4 ADD DUP7 DUP7 ADD PUSH1 0x20 DUP5 PUSH1 0x5 SHL DUP5 DUP9 DUP11 ADD ADD ADD ADD GT PUSH2 0xB7 JUMPI PUSH1 0x20 DUP3 DUP7 DUP9 ADD ADD ADD SWAP1 JUMPDEST PUSH1 0x20 DUP5 PUSH1 0x5 SHL DUP5 DUP9 DUP11 ADD ADD ADD ADD DUP3 LT PUSH2 0x1662 JUMPI POP POP POP POP PUSH1 0x20 DUP6 ADD MSTORE PUSH1 0x40 DUP2 DUP4 ADD ADD MLOAD PUSH1 0x1 PUSH1 0x1 PUSH1 0x40 SHL SUB DUP2 GT PUSH2 0xB7 JUMPI DUP4 DUP4 ADD PUSH1 0x1F DUP3 DUP5 DUP7 ADD ADD ADD SLT ISZERO PUSH2 0xB7 JUMPI DUP1 DUP3 DUP5 ADD ADD MLOAD PUSH2 0x14E9 DUP2 PUSH2 0x1914 JUMP JUMPDEST SWAP2 PUSH2 0x14F7 PUSH1 0x40 MLOAD SWAP4 DUP5 PUSH2 0x1891 JUMP JUMPDEST DUP2 DUP4 MSTORE PUSH1 0x20 DUP4 ADD DUP7 DUP7 ADD PUSH1 0x20 DUP5 PUSH1 0x5 SHL DUP5 DUP9 DUP11 ADD ADD ADD ADD GT PUSH2 0xB7 JUMPI PUSH1 0x20 DUP3 DUP7 DUP9 ADD ADD ADD SWAP1 JUMPDEST PUSH1 0x20 DUP5 PUSH1 0x5 SHL DUP5 DUP9 DUP11 ADD ADD ADD ADD DUP3 LT PUSH2 0x1568 JUMPI POP POP POP POP PUSH1 0x40 DUP6 ADD MSTORE PUSH1 0x60 DUP2 DUP4 ADD ADD MLOAD SWAP1 PUSH1 0x1 PUSH1 0x1 PUSH1 0x40 SHL SUB DUP3 GT PUSH2 0xB7 JUMPI PUSH2 0x155D SWAP4 DUP4 ADD SWAP3 ADD ADD PUSH2 0x1D35 JUMP JUMPDEST PUSH1 0x60 DUP3 ADD MSTORE DUP4 PUSH2 0xA68 JUMP JUMPDEST DUP2 MLOAD PUSH1 0x1 PUSH1 0x1 PUSH1 0x40 SHL SUB DUP2 GT PUSH2 0xB7 JUMPI PUSH1 0xE0 DUP9 DUP9 ADD DUP6 ADD DUP3 ADD DUP11 DUP11 ADD SUB PUSH1 0x1F NOT ADD SLT PUSH2 0xB7 JUMPI PUSH1 0x40 MLOAD SWAP2 PUSH2 0x159B DUP4 PUSH2 0x1825 JUMP JUMPDEST PUSH1 0x20 DUP3 DUP7 DUP11 DUP13 ADD ADD ADD ADD MLOAD PUSH1 0x5 DUP2 LT ISZERO PUSH2 0xB7 JUMPI DUP4 MSTORE PUSH2 0x15C3 PUSH1 0x40 DUP4 DUP8 DUP12 DUP14 ADD ADD ADD ADD PUSH2 0x1B3A JUMP JUMPDEST PUSH1 0x20 DUP5 ADD MSTORE PUSH2 0x15DA PUSH1 0x60 DUP4 DUP8 DUP12 DUP14 ADD ADD ADD ADD PUSH2 0x1B3A JUMP JUMPDEST PUSH1 0x40 DUP5 ADD MSTORE DUP9 DUP9 ADD DUP6 ADD DUP3 ADD PUSH1 0x80 DUP2 ADD MLOAD PUSH1 0x60 DUP6 ADD MSTORE PUSH2 0x15FC SWAP1 PUSH1 0xA0 ADD PUSH2 0x1B4F JUMP JUMPDEST PUSH1 0x80 DUP5 ADD MSTORE PUSH2 0x1613 PUSH1 0xC0 DUP4 DUP8 DUP12 DUP14 ADD ADD ADD ADD PUSH2 0x1B4F JUMP JUMPDEST PUSH1 0xA0 DUP5 ADD MSTORE PUSH1 0xE0 DUP3 DUP7 DUP11 DUP13 ADD ADD ADD ADD MLOAD SWAP1 PUSH1 0x1 PUSH1 0x1 PUSH1 0x40 SHL SUB DUP3 GT PUSH2 0xB7 JUMPI PUSH1 0x20 SWAP4 PUSH2 0x1650 DUP12 DUP7 DUP1 SWAP7 SWAP6 DUP16 SWAP7 DUP12 DUP16 DUP5 SWAP10 DUP7 ADD SWAP6 ADD ADD ADD ADD ADD PUSH2 0x19DF JUMP JUMPDEST PUSH1 0xC0 DUP3 ADD MSTORE DUP2 MSTORE ADD SWAP3 ADD SWAP2 SWAP1 POP PUSH2 0x151D JUMP JUMPDEST DUP2 MLOAD SWAP1 PUSH1 0x1 PUSH1 0x1 PUSH1 0x40 SHL SUB DUP3 GT PUSH2 0xB7 JUMPI PUSH1 0x20 DUP1 SWAP3 SWAP2 PUSH2 0x168F DUP11 DUP4 DUP1 SWAP6 DUP10 DUP16 DUP15 SWAP1 DUP6 ADD SWAP5 ADD ADD ADD ADD PUSH2 0x1C8A JUMP JUMPDEST DUP2 MSTORE ADD SWAP3 ADD SWAP2 SWAP1 POP PUSH2 0x1498 JUMP JUMPDEST RETURNDATASIZE SWAP2 POP DUP2 PUSH1 0x0 DUP3 RETURNDATACOPY PUSH2 0x16AE DUP3 DUP3 PUSH2 0x1891 JUMP JUMPDEST PUSH1 0x20 DUP2 DUP4 DUP2 ADD SUB SLT PUSH2 0xB7 JUMPI DUP1 MLOAD PUSH1 0x1 PUSH1 0x1 PUSH1 0x40 SHL SUB DUP2 GT PUSH2 0xB7 JUMPI PUSH2 0x16D7 SWAP3 DUP3 ADD SWAP2 ADD PUSH2 0x1D35 JUMP JUMPDEST DUP4 PUSH2 0x2E7 JUMP JUMPDEST RETURNDATASIZE SWAP2 POP DUP2 PUSH1 0x0 DUP3 RETURNDATACOPY PUSH2 0x16EF DUP3 DUP3 PUSH2 0x1891 JUMP JUMPDEST PUSH1 0x20 DUP2 DUP4 DUP2 ADD SUB SLT PUSH2 0xB7 JUMPI DUP1 MLOAD PUSH1 0x1 PUSH1 0x1 PUSH1 0x40 SHL SUB DUP2 GT PUSH2 0xB7 JUMPI PUSH2 0x1718 SWAP3 DUP3 ADD SWAP2 ADD PUSH2 0x1C8A JUMP JUMPDEST DUP4 PUSH2 0x218 JUMP JUMPDEST PUSH1 0x40 MLOAD PUSH3 0x461BCD PUSH1 0xE5 SHL DUP2 MSTORE PUSH1 0x20 PUSH1 0x4 DUP3 ADD MSTORE PUSH1 0xE PUSH1 0x24 DUP3 ADD MSTORE PUSH14 0x656D70747920726573706F6E7365 PUSH1 0x90 SHL PUSH1 0x44 DUP3 ADD MSTORE PUSH1 0x64 SWAP1 REVERT JUMPDEST CALLVALUE PUSH2 0xB7 JUMPI PUSH1 0x0 CALLDATASIZE PUSH1 0x3 NOT ADD SLT PUSH2 0xB7 JUMPI PUSH1 0x20 PUSH1 0x40 MLOAD PUSH32 0x0 ISZERO ISZERO DUP2 MSTORE RETURN JUMPDEST CALLVALUE PUSH2 0xB7 JUMPI PUSH1 0x0 CALLDATASIZE PUSH1 0x3 NOT ADD SLT PUSH2 0xB7 JUMPI DUP1 PUSH20 0x3CD5334EB64EBBD4003B72022CC25465F1BFCEE6 PUSH1 0x20 SWAP3 MSTORE RETURN JUMPDEST PUSH1 0xC0 DUP2 ADD SWAP1 DUP2 LT PUSH1 0x1 PUSH1 0x1 PUSH1 0x40 SHL SUB DUP3 GT OR PUSH2 0x17D9 JUMPI PUSH1 0x40 MSTORE JUMP JUMPDEST PUSH4 0x4E487B71 PUSH1 0xE0 SHL PUSH1 0x0 MSTORE PUSH1 0x41 PUSH1 0x4 MSTORE PUSH1 0x24 PUSH1 0x0 REVERT JUMPDEST PUSH1 0xA0 DUP2 ADD SWAP1 DUP2 LT PUSH1 0x1 PUSH1 0x1 PUSH1 0x40 SHL SUB DUP3 GT OR PUSH2 0x17D9 JUMPI PUSH1 0x40 MSTORE JUMP JUMPDEST PUSH1 0x80 DUP2 ADD SWAP1 DUP2 LT PUSH1 0x1 PUSH1 0x1 PUSH1 0x40 SHL SUB DUP3 GT OR PUSH2 0x17D9 JUMPI PUSH1 0x40 MSTORE JUMP JUMPDEST PUSH1 0xE0 DUP2 ADD SWAP1 DUP2 LT PUSH1 0x1 PUSH1 0x1 PUSH1 0x40 SHL SUB DUP3 GT OR PUSH2 0x17D9 JUMPI PUSH1 0x40 MSTORE JUMP JUMPDEST PUSH1 0x40 DUP2 ADD SWAP1 DUP2 LT PUSH1 0x1 PUSH1 0x1 PUSH1 0x40 SHL SUB DUP3 GT OR PUSH2 0x17D9 JUMPI PUSH1 0x40 MSTORE JUMP JUMPDEST PUSH1 0x20 DUP2 ADD SWAP1 DUP2 LT PUSH1 0x1 PUSH1 0x1 PUSH1 0x40 SHL SUB DUP3 GT OR PUSH2 0x17D9 JUMPI PUSH1 0x40 MSTORE JUMP JUMPDEST PUSH1 0x60 DUP2 ADD SWAP1 DUP2 LT PUSH1 0x1 PUSH1 0x1 PUSH1 0x40 SHL SUB DUP3 GT OR PUSH2 0x17D9 JUMPI PUSH1 0x40 MSTORE JUMP JUMPDEST SWAP1 PUSH1 0x1F DUP1 NOT SWAP2 ADD AND DUP2 ADD SWAP1 DUP2 LT PUSH1 0x1 PUSH1 0x1 PUSH1 0x40 SHL SUB DUP3 GT OR PUSH2 0x17D9 JUMPI PUSH1 0x40 MSTORE JUMP JUMPDEST PUSH1 0x1 PUSH1 0x1 PUSH1 0x40 SHL SUB DUP2 GT PUSH2 0x17D9 JUMPI PUSH1 0x1F ADD PUSH1 0x1F NOT AND PUSH1 0x20 ADD SWAP1 JUMP JUMPDEST DUP2 PUSH1 0x1F DUP3 ADD SLT ISZERO PUSH2 0xB7 JUMPI DUP1 CALLDATALOAD SWAP1 PUSH2 0x18E4 DUP3 PUSH2 0x18B2 JUMP JUMPDEST SWAP3 PUSH2 0x18F2 PUSH1 0x40 MLOAD SWAP5 DUP6 PUSH2 0x1891 JUMP JUMPDEST DUP3 DUP5 MSTORE PUSH1 0x20 DUP4 DUP4 ADD ADD GT PUSH2 0xB7 JUMPI DUP2 PUSH1 0x0 SWAP3 PUSH1 0x20 DUP1 SWAP4 ADD DUP4 DUP7 ADD CALLDATACOPY DUP4 ADD ADD MSTORE SWAP1 JUMP JUMPDEST PUSH1 0x1 PUSH1 0x1 PUSH1 0x40 SHL SUB DUP2 GT PUSH2 0x17D9 JUMPI PUSH1 0x5 SHL PUSH1 0x20 ADD SWAP1 JUMP JUMPDEST PUSH1 0x40 MLOAD SWAP1 PUSH2 0x1938 DUP3 PUSH2 0x17BE JUMP JUMPDEST PUSH1 0x60 PUSH1 0xA0 DUP4 PUSH1 0x0 DUP2 MSTORE PUSH1 0x0 PUSH1 0x20 DUP3 ADD MSTORE PUSH1 0x0 PUSH1 0x40 DUP3 ADD MSTORE PUSH1 0x0 DUP4 DUP3 ADD MSTORE PUSH1 0x0 PUSH1 0x80 DUP3 ADD MSTORE ADD MSTORE JUMP JUMPDEST DUP1 MLOAD ISZERO PUSH2 0x196D JUMPI PUSH1 0x20 ADD SWAP1 JUMP JUMPDEST PUSH4 0x4E487B71 PUSH1 0xE0 SHL PUSH1 0x0 MSTORE PUSH1 0x32 PUSH1 0x4 MSTORE PUSH1 0x24 PUSH1 0x0 REVERT JUMPDEST DUP1 MLOAD DUP3 LT ISZERO PUSH2 0x196D JUMPI PUSH1 0x20 SWAP2 PUSH1 0x5 SHL ADD ADD SWAP1 JUMP JUMPDEST PUSH1 0x0 JUMPDEST DUP4 DUP2 LT PUSH2 0x19AA JUMPI POP POP PUSH1 0x0 SWAP2 ADD MSTORE JUMP JUMPDEST DUP2 DUP2 ADD MLOAD DUP4 DUP3 ADD MSTORE PUSH1 0x20 ADD PUSH2 0x199A JUMP JUMPDEST PUSH1 0x0 NOT DUP2 EQ PUSH2 0x19C9 JUMPI PUSH1 0x1 ADD SWAP1 JUMP JUMPDEST PUSH4 0x4E487B71 PUSH1 0xE0 SHL PUSH1 0x0 MSTORE PUSH1 0x11 PUSH1 0x4 MSTORE PUSH1 0x24 PUSH1 0x0 REVERT JUMPDEST DUP2 PUSH1 0x1F DUP3 ADD SLT ISZERO PUSH2 0xB7 JUMPI DUP1 MLOAD PUSH2 0x19F5 DUP2 PUSH2 0x18B2 JUMP JUMPDEST SWAP3 PUSH2 0x1A03 PUSH1 0x40 MLOAD SWAP5 DUP6 PUSH2 0x1891 JUMP JUMPDEST DUP2 DUP5 MSTORE PUSH1 0x20 DUP3 DUP5 ADD ADD GT PUSH2 0xB7 JUMPI PUSH2 0x1A21 SWAP2 PUSH1 0x20 DUP1 DUP6 ADD SWAP2 ADD PUSH2 0x1997 JUMP JUMPDEST SWAP1 JUMP JUMPDEST PUSH1 0x40 MLOAD SWAP1 PUSH2 0x1A31 DUP3 PUSH2 0x1840 JUMP JUMPDEST PUSH1 0x0 DUP3 MSTORE PUSH1 0x40 MLOAD PUSH1 0x20 DUP4 PUSH2 0x1A44 DUP4 PUSH2 0x185B JUMP JUMPDEST PUSH1 0x0 DUP4 MSTORE ADD MSTORE JUMP JUMPDEST PUSH2 0x1A54 PUSH2 0x1A24 JUMP JUMPDEST POP PUSH2 0x1A5D PUSH2 0x1A24 JUMP JUMPDEST POP PUSH1 0x0 PUSH1 0x40 MLOAD PUSH2 0x1A6C DUP2 PUSH2 0x185B JUMP JUMPDEST MSTORE PUSH1 0x40 MLOAD PUSH2 0x1A79 DUP2 PUSH2 0x185B JUMP JUMPDEST PUSH1 0x0 DUP2 MSTORE PUSH1 0x40 MLOAD SWAP2 PUSH2 0x1A8A DUP4 PUSH2 0x1840 JUMP JUMPDEST PUSH1 0x1 PUSH1 0x1 PUSH1 0x80 SHL SUB NOT AND DUP1 DUP4 MSTORE PUSH1 0x20 DUP4 ADD SWAP2 DUP3 MSTORE ISZERO PUSH2 0x1AFD JUMPI MLOAD MLOAD PUSH2 0x1AAC JUMPI SWAP1 JUMP JUMPDEST PUSH1 0x40 MLOAD PUSH3 0x461BCD PUSH1 0xE5 SHL DUP2 MSTORE PUSH1 0x20 PUSH1 0x4 DUP3 ADD MSTORE PUSH1 0x23 PUSH1 0x24 DUP3 ADD MSTORE PUSH32 0x696D706572736F6E6174696F6E206D6F6465206973206E6F7420737570706F72 PUSH1 0x44 DUP3 ADD MSTORE PUSH3 0x1D1959 PUSH1 0xEA SHL PUSH1 0x64 DUP3 ADD MSTORE PUSH1 0x84 SWAP1 REVERT JUMPDEST PUSH1 0x40 MLOAD PUSH3 0x461BCD PUSH1 0xE5 SHL DUP2 MSTORE PUSH1 0x20 PUSH1 0x4 DUP3 ADD MSTORE PUSH1 0x15 PUSH1 0x24 DUP3 ADD MSTORE PUSH21 0x61707049642063616E6E6F7420626520656D707479 PUSH1 0x58 SHL PUSH1 0x44 DUP3 ADD MSTORE PUSH1 0x64 SWAP1 REVERT JUMPDEST MLOAD SWAP1 PUSH1 0x1 PUSH1 0x1 PUSH1 0x80 SHL SUB NOT DUP3 AND DUP3 SUB PUSH2 0xB7 JUMPI JUMP JUMPDEST MLOAD SWAP1 DUP2 ISZERO ISZERO DUP3 SUB PUSH2 0xB7 JUMPI JUMP JUMPDEST SWAP1 PUSH1 0x20 SWAP2 PUSH2 0x1B75 DUP2 MLOAD DUP1 SWAP3 DUP2 DUP6 MSTORE DUP6 DUP1 DUP7 ADD SWAP2 ADD PUSH2 0x1997 JUMP JUMPDEST PUSH1 0x1F ADD PUSH1 0x1F NOT AND ADD ADD SWAP1 JUMP JUMPDEST SWAP1 PUSH1 0x6 DUP3 LT ISZERO PUSH2 0x1B8E JUMPI MSTORE JUMP JUMPDEST PUSH4 0x4E487B71 PUSH1 0xE0 SHL PUSH1 0x0 MSTORE PUSH1 0x21 PUSH1 0x4 MSTORE PUSH1 0x24 PUSH1 0x0 REVERT JUMPDEST SWAP1 PUSH1 0x5 DUP3 LT ISZERO PUSH2 0x1B8E JUMPI MSTORE JUMP JUMPDEST SWAP1 DUP1 DUP3 MLOAD SWAP1 DUP2 DUP2 MSTORE PUSH1 0x20 DUP1 SWAP2 ADD SWAP3 DUP2 DUP1 DUP5 PUSH1 0x5 SHL DUP4 ADD ADD SWAP6 ADD SWAP4 PUSH1 0x0 SWAP2 JUMPDEST DUP5 DUP4 LT PUSH2 0x1BDF JUMPI POP POP POP POP POP POP SWAP1 JUMP JUMPDEST SWAP1 SWAP2 SWAP3 SWAP4 SWAP5 SWAP6 DUP5 DUP1 PUSH2 0x1C44 PUSH1 0x1 SWAP4 PUSH1 0x1F NOT DUP7 DUP3 SUB ADD DUP8 MSTORE DUP11 MLOAD PUSH2 0x1C03 DUP3 DUP3 MLOAD PUSH2 0x1B81 JUMP JUMPDEST DUP4 DUP2 ADD MLOAD DUP5 DUP4 ADD MSTORE PUSH1 0x40 DUP1 DUP3 ADD MLOAD ISZERO ISZERO SWAP1 DUP4 ADD MSTORE PUSH1 0x60 DUP1 DUP3 ADD MLOAD ISZERO ISZERO SWAP1 DUP4 ADD MSTORE PUSH1 0x80 DUP1 DUP3 ADD MLOAD ISZERO ISZERO SWAP1 DUP4 ADD MSTORE PUSH1 0xA0 DUP1 SWAP2 ADD MLOAD SWAP2 PUSH1 0xC0 DUP1 SWAP3 DUP3 ADD MSTORE ADD SWAP1 PUSH2 0x1B5C JUMP JUMPDEST SWAP9 ADD SWAP4 ADD SWAP4 ADD SWAP2 SWAP5 SWAP4 SWAP3 SWAP1 PUSH2 0x1BCF JUMP JUMPDEST PUSH2 0x1A21 SWAP2 PUSH1 0x40 PUSH2 0x1C6D DUP4 MLOAD PUSH1 0x60 DUP5 MSTORE PUSH1 0x60 DUP5 ADD SWAP1 PUSH2 0x1B5C JUMP JUMPDEST SWAP3 PUSH1 0x20 DUP2 ADD MLOAD ISZERO ISZERO PUSH1 0x20 DUP5 ADD MSTORE ADD MLOAD SWAP1 PUSH1 0x40 DUP2 DUP5 SUB SWAP2 ADD MSTORE PUSH2 0x1B5C JUMP JUMPDEST SWAP2 SWAP1 PUSH1 0xC0 DUP4 DUP3 SUB SLT PUSH2 0xB7 JUMPI PUSH1 0x40 MLOAD SWAP1 PUSH2 0x1CA3 DUP3 PUSH2 0x17BE JUMP JUMPDEST DUP2 SWAP4 DUP1 MLOAD PUSH1 0x6 DUP2 LT ISZERO PUSH2 0xB7 JUMPI DUP4 MSTORE PUSH1 0x20 DUP2 ADD MLOAD PUSH1 0x20 DUP5 ADD MSTORE PUSH2 0x1CC8 PUSH1 0x40 DUP3 ADD PUSH2 0x1B4F JUMP JUMPDEST PUSH1 0x40 DUP5 ADD MSTORE PUSH2 0x1CD9 PUSH1 0x60 DUP3 ADD PUSH2 0x1B4F JUMP JUMPDEST PUSH1 0x60 DUP5 ADD MSTORE PUSH2 0x1CEA PUSH1 0x80 DUP3 ADD PUSH2 0x1B4F JUMP JUMPDEST PUSH1 0x80 DUP5 ADD MSTORE PUSH1 0xA0 DUP2 ADD MLOAD SWAP2 PUSH1 0x1 PUSH1 0x1 PUSH1 0x40 SHL SUB DUP4 GT PUSH2 0xB7 JUMPI PUSH1 0xA0 SWAP3 PUSH2 0x1D10 SWAP3 ADD PUSH2 0x19DF JUMP JUMPDEST SWAP2 ADD MSTORE JUMP JUMPDEST PUSH1 0x40 MLOAD SWAP1 PUSH2 0x1D22 DUP3 PUSH2 0x1876 JUMP JUMPDEST PUSH1 0x60 PUSH1 0x40 DUP4 DUP3 DUP2 MSTORE PUSH1 0x0 PUSH1 0x20 DUP3 ADD MSTORE ADD MSTORE JUMP JUMPDEST SWAP2 SWAP1 PUSH1 0x60 DUP4 DUP3 SUB SLT PUSH2 0xB7 JUMPI PUSH1 0x40 MLOAD SWAP1 PUSH2 0x1D4E DUP3 PUSH2 0x1876 JUMP JUMPDEST DUP2 SWAP4 DUP1 MLOAD SWAP2 PUSH1 0x1 PUSH1 0x1 PUSH1 0x40 SHL SUB SWAP3 DUP4 DUP2 GT PUSH2 0xB7 JUMPI DUP2 PUSH2 0x1D6F SWAP2 DUP5 ADD PUSH2 0x19DF JUMP JUMPDEST DUP5 MSTORE PUSH2 0x1D7D PUSH1 0x20 DUP4 ADD PUSH2 0x1B4F JUMP JUMPDEST PUSH1 0x20 DUP6 ADD MSTORE PUSH1 0x40 DUP3 ADD MLOAD SWAP3 DUP4 GT PUSH2 0xB7 JUMPI PUSH1 0x40 SWAP3 PUSH2 0x1D10 SWAP3 ADD PUSH2 0x19DF JUMP JUMPDEST PUSH1 0x0 DUP1 JUMPDEST PUSH1 0x60 DUP4 ADD DUP1 MLOAD DUP1 MLOAD DUP4 LT ISZERO PUSH2 0x1E04 JUMPI DUP3 PUSH2 0x1DB8 SWAP2 PUSH2 0x1983 JUMP JUMPDEST MLOAD MLOAD PUSH1 0x6 DUP2 LT ISZERO PUSH2 0x1DF0 JUMPI ISZERO PUSH2 0x1DDB JUMPI POP PUSH2 0x1DD4 PUSH1 0x60 SWAP2 PUSH2 0x19BA JUMP JUMPDEST SWAP1 POP PUSH2 0x1D9F JUMP JUMPDEST PUSH1 0x40 SWAP4 POP PUSH2 0x1DEA SWAP3 POP MLOAD PUSH2 0x1983 JUMP JUMPDEST MLOAD ADD MLOAD SWAP1 JUMP JUMPDEST PUSH4 0x4E487B71 PUSH1 0xE0 SHL DUP5 MSTORE PUSH1 0x21 PUSH1 0x4 MSTORE PUSH1 0x24 DUP5 REVERT JUMPDEST PUSH1 0x40 MLOAD PUSH4 0x267AC2CF PUSH1 0xE0 SHL DUP2 MSTORE PUSH1 0x4 DUP2 ADD DUP6 SWAP1 MSTORE PUSH1 0x24 SWAP1 REVERT INVALID LOG2 PUSH5 0x6970667358 0x22 SLT KECCAK256 MULMOD PUSH23 0x3C09D44F24B4EE726A920449D06895F5BE037471183E9F 0x26 NUMBER 0xE3 PUSH23 0x3F426864736F6C63430008130033000000000000000000 "},"gasEstimates":{"creation":{"codeDepositCost":"1552600","executionCost":"infinite","totalCost":"infinite"},"external":{"ADDRESSES_PROVIDER_V2()":"192","APP_ID()":"2393","IS_IMPERSONATION_MODE()":"infinite","SISMO_CONNECT_LIB_VERSION()":"285","config(bytes16)":"infinite","sismoVerify(bytes,address,uint256,bytes,bytes16)":"infinite"}},"methodIdentifiers":{"ADDRESSES_PROVIDER_V2()":"46916301","APP_ID()":"c187bbc1","IS_IMPERSONATION_MODE()":"a183dc27","SISMO_CONNECT_LIB_VERSION()":"c9512d99","config(bytes16)":"e88c8897","sismoVerify(bytes,address,uint256,bytes,bytes16)":"a6213ae7"}},"storageLayout":{"storage":[{"astId":470,"contract":"contracts/SismoVerifier.sol:SismoVerifier","label":"APP_ID","offset":0,"slot":"0","type":"t_bytes16"}],"types":{"t_bytes16":{"encoding":"inplace","label":"bytes16","numberOfBytes":"16"}}},"userdoc":{"kind":"user","methods":{},"version":1}}}}