{"contracts/helpers/utils/ClaimRequestBuilder.sol":{"ClaimRequestBuilder":{"abi":[{"inputs":[],"name":"DEFAULT_CLAIM_REQUEST_EXTRA_DATA","outputs":[{"internalType":"bytes","name":"","type":"bytes"}],"stateMutability":"view","type":"function"},{"inputs":[],"name":"DEFAULT_CLAIM_REQUEST_GROUP_TIMESTAMP","outputs":[{"internalType":"bytes16","name":"","type":"bytes16"}],"stateMutability":"view","type":"function"},{"inputs":[],"name":"DEFAULT_CLAIM_REQUEST_IS_OPTIONAL","outputs":[{"internalType":"bool","name":"","type":"bool"}],"stateMutability":"view","type":"function"},{"inputs":[],"name":"DEFAULT_CLAIM_REQUEST_IS_SELECTABLE_BY_USER","outputs":[{"internalType":"bool","name":"","type":"bool"}],"stateMutability":"view","type":"function"},{"inputs":[],"name":"DEFAULT_CLAIM_REQUEST_TYPE","outputs":[{"internalType":"enum ClaimType","name":"","type":"uint8"}],"stateMutability":"view","type":"function"},{"inputs":[],"name":"DEFAULT_CLAIM_REQUEST_VALUE","outputs":[{"internalType":"uint256","name":"","type":"uint256"}],"stateMutability":"view","type":"function"},{"inputs":[{"internalType":"bytes16","name":"groupId","type":"bytes16"},{"internalType":"bytes16","name":"groupTimestamp","type":"bytes16"},{"internalType":"enum ClaimType","name":"claimType","type":"uint8"},{"internalType":"bytes","name":"extraData","type":"bytes"}],"name":"build","outputs":[{"components":[{"internalType":"enum ClaimType","name":"claimType","type":"uint8"},{"internalType":"bytes16","name":"groupId","type":"bytes16"},{"internalType":"bytes16","name":"groupTimestamp","type":"bytes16"},{"internalType":"uint256","name":"value","type":"uint256"},{"internalType":"bool","name":"isOptional","type":"bool"},{"internalType":"bool","name":"isSelectableByUser","type":"bool"},{"internalType":"bytes","name":"extraData","type":"bytes"}],"internalType":"struct ClaimRequest","name":"","type":"tuple"}],"stateMutability":"pure","type":"function"},{"inputs":[{"internalType":"bytes16","name":"groupId","type":"bytes16"},{"internalType":"bytes16","name":"groupTimestamp","type":"bytes16"},{"internalType":"uint256","name":"value","type":"uint256"},{"internalType":"bytes","name":"extraData","type":"bytes"}],"name":"build","outputs":[{"components":[{"internalType":"enum ClaimType","name":"claimType","type":"uint8"},{"internalType":"bytes16","name":"groupId","type":"bytes16"},{"internalType":"bytes16","name":"groupTimestamp","type":"bytes16"},{"internalType":"uint256","name":"value","type":"uint256"},{"internalType":"bool","name":"isOptional","type":"bool"},{"internalType":"bool","name":"isSelectableByUser","type":"bool"},{"internalType":"bytes","name":"extraData","type":"bytes"}],"internalType":"struct ClaimRequest","name":"","type":"tuple"}],"stateMutability":"pure","type":"function"},{"inputs":[{"internalType":"bytes16","name":"groupId","type":"bytes16"},{"internalType":"bytes16","name":"groupTimestamp","type":"bytes16"},{"internalType":"bool","name":"isOptional","type":"bool"},{"internalType":"bool","name":"isSelectableByUser","type":"bool"}],"name":"build","outputs":[{"components":[{"internalType":"enum ClaimType","name":"claimType","type":"uint8"},{"internalType":"bytes16","name":"groupId","type":"bytes16"},{"internalType":"bytes16","name":"groupTimestamp","type":"bytes16"},{"internalType":"uint256","name":"value","type":"uint256"},{"internalType":"bool","name":"isOptional","type":"bool"},{"internalType":"bool","name":"isSelectableByUser","type":"bool"},{"internalType":"bytes","name":"extraData","type":"bytes"}],"internalType":"struct ClaimRequest","name":"","type":"tuple"}],"stateMutability":"pure","type":"function"},{"inputs":[{"internalType":"bytes16","name":"groupId","type":"bytes16"},{"internalType":"uint256","name":"value","type":"uint256"},{"internalType":"enum ClaimType","name":"claimType","type":"uint8"},{"internalType":"bool","name":"isOptional","type":"bool"},{"internalType":"bool","name":"isSelectableByUser","type":"bool"}],"name":"build","outputs":[{"components":[{"internalType":"enum ClaimType","name":"claimType","type":"uint8"},{"internalType":"bytes16","name":"groupId","type":"bytes16"},{"internalType":"bytes16","name":"groupTimestamp","type":"bytes16"},{"internalType":"uint256","name":"value","type":"uint256"},{"internalType":"bool","name":"isOptional","type":"bool"},{"internalType":"bool","name":"isSelectableByUser","type":"bool"},{"internalType":"bytes","name":"extraData","type":"bytes"}],"internalType":"struct ClaimRequest","name":"","type":"tuple"}],"stateMutability":"pure","type":"function"},{"inputs":[{"internalType":"bytes16","name":"groupId","type":"bytes16"},{"internalType":"uint256","name":"value","type":"uint256"},{"internalType":"bool","name":"isOptional","type":"bool"},{"internalType":"bool","name":"isSelectableByUser","type":"bool"}],"name":"build","outputs":[{"components":[{"internalType":"enum ClaimType","name":"claimType","type":"uint8"},{"internalType":"bytes16","name":"groupId","type":"bytes16"},{"internalType":"bytes16","name":"groupTimestamp","type":"bytes16"},{"internalType":"uint256","name":"value","type":"uint256"},{"internalType":"bool","name":"isOptional","type":"bool"},{"internalType":"bool","name":"isSelectableByUser","type":"bool"},{"internalType":"bytes","name":"extraData","type":"bytes"}],"internalType":"struct ClaimRequest","name":"","type":"tuple"}],"stateMutability":"pure","type":"function"},{"inputs":[{"internalType":"bytes16","name":"groupId","type":"bytes16"},{"internalType":"bytes16","name":"groupTimestamp","type":"bytes16"},{"internalType":"enum ClaimType","name":"claimType","type":"uint8"},{"internalType":"bool","name":"isOptional","type":"bool"},{"internalType":"bool","name":"isSelectableByUser","type":"bool"}],"name":"build","outputs":[{"components":[{"internalType":"enum ClaimType","name":"claimType","type":"uint8"},{"internalType":"bytes16","name":"groupId","type":"bytes16"},{"internalType":"bytes16","name":"groupTimestamp","type":"bytes16"},{"internalType":"uint256","name":"value","type":"uint256"},{"internalType":"bool","name":"isOptional","type":"bool"},{"internalType":"bool","name":"isSelectableByUser","type":"bool"},{"internalType":"bytes","name":"extraData","type":"bytes"}],"internalType":"struct ClaimRequest","name":"","type":"tuple"}],"stateMutability":"pure","type":"function"},{"inputs":[{"internalType":"bytes16","name":"groupId","type":"bytes16"},{"internalType":"uint256","name":"value","type":"uint256"},{"internalType":"enum ClaimType","name":"claimType","type":"uint8"}],"name":"build","outputs":[{"components":[{"internalType":"enum ClaimType","name":"claimType","type":"uint8"},{"internalType":"bytes16","name":"groupId","type":"bytes16"},{"internalType":"bytes16","name":"groupTimestamp","type":"bytes16"},{"internalType":"uint256","name":"value","type":"uint256"},{"internalType":"bool","name":"isOptional","type":"bool"},{"internalType":"bool","name":"isSelectableByUser","type":"bool"},{"internalType":"bytes","name":"extraData","type":"bytes"}],"internalType":"struct ClaimRequest","name":"","type":"tuple"}],"stateMutability":"pure","type":"function"},{"inputs":[{"internalType":"bytes16","name":"groupId","type":"bytes16"},{"internalType":"bytes16","name":"groupTimestamp","type":"bytes16"},{"internalType":"uint256","name":"value","type":"uint256"}],"name":"build","outputs":[{"components":[{"internalType":"enum ClaimType","name":"claimType","type":"uint8"},{"internalType":"bytes16","name":"groupId","type":"bytes16"},{"internalType":"bytes16","name":"groupTimestamp","type":"bytes16"},{"internalType":"uint256","name":"value","type":"uint256"},{"internalType":"bool","name":"isOptional","type":"bool"},{"internalType":"bool","name":"isSelectableByUser","type":"bool"},{"internalType":"bytes","name":"extraData","type":"bytes"}],"internalType":"struct ClaimRequest","name":"","type":"tuple"}],"stateMutability":"pure","type":"function"},{"inputs":[{"internalType":"bytes16","name":"groupId","type":"bytes16"},{"internalType":"bytes16","name":"groupTimestamp","type":"bytes16"}],"name":"build","outputs":[{"components":[{"internalType":"enum ClaimType","name":"claimType","type":"uint8"},{"internalType":"bytes16","name":"groupId","type":"bytes16"},{"internalType":"bytes16","name":"groupTimestamp","type":"bytes16"},{"internalType":"uint256","name":"value","type":"uint256"},{"internalType":"bool","name":"isOptional","type":"bool"},{"internalType":"bool","name":"isSelectableByUser","type":"bool"},{"internalType":"bytes","name":"extraData","type":"bytes"}],"internalType":"struct ClaimRequest","name":"","type":"tuple"}],"stateMutability":"pure","type":"function"},{"inputs":[{"internalType":"bytes16","name":"groupId","type":"bytes16"},{"internalType":"bytes16","name":"groupTimestamp","type":"bytes16"},{"internalType":"uint256","name":"value","type":"uint256"},{"internalType":"enum ClaimType","name":"claimType","type":"uint8"},{"internalType":"bool","name":"isOptional","type":"bool"},{"internalType":"bool","name":"isSelectableByUser","type":"bool"}],"name":"build","outputs":[{"components":[{"internalType":"enum ClaimType","name":"claimType","type":"uint8"},{"internalType":"bytes16","name":"groupId","type":"bytes16"},{"internalType":"bytes16","name":"groupTimestamp","type":"bytes16"},{"internalType":"uint256","name":"value","type":"uint256"},{"internalType":"bool","name":"isOptional","type":"bool"},{"internalType":"bool","name":"isSelectableByUser","type":"bool"},{"internalType":"bytes","name":"extraData","type":"bytes"}],"internalType":"struct ClaimRequest","name":"","type":"tuple"}],"stateMutability":"pure","type":"function"},{"inputs":[{"internalType":"bytes16","name":"groupId","type":"bytes16"},{"internalType":"bytes16","name":"groupTimestamp","type":"bytes16"},{"internalType":"uint256","name":"value","type":"uint256"},{"internalType":"enum ClaimType","name":"claimType","type":"uint8"},{"internalType":"bytes","name":"extraData","type":"bytes"}],"name":"build","outputs":[{"components":[{"internalType":"enum ClaimType","name":"claimType","type":"uint8"},{"internalType":"bytes16","name":"groupId","type":"bytes16"},{"internalType":"bytes16","name":"groupTimestamp","type":"bytes16"},{"internalType":"uint256","name":"value","type":"uint256"},{"internalType":"bool","name":"isOptional","type":"bool"},{"internalType":"bool","name":"isSelectableByUser","type":"bool"},{"internalType":"bytes","name":"extraData","type":"bytes"}],"internalType":"struct ClaimRequest","name":"","type":"tuple"}],"stateMutability":"pure","type":"function"},{"inputs":[{"internalType":"bytes16","name":"groupId","type":"bytes16"},{"internalType":"enum ClaimType","name":"claimType","type":"uint8"}],"name":"build","outputs":[{"components":[{"internalType":"enum ClaimType","name":"claimType","type":"uint8"},{"internalType":"bytes16","name":"groupId","type":"bytes16"},{"internalType":"bytes16","name":"groupTimestamp","type":"bytes16"},{"internalType":"uint256","name":"value","type":"uint256"},{"internalType":"bool","name":"isOptional","type":"bool"},{"internalType":"bool","name":"isSelectableByUser","type":"bool"},{"internalType":"bytes","name":"extraData","type":"bytes"}],"internalType":"struct ClaimRequest","name":"","type":"tuple"}],"stateMutability":"pure","type":"function"},{"inputs":[{"internalType":"bytes16","name":"groupId","type":"bytes16"},{"internalType":"uint256","name":"value","type":"uint256"}],"name":"build","outputs":[{"components":[{"internalType":"enum ClaimType","name":"claimType","type":"uint8"},{"internalType":"bytes16","name":"groupId","type":"bytes16"},{"internalType":"bytes16","name":"groupTimestamp","type":"bytes16"},{"internalType":"uint256","name":"value","type":"uint256"},{"internalType":"bool","name":"isOptional","type":"bool"},{"internalType":"bool","name":"isSelectableByUser","type":"bool"},{"internalType":"bytes","name":"extraData","type":"bytes"}],"internalType":"struct ClaimRequest","name":"","type":"tuple"}],"stateMutability":"pure","type":"function"},{"inputs":[{"internalType":"bytes16","name":"groupId","type":"bytes16"},{"internalType":"enum ClaimType","name":"claimType","type":"uint8"},{"internalType":"bytes","name":"extraData","type":"bytes"}],"name":"build","outputs":[{"components":[{"internalType":"enum ClaimType","name":"claimType","type":"uint8"},{"internalType":"bytes16","name":"groupId","type":"bytes16"},{"internalType":"bytes16","name":"groupTimestamp","type":"bytes16"},{"internalType":"uint256","name":"value","type":"uint256"},{"internalType":"bool","name":"isOptional","type":"bool"},{"internalType":"bool","name":"isSelectableByUser","type":"bool"},{"internalType":"bytes","name":"extraData","type":"bytes"}],"internalType":"struct ClaimRequest","name":"","type":"tuple"}],"stateMutability":"pure","type":"function"},{"inputs":[{"internalType":"bytes16","name":"groupId","type":"bytes16"},{"internalType":"bytes","name":"extraData","type":"bytes"}],"name":"build","outputs":[{"components":[{"internalType":"enum ClaimType","name":"claimType","type":"uint8"},{"internalType":"bytes16","name":"groupId","type":"bytes16"},{"internalType":"bytes16","name":"groupTimestamp","type":"bytes16"},{"internalType":"uint256","name":"value","type":"uint256"},{"internalType":"bool","name":"isOptional","type":"bool"},{"internalType":"bool","name":"isSelectableByUser","type":"bool"},{"internalType":"bytes","name":"extraData","type":"bytes"}],"internalType":"struct ClaimRequest","name":"","type":"tuple"}],"stateMutability":"pure","type":"function"},{"inputs":[{"internalType":"bytes16","name":"groupId","type":"bytes16"},{"internalType":"enum ClaimType","name":"claimType","type":"uint8"},{"internalType":"bool","name":"isOptional","type":"bool"},{"internalType":"bool","name":"isSelectableByUser","type":"bool"}],"name":"build","outputs":[{"components":[{"internalType":"enum ClaimType","name":"claimType","type":"uint8"},{"internalType":"bytes16","name":"groupId","type":"bytes16"},{"internalType":"bytes16","name":"groupTimestamp","type":"bytes16"},{"internalType":"uint256","name":"value","type":"uint256"},{"internalType":"bool","name":"isOptional","type":"bool"},{"internalType":"bool","name":"isSelectableByUser","type":"bool"},{"internalType":"bytes","name":"extraData","type":"bytes"}],"internalType":"struct ClaimRequest","name":"","type":"tuple"}],"stateMutability":"pure","type":"function"},{"inputs":[{"internalType":"bytes16","name":"groupId","type":"bytes16"},{"internalType":"bytes16","name":"groupTimestamp","type":"bytes16"},{"internalType":"enum ClaimType","name":"claimType","type":"uint8"}],"name":"build","outputs":[{"components":[{"internalType":"enum ClaimType","name":"claimType","type":"uint8"},{"internalType":"bytes16","name":"groupId","type":"bytes16"},{"internalType":"bytes16","name":"groupTimestamp","type":"bytes16"},{"internalType":"uint256","name":"value","type":"uint256"},{"internalType":"bool","name":"isOptional","type":"bool"},{"internalType":"bool","name":"isSelectableByUser","type":"bool"},{"internalType":"bytes","name":"extraData","type":"bytes"}],"internalType":"struct ClaimRequest","name":"","type":"tuple"}],"stateMutability":"pure","type":"function"},{"inputs":[{"internalType":"bytes16","name":"groupId","type":"bytes16"},{"internalType":"bytes16","name":"groupTimestamp","type":"bytes16"},{"internalType":"uint256","name":"value","type":"uint256"},{"internalType":"enum ClaimType","name":"claimType","type":"uint8"}],"name":"build","outputs":[{"components":[{"internalType":"enum ClaimType","name":"claimType","type":"uint8"},{"internalType":"bytes16","name":"groupId","type":"bytes16"},{"internalType":"bytes16","name":"groupTimestamp","type":"bytes16"},{"internalType":"uint256","name":"value","type":"uint256"},{"internalType":"bool","name":"isOptional","type":"bool"},{"internalType":"bool","name":"isSelectableByUser","type":"bool"},{"internalType":"bytes","name":"extraData","type":"bytes"}],"internalType":"struct ClaimRequest","name":"","type":"tuple"}],"stateMutability":"pure","type":"function"},{"inputs":[{"internalType":"bytes16","name":"groupId","type":"bytes16"},{"internalType":"bytes16","name":"groupTimestamp","type":"bytes16"},{"internalType":"uint256","name":"value","type":"uint256"},{"internalType":"bool","name":"isOptional","type":"bool"},{"internalType":"bool","name":"isSelectableByUser","type":"bool"}],"name":"build","outputs":[{"components":[{"internalType":"enum ClaimType","name":"claimType","type":"uint8"},{"internalType":"bytes16","name":"groupId","type":"bytes16"},{"internalType":"bytes16","name":"groupTimestamp","type":"bytes16"},{"internalType":"uint256","name":"value","type":"uint256"},{"internalType":"bool","name":"isOptional","type":"bool"},{"internalType":"bool","name":"isSelectableByUser","type":"bool"},{"internalType":"bytes","name":"extraData","type":"bytes"}],"internalType":"struct ClaimRequest","name":"","type":"tuple"}],"stateMutability":"pure","type":"function"},{"inputs":[{"internalType":"bytes16","name":"groupId","type":"bytes16"},{"internalType":"uint256","name":"value","type":"uint256"},{"internalType":"enum ClaimType","name":"claimType","type":"uint8"},{"internalType":"bytes","name":"extraData","type":"bytes"}],"name":"build","outputs":[{"components":[{"internalType":"enum ClaimType","name":"claimType","type":"uint8"},{"internalType":"bytes16","name":"groupId","type":"bytes16"},{"internalType":"bytes16","name":"groupTimestamp","type":"bytes16"},{"internalType":"uint256","name":"value","type":"uint256"},{"internalType":"bool","name":"isOptional","type":"bool"},{"internalType":"bool","name":"isSelectableByUser","type":"bool"},{"internalType":"bytes","name":"extraData","type":"bytes"}],"internalType":"struct ClaimRequest","name":"","type":"tuple"}],"stateMutability":"pure","type":"function"},{"inputs":[{"internalType":"bytes16","name":"groupId","type":"bytes16"}],"name":"build","outputs":[{"components":[{"internalType":"enum ClaimType","name":"claimType","type":"uint8"},{"internalType":"bytes16","name":"groupId","type":"bytes16"},{"internalType":"bytes16","name":"groupTimestamp","type":"bytes16"},{"internalType":"uint256","name":"value","type":"uint256"},{"internalType":"bool","name":"isOptional","type":"bool"},{"internalType":"bool","name":"isSelectableByUser","type":"bool"},{"internalType":"bytes","name":"extraData","type":"bytes"}],"internalType":"struct ClaimRequest","name":"","type":"tuple"}],"stateMutability":"pure","type":"function"},{"inputs":[{"internalType":"bytes16","name":"groupId","type":"bytes16"},{"internalType":"bytes16","name":"groupTimestamp","type":"bytes16"},{"internalType":"uint256","name":"value","type":"uint256"},{"internalType":"enum ClaimType","name":"claimType","type":"uint8"},{"internalType":"bool","name":"isOptional","type":"bool"},{"internalType":"bool","name":"isSelectableByUser","type":"bool"},{"internalType":"bytes","name":"extraData","type":"bytes"}],"name":"build","outputs":[{"components":[{"internalType":"enum ClaimType","name":"claimType","type":"uint8"},{"internalType":"bytes16","name":"groupId","type":"bytes16"},{"internalType":"bytes16","name":"groupTimestamp","type":"bytes16"},{"internalType":"uint256","name":"value","type":"uint256"},{"internalType":"bool","name":"isOptional","type":"bool"},{"internalType":"bool","name":"isSelectableByUser","type":"bool"},{"internalType":"bytes","name":"extraData","type":"bytes"}],"internalType":"struct ClaimRequest","name":"","type":"tuple"}],"stateMutability":"pure","type":"function"},{"inputs":[{"internalType":"bytes16","name":"groupId","type":"bytes16"},{"internalType":"uint256","name":"value","type":"uint256"},{"internalType":"bytes","name":"extraData","type":"bytes"}],"name":"build","outputs":[{"components":[{"internalType":"enum ClaimType","name":"claimType","type":"uint8"},{"internalType":"bytes16","name":"groupId","type":"bytes16"},{"internalType":"bytes16","name":"groupTimestamp","type":"bytes16"},{"internalType":"uint256","name":"value","type":"uint256"},{"internalType":"bool","name":"isOptional","type":"bool"},{"internalType":"bool","name":"isSelectableByUser","type":"bool"},{"internalType":"bytes","name":"extraData","type":"bytes"}],"internalType":"struct ClaimRequest","name":"","type":"tuple"}],"stateMutability":"pure","type":"function"},{"inputs":[{"internalType":"bytes16","name":"groupId","type":"bytes16"},{"internalType":"bool","name":"isOptional","type":"bool"},{"internalType":"bool","name":"isSelectableByUser","type":"bool"}],"name":"build","outputs":[{"components":[{"internalType":"enum ClaimType","name":"claimType","type":"uint8"},{"internalType":"bytes16","name":"groupId","type":"bytes16"},{"internalType":"bytes16","name":"groupTimestamp","type":"bytes16"},{"internalType":"uint256","name":"value","type":"uint256"},{"internalType":"bool","name":"isOptional","type":"bool"},{"internalType":"bool","name":"isSelectableByUser","type":"bool"},{"internalType":"bytes","name":"extraData","type":"bytes"}],"internalType":"struct ClaimRequest","name":"","type":"tuple"}],"stateMutability":"pure","type":"function"},{"inputs":[{"internalType":"bytes16","name":"groupId","type":"bytes16"},{"internalType":"bytes16","name":"groupTimestamp","type":"bytes16"},{"internalType":"bytes","name":"extraData","type":"bytes"}],"name":"build","outputs":[{"components":[{"internalType":"enum ClaimType","name":"claimType","type":"uint8"},{"internalType":"bytes16","name":"groupId","type":"bytes16"},{"internalType":"bytes16","name":"groupTimestamp","type":"bytes16"},{"internalType":"uint256","name":"value","type":"uint256"},{"internalType":"bool","name":"isOptional","type":"bool"},{"internalType":"bool","name":"isSelectableByUser","type":"bool"},{"internalType":"bytes","name":"extraData","type":"bytes"}],"internalType":"struct ClaimRequest","name":"","type":"tuple"}],"stateMutability":"pure","type":"function"}],"devdoc":{"kind":"dev","methods":{},"version":1},"evm":{"bytecode":{"linkReferences":{},"object":"6080806040523461001657611109908161001c8239f35b600080fdfe60406080815260048036101561001457600080fd5b600091823560e01c80630d55ad2814610e38578063102f7b6014610de057806330c62a4a1461090757806335628e7114610d4c5780633880e36114610cac5780633a5dc55914610c195780633b0cb07314610b78578063409f789a14610b2b5780634d06bd8814610aa8578063644c52c814610a635780636658580a1461071e5780636b945f38146109fc578063749d6d85146109d85780637aadac0d1461096e57806380decbce1461092257806384a0e907146109075780638628695b146108ca57806397e653531461082c578063a820af1a146107dd578063b5a7fef51461073a578063bd240b861461071e578063c9062f3114610690578063d035c7ca146105fa578063d4e694f7146105c6578063d8b6eb2b14610531578063db9178d61461048b578063e379821c1461040a578063e3ec2c9914610346578063ec294078146102ad578063ee5decf2146102145763f744d6541461017557600080fd5b346102105760603660031901126102105761018e610ea2565b610196610ebe565b9260443567ffffffffffffffff811161020c5761020895916101ba91369101610f2b565b916101c3611093565b506101cc610ed5565b948286526001600160801b031980921660208701521683850152600160608501526080840152600160a084015260c08301525191829182610fce565b0390f35b8580fd5b8280fd5b5082346102aa5760603660031901126102aa5761022f610ea2565b9160243592831515809403610210576102089361024a611057565b90610253611093565b5061025c610f0b565b92858452610268610ed5565b9586526001600160801b0319166020860152651b185d195cdd60d21b84860152600160608601526080850152151560a084015260c08301525191829182610fce565b80fd5b5034610210576060366003190112610210576102c7610ea2565b9160443567ffffffffffffffff81116103425761020894916102eb91369101610f2b565b906102f4611093565b506102fd610ed5565b8181526001600160801b03199094166020850152651b185d195cdd60d21b8385015260243560608501526080840152600160a084015260c08301525191829182610fce565b8480fd5b508290346104065760e036600319011261040657610362610ea2565b9161036b610ebe565b9060643593600585101561040657610381611075565b9061038a611084565b9260c4359067ffffffffffffffff82116102aa5750610208976103af91369101610f2b565b936103b8611093565b506103cb6103c4610ed5565b97886110c7565b6001600160801b031991821660208801521684860152604435606086015215156080850152151560a084015260c08301525191829182610fce565b5080fd5b83823461040657602036600319011261040657906102089161042a610ea2565b91610433611093565b5061043c610f0b565b90808252610448610ed5565b938185526001600160801b0319166020850152651b185d195cdd60d21b83850152600160608501526080840152600160a084015260c08301525191829182610fce565b5034610210576080366003190112610210576104a5610ea2565b6044359260058410156103425760643567ffffffffffffffff811161020c5761020895916104d591369101610f2b565b916104de611093565b506104f16104ea610ed5565b95866110c7565b6001600160801b0319166020850152651b185d195cdd60d21b8385015260243560608501526080840152600160a084015260c08301525191829182610fce565b8382346104065760a0366003190112610406579061020891610551610ea2565b610559610ebe565b90610562611066565b61056a611075565b91610573611093565b5061057c610f0b565b93868552610588610ed5565b9687526001600160801b031991821660208801521684860152604435606086015215156080850152151560a084015260c08301525191829182610fce565b83823461040657816003193601126104065790610208916105e5610f0b565b91825251918291602083526020830190610f8e565b83823461040657608036600319011261040657610615610ea2565b9061061e610ebe565b606435926005841015610342579361020894610638611093565b50610641610f0b565b92828452610657610650610ed5565b96876110c7565b6001600160801b03199182166020870152168385015260443560608501526080840152600160a084015260c08301525191829182610fce565b838234610406576060366003190112610406576106ab610ea2565b906106b4610ebe565b6044359260058410156103425793610208946106ce611093565b506106d7610f0b565b928284526106e6610650610ed5565b6001600160801b031980921660208701521683850152600160608501526080840152600160a084015260c08301525191829182610fce565b8382346104065781600319360112610406576020905160018152f35b83823461040657608036600319011261040657610755610ea2565b906024359160058310156107d9579261020893610770611057565b610778611066565b91610781611093565b5061078a610f0b565b938452610798610650610ed5565b6001600160801b0319166020860152651b185d195cdd60d21b848601526001606086015215156080850152151560a084015260c08301525191829182610fce565b8380fd5b50346102105780600319360112610210576107f6610ea2565b9160243567ffffffffffffffff811161034257610208949161081a91369101610f2b565b90610823611093565b50610448610ed5565b503461021057606036600319011261021057610846610ea2565b6024359260058410156103425760443567ffffffffffffffff811161020c57610208959161087691369101610f2b565b9161087f611093565b5061088b6104ea610ed5565b6001600160801b0319166020850152651b185d195cdd60d21b83850152600160608501526080840152600160a084015260c08301525191829182610fce565b83823461040657806003193601126104065790610208916108e9610ea2565b916108f2611093565b506108fb610f0b565b908082526102fd610ed5565b83823461040657816003193601126104065751908152602090f35b83823461040657806003193601126104065761093c610ea2565b906024359160058310156107d95761020893610956611093565b5061095f610f0b565b9181835261088b6104ea610ed5565b508290346104065760a03660031901126104065761098a610ea2565b91610993610ebe565b906064359360058510156104065760843567ffffffffffffffff811161021057610208966109c391369101610f2b565b926109cc611093565b50610657610650610ed5565b83823461040657816003193601126104065751651b185d195cdd60d21b8152602090f35b5082346102aa5760c03660031901126102aa57610a17610ea2565b91610a20610ebe565b916064359260058410156104065761020894610a3a611075565b90610a43611084565b92610a4c611093565b50610a55610f0b565b9485526103cb6103c4610ed5565b8382346104065780600319360112610406579061020891610a82610ea2565b610a8a610ebe565b92610a93611093565b50610a9c610f0b565b918183526101cc610ed5565b838234610406576060366003190112610406579061020891610ac8610ea2565b610ad0610ebe565b92610ad9611093565b50610ae2610f0b565b91818352610aee610ed5565b8281526001600160801b0319918216602082015294168385015260443560608501526080840152600160a084015260c08301525191829182610fce565b83823461040657606036600319011261040657610b46610ea2565b906044359160058310156107d95761020893610b60611093565b50610b69610f0b565b918183526104f16104ea610ed5565b5082346102aa5760a03660031901126102aa57610b93610ea2565b91610b9c610ebe565b916044359260058410156104065761020894610bb6611066565b90610bbf611075565b92610bc8611093565b50610bd1610f0b565b948552610bdf6103c4610ed5565b6001600160801b0319918216602088015216848601526001606086015215156080850152151560a084015260c08301525191829182610fce565b838234610406576080366003190112610406579061020891610c39610ea2565b610c41611057565b610c49611066565b90610c52611093565b50610c5b610f0b565b92858452610c67610ed5565b9586526001600160801b0319166020860152651b185d195cdd60d21b84860152602435606086015215156080850152151560a084015260c08301525191829182610fce565b8382346104065760a036600319011261040657610cc7610ea2565b906044359160058310156107d9579261020893610ce2611066565b610cea611075565b91610cf3611093565b50610cfc610f0b565b938452610d0a610650610ed5565b6001600160801b0319166020860152651b185d195cdd60d21b84860152602435606086015215156080850152151560a084015260c08301525191829182610fce565b838234610406576080366003190112610406579061020891610d6c610ea2565b610d74610ebe565b90610d7d611057565b610d85611066565b91610d8e611093565b50610d97610f0b565b93868552610da3610ed5565b9687526001600160801b0319918216602088015216848601526001606086015215156080850152151560a084015260c08301525191829182610fce565b503461021057608036600319011261021057610dfa610ea2565b610e02610ebe565b9260643567ffffffffffffffff811161020c576102089591610e2691369101610f2b565b91610e2f611093565b50610aee610ed5565b5082903461040657608036600319011261040657610e54610ea2565b91610e5d610ebe565b906044359360058510156104065760643567ffffffffffffffff81116102105761020896610e8d91369101610f2b565b92610e96611093565b506106e6610650610ed5565b600435906001600160801b031982168203610eb957565b600080fd5b602435906001600160801b031982168203610eb957565b6040519060e0820182811067ffffffffffffffff821117610ef557604052565b634e487b7160e01b600052604160045260246000fd5b604051906020820182811067ffffffffffffffff821117610ef557604052565b81601f82011215610eb95780359067ffffffffffffffff92838311610ef55760405193601f8401601f19908116603f0116850190811185821017610ef55760405282845260208383010111610eb957816000926020809301838601378301015290565b919082519283825260005b848110610fba575050826000602080949584010152601f8019910116010190565b602081830181015184830182015201610f99565b6020815281519160058310156110415760c06101009161103e9460208501526001600160801b03198060208301511660408601526040820151166060850152606081015160808501526080810151151560a085015260a081015115158285015201519160e0808201520190610f8e565b90565b634e487b7160e01b600052602160045260246000fd5b604435908115158203610eb957565b606435908115158203610eb957565b608435908115158203610eb957565b60a435908115158203610eb957565b61109b610ed5565b90600080835280602084015280604084015280606084015280608084015260a0830152606060c0830152565b6005821015611041575256fea2646970667358221220a9418574aa794e01dfff490a230a91fb945d094bb98eff07fd82817256c7ab2864736f6c63430008130033","opcodes":"PUSH1 0x80 DUP1 PUSH1 0x40 MSTORE CALLVALUE PUSH2 0x16 JUMPI PUSH2 0x1109 SWAP1 DUP2 PUSH2 0x1C DUP3 CODECOPY RETURN JUMPDEST PUSH1 0x0 DUP1 REVERT INVALID PUSH1 0x40 PUSH1 0x80 DUP2 MSTORE PUSH1 0x4 DUP1 CALLDATASIZE LT ISZERO PUSH2 0x14 JUMPI PUSH1 0x0 DUP1 REVERT JUMPDEST PUSH1 0x0 SWAP2 DUP3 CALLDATALOAD PUSH1 0xE0 SHR DUP1 PUSH4 0xD55AD28 EQ PUSH2 0xE38 JUMPI DUP1 PUSH4 0x102F7B60 EQ PUSH2 0xDE0 JUMPI DUP1 PUSH4 0x30C62A4A EQ PUSH2 0x907 JUMPI DUP1 PUSH4 0x35628E71 EQ PUSH2 0xD4C JUMPI DUP1 PUSH4 0x3880E361 EQ PUSH2 0xCAC JUMPI DUP1 PUSH4 0x3A5DC559 EQ PUSH2 0xC19 JUMPI DUP1 PUSH4 0x3B0CB073 EQ PUSH2 0xB78 JUMPI DUP1 PUSH4 0x409F789A EQ PUSH2 0xB2B JUMPI DUP1 PUSH4 0x4D06BD88 EQ PUSH2 0xAA8 JUMPI DUP1 PUSH4 0x644C52C8 EQ PUSH2 0xA63 JUMPI DUP1 PUSH4 0x6658580A EQ PUSH2 0x71E JUMPI DUP1 PUSH4 0x6B945F38 EQ PUSH2 0x9FC JUMPI DUP1 PUSH4 0x749D6D85 EQ PUSH2 0x9D8 JUMPI DUP1 PUSH4 0x7AADAC0D EQ PUSH2 0x96E JUMPI DUP1 PUSH4 0x80DECBCE EQ PUSH2 0x922 JUMPI DUP1 PUSH4 0x84A0E907 EQ PUSH2 0x907 JUMPI DUP1 PUSH4 0x8628695B EQ PUSH2 0x8CA JUMPI DUP1 PUSH4 0x97E65353 EQ PUSH2 0x82C JUMPI DUP1 PUSH4 0xA820AF1A EQ PUSH2 0x7DD JUMPI DUP1 PUSH4 0xB5A7FEF5 EQ PUSH2 0x73A JUMPI DUP1 PUSH4 0xBD240B86 EQ PUSH2 0x71E JUMPI DUP1 PUSH4 0xC9062F31 EQ PUSH2 0x690 JUMPI DUP1 PUSH4 0xD035C7CA EQ PUSH2 0x5FA JUMPI DUP1 PUSH4 0xD4E694F7 EQ PUSH2 0x5C6 JUMPI DUP1 PUSH4 0xD8B6EB2B EQ PUSH2 0x531 JUMPI DUP1 PUSH4 0xDB9178D6 EQ PUSH2 0x48B JUMPI DUP1 PUSH4 0xE379821C EQ PUSH2 0x40A JUMPI DUP1 PUSH4 0xE3EC2C99 EQ PUSH2 0x346 JUMPI DUP1 PUSH4 0xEC294078 EQ PUSH2 0x2AD JUMPI DUP1 PUSH4 0xEE5DECF2 EQ PUSH2 0x214 JUMPI PUSH4 0xF744D654 EQ PUSH2 0x175 JUMPI PUSH1 0x0 DUP1 REVERT JUMPDEST CALLVALUE PUSH2 0x210 JUMPI PUSH1 0x60 CALLDATASIZE PUSH1 0x3 NOT ADD SLT PUSH2 0x210 JUMPI PUSH2 0x18E PUSH2 0xEA2 JUMP JUMPDEST PUSH2 0x196 PUSH2 0xEBE JUMP JUMPDEST SWAP3 PUSH1 0x44 CALLDATALOAD PUSH8 0xFFFFFFFFFFFFFFFF DUP2 GT PUSH2 0x20C JUMPI PUSH2 0x208 SWAP6 SWAP2 PUSH2 0x1BA SWAP2 CALLDATASIZE SWAP2 ADD PUSH2 0xF2B JUMP JUMPDEST SWAP2 PUSH2 0x1C3 PUSH2 0x1093 JUMP JUMPDEST POP PUSH2 0x1CC PUSH2 0xED5 JUMP JUMPDEST SWAP5 DUP3 DUP7 MSTORE PUSH1 0x1 PUSH1 0x1 PUSH1 0x80 SHL SUB NOT DUP1 SWAP3 AND PUSH1 0x20 DUP8 ADD MSTORE AND DUP4 DUP6 ADD MSTORE PUSH1 0x1 PUSH1 0x60 DUP6 ADD MSTORE PUSH1 0x80 DUP5 ADD MSTORE PUSH1 0x1 PUSH1 0xA0 DUP5 ADD MSTORE PUSH1 0xC0 DUP4 ADD MSTORE MLOAD SWAP2 DUP3 SWAP2 DUP3 PUSH2 0xFCE JUMP JUMPDEST SUB SWAP1 RETURN JUMPDEST DUP6 DUP1 REVERT JUMPDEST DUP3 DUP1 REVERT JUMPDEST POP DUP3 CALLVALUE PUSH2 0x2AA JUMPI PUSH1 0x60 CALLDATASIZE PUSH1 0x3 NOT ADD SLT PUSH2 0x2AA JUMPI PUSH2 0x22F PUSH2 0xEA2 JUMP JUMPDEST SWAP2 PUSH1 0x24 CALLDATALOAD SWAP3 DUP4 ISZERO ISZERO DUP1 SWAP5 SUB PUSH2 0x210 JUMPI PUSH2 0x208 SWAP4 PUSH2 0x24A PUSH2 0x1057 JUMP JUMPDEST SWAP1 PUSH2 0x253 PUSH2 0x1093 JUMP JUMPDEST POP PUSH2 0x25C PUSH2 0xF0B JUMP JUMPDEST SWAP3 DUP6 DUP5 MSTORE PUSH2 0x268 PUSH2 0xED5 JUMP JUMPDEST SWAP6 DUP7 MSTORE PUSH1 0x1 PUSH1 0x1 PUSH1 0x80 SHL SUB NOT AND PUSH1 0x20 DUP7 ADD MSTORE PUSH6 0x1B185D195CDD PUSH1 0xD2 SHL DUP5 DUP7 ADD MSTORE PUSH1 0x1 PUSH1 0x60 DUP7 ADD MSTORE PUSH1 0x80 DUP6 ADD MSTORE ISZERO ISZERO PUSH1 0xA0 DUP5 ADD MSTORE PUSH1 0xC0 DUP4 ADD MSTORE MLOAD SWAP2 DUP3 SWAP2 DUP3 PUSH2 0xFCE JUMP JUMPDEST DUP1 REVERT JUMPDEST POP CALLVALUE PUSH2 0x210 JUMPI PUSH1 0x60 CALLDATASIZE PUSH1 0x3 NOT ADD SLT PUSH2 0x210 JUMPI PUSH2 0x2C7 PUSH2 0xEA2 JUMP JUMPDEST SWAP2 PUSH1 0x44 CALLDATALOAD PUSH8 0xFFFFFFFFFFFFFFFF DUP2 GT PUSH2 0x342 JUMPI PUSH2 0x208 SWAP5 SWAP2 PUSH2 0x2EB SWAP2 CALLDATASIZE SWAP2 ADD PUSH2 0xF2B JUMP JUMPDEST SWAP1 PUSH2 0x2F4 PUSH2 0x1093 JUMP JUMPDEST POP PUSH2 0x2FD PUSH2 0xED5 JUMP JUMPDEST DUP2 DUP2 MSTORE PUSH1 0x1 PUSH1 0x1 PUSH1 0x80 SHL SUB NOT SWAP1 SWAP5 AND PUSH1 0x20 DUP6 ADD MSTORE PUSH6 0x1B185D195CDD PUSH1 0xD2 SHL DUP4 DUP6 ADD MSTORE PUSH1 0x24 CALLDATALOAD PUSH1 0x60 DUP6 ADD MSTORE PUSH1 0x80 DUP5 ADD MSTORE PUSH1 0x1 PUSH1 0xA0 DUP5 ADD MSTORE PUSH1 0xC0 DUP4 ADD MSTORE MLOAD SWAP2 DUP3 SWAP2 DUP3 PUSH2 0xFCE JUMP JUMPDEST DUP5 DUP1 REVERT JUMPDEST POP DUP3 SWAP1 CALLVALUE PUSH2 0x406 JUMPI PUSH1 0xE0 CALLDATASIZE PUSH1 0x3 NOT ADD SLT PUSH2 0x406 JUMPI PUSH2 0x362 PUSH2 0xEA2 JUMP JUMPDEST SWAP2 PUSH2 0x36B PUSH2 0xEBE JUMP JUMPDEST SWAP1 PUSH1 0x64 CALLDATALOAD SWAP4 PUSH1 0x5 DUP6 LT ISZERO PUSH2 0x406 JUMPI PUSH2 0x381 PUSH2 0x1075 JUMP JUMPDEST SWAP1 PUSH2 0x38A PUSH2 0x1084 JUMP JUMPDEST SWAP3 PUSH1 0xC4 CALLDATALOAD SWAP1 PUSH8 0xFFFFFFFFFFFFFFFF DUP3 GT PUSH2 0x2AA JUMPI POP PUSH2 0x208 SWAP8 PUSH2 0x3AF SWAP2 CALLDATASIZE SWAP2 ADD PUSH2 0xF2B JUMP JUMPDEST SWAP4 PUSH2 0x3B8 PUSH2 0x1093 JUMP JUMPDEST POP PUSH2 0x3CB PUSH2 0x3C4 PUSH2 0xED5 JUMP JUMPDEST SWAP8 DUP9 PUSH2 0x10C7 JUMP JUMPDEST PUSH1 0x1 PUSH1 0x1 PUSH1 0x80 SHL SUB NOT SWAP2 DUP3 AND PUSH1 0x20 DUP9 ADD MSTORE AND DUP5 DUP7 ADD MSTORE PUSH1 0x44 CALLDATALOAD PUSH1 0x60 DUP7 ADD MSTORE ISZERO ISZERO PUSH1 0x80 DUP6 ADD MSTORE ISZERO ISZERO PUSH1 0xA0 DUP5 ADD MSTORE PUSH1 0xC0 DUP4 ADD MSTORE MLOAD SWAP2 DUP3 SWAP2 DUP3 PUSH2 0xFCE JUMP JUMPDEST POP DUP1 REVERT JUMPDEST DUP4 DUP3 CALLVALUE PUSH2 0x406 JUMPI PUSH1 0x20 CALLDATASIZE PUSH1 0x3 NOT ADD SLT PUSH2 0x406 JUMPI SWAP1 PUSH2 0x208 SWAP2 PUSH2 0x42A PUSH2 0xEA2 JUMP JUMPDEST SWAP2 PUSH2 0x433 PUSH2 0x1093 JUMP JUMPDEST POP PUSH2 0x43C PUSH2 0xF0B JUMP JUMPDEST SWAP1 DUP1 DUP3 MSTORE PUSH2 0x448 PUSH2 0xED5 JUMP JUMPDEST SWAP4 DUP2 DUP6 MSTORE PUSH1 0x1 PUSH1 0x1 PUSH1 0x80 SHL SUB NOT AND PUSH1 0x20 DUP6 ADD MSTORE PUSH6 0x1B185D195CDD PUSH1 0xD2 SHL DUP4 DUP6 ADD MSTORE PUSH1 0x1 PUSH1 0x60 DUP6 ADD MSTORE PUSH1 0x80 DUP5 ADD MSTORE PUSH1 0x1 PUSH1 0xA0 DUP5 ADD MSTORE PUSH1 0xC0 DUP4 ADD MSTORE MLOAD SWAP2 DUP3 SWAP2 DUP3 PUSH2 0xFCE JUMP JUMPDEST POP CALLVALUE PUSH2 0x210 JUMPI PUSH1 0x80 CALLDATASIZE PUSH1 0x3 NOT ADD SLT PUSH2 0x210 JUMPI PUSH2 0x4A5 PUSH2 0xEA2 JUMP JUMPDEST PUSH1 0x44 CALLDATALOAD SWAP3 PUSH1 0x5 DUP5 LT ISZERO PUSH2 0x342 JUMPI PUSH1 0x64 CALLDATALOAD PUSH8 0xFFFFFFFFFFFFFFFF DUP2 GT PUSH2 0x20C JUMPI PUSH2 0x208 SWAP6 SWAP2 PUSH2 0x4D5 SWAP2 CALLDATASIZE SWAP2 ADD PUSH2 0xF2B JUMP JUMPDEST SWAP2 PUSH2 0x4DE PUSH2 0x1093 JUMP JUMPDEST POP PUSH2 0x4F1 PUSH2 0x4EA PUSH2 0xED5 JUMP JUMPDEST SWAP6 DUP7 PUSH2 0x10C7 JUMP JUMPDEST PUSH1 0x1 PUSH1 0x1 PUSH1 0x80 SHL SUB NOT AND PUSH1 0x20 DUP6 ADD MSTORE PUSH6 0x1B185D195CDD PUSH1 0xD2 SHL DUP4 DUP6 ADD MSTORE PUSH1 0x24 CALLDATALOAD PUSH1 0x60 DUP6 ADD MSTORE PUSH1 0x80 DUP5 ADD MSTORE PUSH1 0x1 PUSH1 0xA0 DUP5 ADD MSTORE PUSH1 0xC0 DUP4 ADD MSTORE MLOAD SWAP2 DUP3 SWAP2 DUP3 PUSH2 0xFCE JUMP JUMPDEST DUP4 DUP3 CALLVALUE PUSH2 0x406 JUMPI PUSH1 0xA0 CALLDATASIZE PUSH1 0x3 NOT ADD SLT PUSH2 0x406 JUMPI SWAP1 PUSH2 0x208 SWAP2 PUSH2 0x551 PUSH2 0xEA2 JUMP JUMPDEST PUSH2 0x559 PUSH2 0xEBE JUMP JUMPDEST SWAP1 PUSH2 0x562 PUSH2 0x1066 JUMP JUMPDEST PUSH2 0x56A PUSH2 0x1075 JUMP JUMPDEST SWAP2 PUSH2 0x573 PUSH2 0x1093 JUMP JUMPDEST POP PUSH2 0x57C PUSH2 0xF0B JUMP JUMPDEST SWAP4 DUP7 DUP6 MSTORE PUSH2 0x588 PUSH2 0xED5 JUMP JUMPDEST SWAP7 DUP8 MSTORE PUSH1 0x1 PUSH1 0x1 PUSH1 0x80 SHL SUB NOT SWAP2 DUP3 AND PUSH1 0x20 DUP9 ADD MSTORE AND DUP5 DUP7 ADD MSTORE PUSH1 0x44 CALLDATALOAD PUSH1 0x60 DUP7 ADD MSTORE ISZERO ISZERO PUSH1 0x80 DUP6 ADD MSTORE ISZERO ISZERO PUSH1 0xA0 DUP5 ADD MSTORE PUSH1 0xC0 DUP4 ADD MSTORE MLOAD SWAP2 DUP3 SWAP2 DUP3 PUSH2 0xFCE JUMP JUMPDEST DUP4 DUP3 CALLVALUE PUSH2 0x406 JUMPI DUP2 PUSH1 0x3 NOT CALLDATASIZE ADD SLT PUSH2 0x406 JUMPI SWAP1 PUSH2 0x208 SWAP2 PUSH2 0x5E5 PUSH2 0xF0B JUMP JUMPDEST SWAP2 DUP3 MSTORE MLOAD SWAP2 DUP3 SWAP2 PUSH1 0x20 DUP4 MSTORE PUSH1 0x20 DUP4 ADD SWAP1 PUSH2 0xF8E JUMP JUMPDEST DUP4 DUP3 CALLVALUE PUSH2 0x406 JUMPI PUSH1 0x80 CALLDATASIZE PUSH1 0x3 NOT ADD SLT PUSH2 0x406 JUMPI PUSH2 0x615 PUSH2 0xEA2 JUMP JUMPDEST SWAP1 PUSH2 0x61E PUSH2 0xEBE JUMP JUMPDEST PUSH1 0x64 CALLDATALOAD SWAP3 PUSH1 0x5 DUP5 LT ISZERO PUSH2 0x342 JUMPI SWAP4 PUSH2 0x208 SWAP5 PUSH2 0x638 PUSH2 0x1093 JUMP JUMPDEST POP PUSH2 0x641 PUSH2 0xF0B JUMP JUMPDEST SWAP3 DUP3 DUP5 MSTORE PUSH2 0x657 PUSH2 0x650 PUSH2 0xED5 JUMP JUMPDEST SWAP7 DUP8 PUSH2 0x10C7 JUMP JUMPDEST PUSH1 0x1 PUSH1 0x1 PUSH1 0x80 SHL SUB NOT SWAP2 DUP3 AND PUSH1 0x20 DUP8 ADD MSTORE AND DUP4 DUP6 ADD MSTORE PUSH1 0x44 CALLDATALOAD PUSH1 0x60 DUP6 ADD MSTORE PUSH1 0x80 DUP5 ADD MSTORE PUSH1 0x1 PUSH1 0xA0 DUP5 ADD MSTORE PUSH1 0xC0 DUP4 ADD MSTORE MLOAD SWAP2 DUP3 SWAP2 DUP3 PUSH2 0xFCE JUMP JUMPDEST DUP4 DUP3 CALLVALUE PUSH2 0x406 JUMPI PUSH1 0x60 CALLDATASIZE PUSH1 0x3 NOT ADD SLT PUSH2 0x406 JUMPI PUSH2 0x6AB PUSH2 0xEA2 JUMP JUMPDEST SWAP1 PUSH2 0x6B4 PUSH2 0xEBE JUMP JUMPDEST PUSH1 0x44 CALLDATALOAD SWAP3 PUSH1 0x5 DUP5 LT ISZERO PUSH2 0x342 JUMPI SWAP4 PUSH2 0x208 SWAP5 PUSH2 0x6CE PUSH2 0x1093 JUMP JUMPDEST POP PUSH2 0x6D7 PUSH2 0xF0B JUMP JUMPDEST SWAP3 DUP3 DUP5 MSTORE PUSH2 0x6E6 PUSH2 0x650 PUSH2 0xED5 JUMP JUMPDEST PUSH1 0x1 PUSH1 0x1 PUSH1 0x80 SHL SUB NOT DUP1 SWAP3 AND PUSH1 0x20 DUP8 ADD MSTORE AND DUP4 DUP6 ADD MSTORE PUSH1 0x1 PUSH1 0x60 DUP6 ADD MSTORE PUSH1 0x80 DUP5 ADD MSTORE PUSH1 0x1 PUSH1 0xA0 DUP5 ADD MSTORE PUSH1 0xC0 DUP4 ADD MSTORE MLOAD SWAP2 DUP3 SWAP2 DUP3 PUSH2 0xFCE JUMP JUMPDEST DUP4 DUP3 CALLVALUE PUSH2 0x406 JUMPI DUP2 PUSH1 0x3 NOT CALLDATASIZE ADD SLT PUSH2 0x406 JUMPI PUSH1 0x20 SWAP1 MLOAD PUSH1 0x1 DUP2 MSTORE RETURN JUMPDEST DUP4 DUP3 CALLVALUE PUSH2 0x406 JUMPI PUSH1 0x80 CALLDATASIZE PUSH1 0x3 NOT ADD SLT PUSH2 0x406 JUMPI PUSH2 0x755 PUSH2 0xEA2 JUMP JUMPDEST SWAP1 PUSH1 0x24 CALLDATALOAD SWAP2 PUSH1 0x5 DUP4 LT ISZERO PUSH2 0x7D9 JUMPI SWAP3 PUSH2 0x208 SWAP4 PUSH2 0x770 PUSH2 0x1057 JUMP JUMPDEST PUSH2 0x778 PUSH2 0x1066 JUMP JUMPDEST SWAP2 PUSH2 0x781 PUSH2 0x1093 JUMP JUMPDEST POP PUSH2 0x78A PUSH2 0xF0B JUMP JUMPDEST SWAP4 DUP5 MSTORE PUSH2 0x798 PUSH2 0x650 PUSH2 0xED5 JUMP JUMPDEST PUSH1 0x1 PUSH1 0x1 PUSH1 0x80 SHL SUB NOT AND PUSH1 0x20 DUP7 ADD MSTORE PUSH6 0x1B185D195CDD PUSH1 0xD2 SHL DUP5 DUP7 ADD MSTORE PUSH1 0x1 PUSH1 0x60 DUP7 ADD MSTORE ISZERO ISZERO PUSH1 0x80 DUP6 ADD MSTORE ISZERO ISZERO PUSH1 0xA0 DUP5 ADD MSTORE PUSH1 0xC0 DUP4 ADD MSTORE MLOAD SWAP2 DUP3 SWAP2 DUP3 PUSH2 0xFCE JUMP JUMPDEST DUP4 DUP1 REVERT JUMPDEST POP CALLVALUE PUSH2 0x210 JUMPI DUP1 PUSH1 0x3 NOT CALLDATASIZE ADD SLT PUSH2 0x210 JUMPI PUSH2 0x7F6 PUSH2 0xEA2 JUMP JUMPDEST SWAP2 PUSH1 0x24 CALLDATALOAD PUSH8 0xFFFFFFFFFFFFFFFF DUP2 GT PUSH2 0x342 JUMPI PUSH2 0x208 SWAP5 SWAP2 PUSH2 0x81A SWAP2 CALLDATASIZE SWAP2 ADD PUSH2 0xF2B JUMP JUMPDEST SWAP1 PUSH2 0x823 PUSH2 0x1093 JUMP JUMPDEST POP PUSH2 0x448 PUSH2 0xED5 JUMP JUMPDEST POP CALLVALUE PUSH2 0x210 JUMPI PUSH1 0x60 CALLDATASIZE PUSH1 0x3 NOT ADD SLT PUSH2 0x210 JUMPI PUSH2 0x846 PUSH2 0xEA2 JUMP JUMPDEST PUSH1 0x24 CALLDATALOAD SWAP3 PUSH1 0x5 DUP5 LT ISZERO PUSH2 0x342 JUMPI PUSH1 0x44 CALLDATALOAD PUSH8 0xFFFFFFFFFFFFFFFF DUP2 GT PUSH2 0x20C JUMPI PUSH2 0x208 SWAP6 SWAP2 PUSH2 0x876 SWAP2 CALLDATASIZE SWAP2 ADD PUSH2 0xF2B JUMP JUMPDEST SWAP2 PUSH2 0x87F PUSH2 0x1093 JUMP JUMPDEST POP PUSH2 0x88B PUSH2 0x4EA PUSH2 0xED5 JUMP JUMPDEST PUSH1 0x1 PUSH1 0x1 PUSH1 0x80 SHL SUB NOT AND PUSH1 0x20 DUP6 ADD MSTORE PUSH6 0x1B185D195CDD PUSH1 0xD2 SHL DUP4 DUP6 ADD MSTORE PUSH1 0x1 PUSH1 0x60 DUP6 ADD MSTORE PUSH1 0x80 DUP5 ADD MSTORE PUSH1 0x1 PUSH1 0xA0 DUP5 ADD MSTORE PUSH1 0xC0 DUP4 ADD MSTORE MLOAD SWAP2 DUP3 SWAP2 DUP3 PUSH2 0xFCE JUMP JUMPDEST DUP4 DUP3 CALLVALUE PUSH2 0x406 JUMPI DUP1 PUSH1 0x3 NOT CALLDATASIZE ADD SLT PUSH2 0x406 JUMPI SWAP1 PUSH2 0x208 SWAP2 PUSH2 0x8E9 PUSH2 0xEA2 JUMP JUMPDEST SWAP2 PUSH2 0x8F2 PUSH2 0x1093 JUMP JUMPDEST POP PUSH2 0x8FB PUSH2 0xF0B JUMP JUMPDEST SWAP1 DUP1 DUP3 MSTORE PUSH2 0x2FD PUSH2 0xED5 JUMP JUMPDEST DUP4 DUP3 CALLVALUE PUSH2 0x406 JUMPI DUP2 PUSH1 0x3 NOT CALLDATASIZE ADD SLT PUSH2 0x406 JUMPI MLOAD SWAP1 DUP2 MSTORE PUSH1 0x20 SWAP1 RETURN JUMPDEST DUP4 DUP3 CALLVALUE PUSH2 0x406 JUMPI DUP1 PUSH1 0x3 NOT CALLDATASIZE ADD SLT PUSH2 0x406 JUMPI PUSH2 0x93C PUSH2 0xEA2 JUMP JUMPDEST SWAP1 PUSH1 0x24 CALLDATALOAD SWAP2 PUSH1 0x5 DUP4 LT ISZERO PUSH2 0x7D9 JUMPI PUSH2 0x208 SWAP4 PUSH2 0x956 PUSH2 0x1093 JUMP JUMPDEST POP PUSH2 0x95F PUSH2 0xF0B JUMP JUMPDEST SWAP2 DUP2 DUP4 MSTORE PUSH2 0x88B PUSH2 0x4EA PUSH2 0xED5 JUMP JUMPDEST POP DUP3 SWAP1 CALLVALUE PUSH2 0x406 JUMPI PUSH1 0xA0 CALLDATASIZE PUSH1 0x3 NOT ADD SLT PUSH2 0x406 JUMPI PUSH2 0x98A PUSH2 0xEA2 JUMP JUMPDEST SWAP2 PUSH2 0x993 PUSH2 0xEBE JUMP JUMPDEST SWAP1 PUSH1 0x64 CALLDATALOAD SWAP4 PUSH1 0x5 DUP6 LT ISZERO PUSH2 0x406 JUMPI PUSH1 0x84 CALLDATALOAD PUSH8 0xFFFFFFFFFFFFFFFF DUP2 GT PUSH2 0x210 JUMPI PUSH2 0x208 SWAP7 PUSH2 0x9C3 SWAP2 CALLDATASIZE SWAP2 ADD PUSH2 0xF2B JUMP JUMPDEST SWAP3 PUSH2 0x9CC PUSH2 0x1093 JUMP JUMPDEST POP PUSH2 0x657 PUSH2 0x650 PUSH2 0xED5 JUMP JUMPDEST DUP4 DUP3 CALLVALUE PUSH2 0x406 JUMPI DUP2 PUSH1 0x3 NOT CALLDATASIZE ADD SLT PUSH2 0x406 JUMPI MLOAD PUSH6 0x1B185D195CDD PUSH1 0xD2 SHL DUP2 MSTORE PUSH1 0x20 SWAP1 RETURN JUMPDEST POP DUP3 CALLVALUE PUSH2 0x2AA JUMPI PUSH1 0xC0 CALLDATASIZE PUSH1 0x3 NOT ADD SLT PUSH2 0x2AA JUMPI PUSH2 0xA17 PUSH2 0xEA2 JUMP JUMPDEST SWAP2 PUSH2 0xA20 PUSH2 0xEBE JUMP JUMPDEST SWAP2 PUSH1 0x64 CALLDATALOAD SWAP3 PUSH1 0x5 DUP5 LT ISZERO PUSH2 0x406 JUMPI PUSH2 0x208 SWAP5 PUSH2 0xA3A PUSH2 0x1075 JUMP JUMPDEST SWAP1 PUSH2 0xA43 PUSH2 0x1084 JUMP JUMPDEST SWAP3 PUSH2 0xA4C PUSH2 0x1093 JUMP JUMPDEST POP PUSH2 0xA55 PUSH2 0xF0B JUMP JUMPDEST SWAP5 DUP6 MSTORE PUSH2 0x3CB PUSH2 0x3C4 PUSH2 0xED5 JUMP JUMPDEST DUP4 DUP3 CALLVALUE PUSH2 0x406 JUMPI DUP1 PUSH1 0x3 NOT CALLDATASIZE ADD SLT PUSH2 0x406 JUMPI SWAP1 PUSH2 0x208 SWAP2 PUSH2 0xA82 PUSH2 0xEA2 JUMP JUMPDEST PUSH2 0xA8A PUSH2 0xEBE JUMP JUMPDEST SWAP3 PUSH2 0xA93 PUSH2 0x1093 JUMP JUMPDEST POP PUSH2 0xA9C PUSH2 0xF0B JUMP JUMPDEST SWAP2 DUP2 DUP4 MSTORE PUSH2 0x1CC PUSH2 0xED5 JUMP JUMPDEST DUP4 DUP3 CALLVALUE PUSH2 0x406 JUMPI PUSH1 0x60 CALLDATASIZE PUSH1 0x3 NOT ADD SLT PUSH2 0x406 JUMPI SWAP1 PUSH2 0x208 SWAP2 PUSH2 0xAC8 PUSH2 0xEA2 JUMP JUMPDEST PUSH2 0xAD0 PUSH2 0xEBE JUMP JUMPDEST SWAP3 PUSH2 0xAD9 PUSH2 0x1093 JUMP JUMPDEST POP PUSH2 0xAE2 PUSH2 0xF0B JUMP JUMPDEST SWAP2 DUP2 DUP4 MSTORE PUSH2 0xAEE PUSH2 0xED5 JUMP JUMPDEST DUP3 DUP2 MSTORE PUSH1 0x1 PUSH1 0x1 PUSH1 0x80 SHL SUB NOT SWAP2 DUP3 AND PUSH1 0x20 DUP3 ADD MSTORE SWAP5 AND DUP4 DUP6 ADD MSTORE PUSH1 0x44 CALLDATALOAD PUSH1 0x60 DUP6 ADD MSTORE PUSH1 0x80 DUP5 ADD MSTORE PUSH1 0x1 PUSH1 0xA0 DUP5 ADD MSTORE PUSH1 0xC0 DUP4 ADD MSTORE MLOAD SWAP2 DUP3 SWAP2 DUP3 PUSH2 0xFCE JUMP JUMPDEST DUP4 DUP3 CALLVALUE PUSH2 0x406 JUMPI PUSH1 0x60 CALLDATASIZE PUSH1 0x3 NOT ADD SLT PUSH2 0x406 JUMPI PUSH2 0xB46 PUSH2 0xEA2 JUMP JUMPDEST SWAP1 PUSH1 0x44 CALLDATALOAD SWAP2 PUSH1 0x5 DUP4 LT ISZERO PUSH2 0x7D9 JUMPI PUSH2 0x208 SWAP4 PUSH2 0xB60 PUSH2 0x1093 JUMP JUMPDEST POP PUSH2 0xB69 PUSH2 0xF0B JUMP JUMPDEST SWAP2 DUP2 DUP4 MSTORE PUSH2 0x4F1 PUSH2 0x4EA PUSH2 0xED5 JUMP JUMPDEST POP DUP3 CALLVALUE PUSH2 0x2AA JUMPI PUSH1 0xA0 CALLDATASIZE PUSH1 0x3 NOT ADD SLT PUSH2 0x2AA JUMPI PUSH2 0xB93 PUSH2 0xEA2 JUMP JUMPDEST SWAP2 PUSH2 0xB9C PUSH2 0xEBE JUMP JUMPDEST SWAP2 PUSH1 0x44 CALLDATALOAD SWAP3 PUSH1 0x5 DUP5 LT ISZERO PUSH2 0x406 JUMPI PUSH2 0x208 SWAP5 PUSH2 0xBB6 PUSH2 0x1066 JUMP JUMPDEST SWAP1 PUSH2 0xBBF PUSH2 0x1075 JUMP JUMPDEST SWAP3 PUSH2 0xBC8 PUSH2 0x1093 JUMP JUMPDEST POP PUSH2 0xBD1 PUSH2 0xF0B JUMP JUMPDEST SWAP5 DUP6 MSTORE PUSH2 0xBDF PUSH2 0x3C4 PUSH2 0xED5 JUMP JUMPDEST PUSH1 0x1 PUSH1 0x1 PUSH1 0x80 SHL SUB NOT SWAP2 DUP3 AND PUSH1 0x20 DUP9 ADD MSTORE AND DUP5 DUP7 ADD MSTORE PUSH1 0x1 PUSH1 0x60 DUP7 ADD MSTORE ISZERO ISZERO PUSH1 0x80 DUP6 ADD MSTORE ISZERO ISZERO PUSH1 0xA0 DUP5 ADD MSTORE PUSH1 0xC0 DUP4 ADD MSTORE MLOAD SWAP2 DUP3 SWAP2 DUP3 PUSH2 0xFCE JUMP JUMPDEST DUP4 DUP3 CALLVALUE PUSH2 0x406 JUMPI PUSH1 0x80 CALLDATASIZE PUSH1 0x3 NOT ADD SLT PUSH2 0x406 JUMPI SWAP1 PUSH2 0x208 SWAP2 PUSH2 0xC39 PUSH2 0xEA2 JUMP JUMPDEST PUSH2 0xC41 PUSH2 0x1057 JUMP JUMPDEST PUSH2 0xC49 PUSH2 0x1066 JUMP JUMPDEST SWAP1 PUSH2 0xC52 PUSH2 0x1093 JUMP JUMPDEST POP PUSH2 0xC5B PUSH2 0xF0B JUMP JUMPDEST SWAP3 DUP6 DUP5 MSTORE PUSH2 0xC67 PUSH2 0xED5 JUMP JUMPDEST SWAP6 DUP7 MSTORE PUSH1 0x1 PUSH1 0x1 PUSH1 0x80 SHL SUB NOT AND PUSH1 0x20 DUP7 ADD MSTORE PUSH6 0x1B185D195CDD PUSH1 0xD2 SHL DUP5 DUP7 ADD MSTORE PUSH1 0x24 CALLDATALOAD PUSH1 0x60 DUP7 ADD MSTORE ISZERO ISZERO PUSH1 0x80 DUP6 ADD MSTORE ISZERO ISZERO PUSH1 0xA0 DUP5 ADD MSTORE PUSH1 0xC0 DUP4 ADD MSTORE MLOAD SWAP2 DUP3 SWAP2 DUP3 PUSH2 0xFCE JUMP JUMPDEST DUP4 DUP3 CALLVALUE PUSH2 0x406 JUMPI PUSH1 0xA0 CALLDATASIZE PUSH1 0x3 NOT ADD SLT PUSH2 0x406 JUMPI PUSH2 0xCC7 PUSH2 0xEA2 JUMP JUMPDEST SWAP1 PUSH1 0x44 CALLDATALOAD SWAP2 PUSH1 0x5 DUP4 LT ISZERO PUSH2 0x7D9 JUMPI SWAP3 PUSH2 0x208 SWAP4 PUSH2 0xCE2 PUSH2 0x1066 JUMP JUMPDEST PUSH2 0xCEA PUSH2 0x1075 JUMP JUMPDEST SWAP2 PUSH2 0xCF3 PUSH2 0x1093 JUMP JUMPDEST POP PUSH2 0xCFC PUSH2 0xF0B JUMP JUMPDEST SWAP4 DUP5 MSTORE PUSH2 0xD0A PUSH2 0x650 PUSH2 0xED5 JUMP JUMPDEST PUSH1 0x1 PUSH1 0x1 PUSH1 0x80 SHL SUB NOT AND PUSH1 0x20 DUP7 ADD MSTORE PUSH6 0x1B185D195CDD PUSH1 0xD2 SHL DUP5 DUP7 ADD MSTORE PUSH1 0x24 CALLDATALOAD PUSH1 0x60 DUP7 ADD MSTORE ISZERO ISZERO PUSH1 0x80 DUP6 ADD MSTORE ISZERO ISZERO PUSH1 0xA0 DUP5 ADD MSTORE PUSH1 0xC0 DUP4 ADD MSTORE MLOAD SWAP2 DUP3 SWAP2 DUP3 PUSH2 0xFCE JUMP JUMPDEST DUP4 DUP3 CALLVALUE PUSH2 0x406 JUMPI PUSH1 0x80 CALLDATASIZE PUSH1 0x3 NOT ADD SLT PUSH2 0x406 JUMPI SWAP1 PUSH2 0x208 SWAP2 PUSH2 0xD6C PUSH2 0xEA2 JUMP JUMPDEST PUSH2 0xD74 PUSH2 0xEBE JUMP JUMPDEST SWAP1 PUSH2 0xD7D PUSH2 0x1057 JUMP JUMPDEST PUSH2 0xD85 PUSH2 0x1066 JUMP JUMPDEST SWAP2 PUSH2 0xD8E PUSH2 0x1093 JUMP JUMPDEST POP PUSH2 0xD97 PUSH2 0xF0B JUMP JUMPDEST SWAP4 DUP7 DUP6 MSTORE PUSH2 0xDA3 PUSH2 0xED5 JUMP JUMPDEST SWAP7 DUP8 MSTORE PUSH1 0x1 PUSH1 0x1 PUSH1 0x80 SHL SUB NOT SWAP2 DUP3 AND PUSH1 0x20 DUP9 ADD MSTORE AND DUP5 DUP7 ADD MSTORE PUSH1 0x1 PUSH1 0x60 DUP7 ADD MSTORE ISZERO ISZERO PUSH1 0x80 DUP6 ADD MSTORE ISZERO ISZERO PUSH1 0xA0 DUP5 ADD MSTORE PUSH1 0xC0 DUP4 ADD MSTORE MLOAD SWAP2 DUP3 SWAP2 DUP3 PUSH2 0xFCE JUMP JUMPDEST POP CALLVALUE PUSH2 0x210 JUMPI PUSH1 0x80 CALLDATASIZE PUSH1 0x3 NOT ADD SLT PUSH2 0x210 JUMPI PUSH2 0xDFA PUSH2 0xEA2 JUMP JUMPDEST PUSH2 0xE02 PUSH2 0xEBE JUMP JUMPDEST SWAP3 PUSH1 0x64 CALLDATALOAD PUSH8 0xFFFFFFFFFFFFFFFF DUP2 GT PUSH2 0x20C JUMPI PUSH2 0x208 SWAP6 SWAP2 PUSH2 0xE26 SWAP2 CALLDATASIZE SWAP2 ADD PUSH2 0xF2B JUMP JUMPDEST SWAP2 PUSH2 0xE2F PUSH2 0x1093 JUMP JUMPDEST POP PUSH2 0xAEE PUSH2 0xED5 JUMP JUMPDEST POP DUP3 SWAP1 CALLVALUE PUSH2 0x406 JUMPI PUSH1 0x80 CALLDATASIZE PUSH1 0x3 NOT ADD SLT PUSH2 0x406 JUMPI PUSH2 0xE54 PUSH2 0xEA2 JUMP JUMPDEST SWAP2 PUSH2 0xE5D PUSH2 0xEBE JUMP JUMPDEST SWAP1 PUSH1 0x44 CALLDATALOAD SWAP4 PUSH1 0x5 DUP6 LT ISZERO PUSH2 0x406 JUMPI PUSH1 0x64 CALLDATALOAD PUSH8 0xFFFFFFFFFFFFFFFF DUP2 GT PUSH2 0x210 JUMPI PUSH2 0x208 SWAP7 PUSH2 0xE8D SWAP2 CALLDATASIZE SWAP2 ADD PUSH2 0xF2B JUMP JUMPDEST SWAP3 PUSH2 0xE96 PUSH2 0x1093 JUMP JUMPDEST POP PUSH2 0x6E6 PUSH2 0x650 PUSH2 0xED5 JUMP JUMPDEST PUSH1 0x4 CALLDATALOAD SWAP1 PUSH1 0x1 PUSH1 0x1 PUSH1 0x80 SHL SUB NOT DUP3 AND DUP3 SUB PUSH2 0xEB9 JUMPI JUMP JUMPDEST PUSH1 0x0 DUP1 REVERT JUMPDEST PUSH1 0x24 CALLDATALOAD SWAP1 PUSH1 0x1 PUSH1 0x1 PUSH1 0x80 SHL SUB NOT DUP3 AND DUP3 SUB PUSH2 0xEB9 JUMPI JUMP JUMPDEST PUSH1 0x40 MLOAD SWAP1 PUSH1 0xE0 DUP3 ADD DUP3 DUP2 LT PUSH8 0xFFFFFFFFFFFFFFFF DUP3 GT OR PUSH2 0xEF5 JUMPI PUSH1 0x40 MSTORE JUMP JUMPDEST PUSH4 0x4E487B71 PUSH1 0xE0 SHL PUSH1 0x0 MSTORE PUSH1 0x41 PUSH1 0x4 MSTORE PUSH1 0x24 PUSH1 0x0 REVERT JUMPDEST PUSH1 0x40 MLOAD SWAP1 PUSH1 0x20 DUP3 ADD DUP3 DUP2 LT PUSH8 0xFFFFFFFFFFFFFFFF DUP3 GT OR PUSH2 0xEF5 JUMPI PUSH1 0x40 MSTORE JUMP JUMPDEST DUP2 PUSH1 0x1F DUP3 ADD SLT ISZERO PUSH2 0xEB9 JUMPI DUP1 CALLDATALOAD SWAP1 PUSH8 0xFFFFFFFFFFFFFFFF SWAP3 DUP4 DUP4 GT PUSH2 0xEF5 JUMPI PUSH1 0x40 MLOAD SWAP4 PUSH1 0x1F DUP5 ADD PUSH1 0x1F NOT SWAP1 DUP2 AND PUSH1 0x3F ADD AND DUP6 ADD SWAP1 DUP2 GT DUP6 DUP3 LT OR PUSH2 0xEF5 JUMPI PUSH1 0x40 MSTORE DUP3 DUP5 MSTORE PUSH1 0x20 DUP4 DUP4 ADD ADD GT PUSH2 0xEB9 JUMPI DUP2 PUSH1 0x0 SWAP3 PUSH1 0x20 DUP1 SWAP4 ADD DUP4 DUP7 ADD CALLDATACOPY DUP4 ADD ADD MSTORE SWAP1 JUMP JUMPDEST SWAP2 SWAP1 DUP3 MLOAD SWAP3 DUP4 DUP3 MSTORE PUSH1 0x0 JUMPDEST DUP5 DUP2 LT PUSH2 0xFBA JUMPI POP POP DUP3 PUSH1 0x0 PUSH1 0x20 DUP1 SWAP5 SWAP6 DUP5 ADD ADD MSTORE PUSH1 0x1F DUP1 NOT SWAP2 ADD AND ADD ADD SWAP1 JUMP JUMPDEST PUSH1 0x20 DUP2 DUP4 ADD DUP2 ADD MLOAD DUP5 DUP4 ADD DUP3 ADD MSTORE ADD PUSH2 0xF99 JUMP JUMPDEST PUSH1 0x20 DUP2 MSTORE DUP2 MLOAD SWAP2 PUSH1 0x5 DUP4 LT ISZERO PUSH2 0x1041 JUMPI PUSH1 0xC0 PUSH2 0x100 SWAP2 PUSH2 0x103E SWAP5 PUSH1 0x20 DUP6 ADD MSTORE PUSH1 0x1 PUSH1 0x1 PUSH1 0x80 SHL SUB NOT DUP1 PUSH1 0x20 DUP4 ADD MLOAD AND PUSH1 0x40 DUP7 ADD MSTORE PUSH1 0x40 DUP3 ADD MLOAD AND PUSH1 0x60 DUP6 ADD MSTORE PUSH1 0x60 DUP2 ADD MLOAD PUSH1 0x80 DUP6 ADD MSTORE PUSH1 0x80 DUP2 ADD MLOAD ISZERO ISZERO PUSH1 0xA0 DUP6 ADD MSTORE PUSH1 0xA0 DUP2 ADD MLOAD ISZERO ISZERO DUP3 DUP6 ADD MSTORE ADD MLOAD SWAP2 PUSH1 0xE0 DUP1 DUP3 ADD MSTORE ADD SWAP1 PUSH2 0xF8E JUMP JUMPDEST SWAP1 JUMP JUMPDEST PUSH4 0x4E487B71 PUSH1 0xE0 SHL PUSH1 0x0 MSTORE PUSH1 0x21 PUSH1 0x4 MSTORE PUSH1 0x24 PUSH1 0x0 REVERT JUMPDEST PUSH1 0x44 CALLDATALOAD SWAP1 DUP2 ISZERO ISZERO DUP3 SUB PUSH2 0xEB9 JUMPI JUMP JUMPDEST PUSH1 0x64 CALLDATALOAD SWAP1 DUP2 ISZERO ISZERO DUP3 SUB PUSH2 0xEB9 JUMPI JUMP JUMPDEST PUSH1 0x84 CALLDATALOAD SWAP1 DUP2 ISZERO ISZERO DUP3 SUB PUSH2 0xEB9 JUMPI JUMP JUMPDEST PUSH1 0xA4 CALLDATALOAD SWAP1 DUP2 ISZERO ISZERO DUP3 SUB PUSH2 0xEB9 JUMPI JUMP JUMPDEST PUSH2 0x109B PUSH2 0xED5 JUMP JUMPDEST SWAP1 PUSH1 0x0 DUP1 DUP4 MSTORE DUP1 PUSH1 0x20 DUP5 ADD MSTORE DUP1 PUSH1 0x40 DUP5 ADD MSTORE DUP1 PUSH1 0x60 DUP5 ADD MSTORE DUP1 PUSH1 0x80 DUP5 ADD MSTORE PUSH1 0xA0 DUP4 ADD MSTORE PUSH1 0x60 PUSH1 0xC0 DUP4 ADD MSTORE JUMP JUMPDEST PUSH1 0x5 DUP3 LT ISZERO PUSH2 0x1041 JUMPI MSTORE JUMP INVALID LOG2 PUSH5 0x6970667358 0x22 SLT KECCAK256 0xA9 COINBASE DUP6 PUSH21 0xAA794E01DFFF490A230A91FB945D094BB98EFF07FD DUP3 DUP2 PUSH19 0x56C7AB2864736F6C6343000813003300000000 "},"gasEstimates":{"creation":{"codeDepositCost":"872200","executionCost":"917","totalCost":"873117"},"external":{"DEFAULT_CLAIM_REQUEST_EXTRA_DATA()":"933","DEFAULT_CLAIM_REQUEST_GROUP_TIMESTAMP()":"435","DEFAULT_CLAIM_REQUEST_IS_OPTIONAL()":"209","DEFAULT_CLAIM_REQUEST_IS_SELECTABLE_BY_USER()":"605","DEFAULT_CLAIM_REQUEST_TYPE()":"495","DEFAULT_CLAIM_REQUEST_VALUE()":"385","build(bytes16)":"infinite","build(bytes16,bool,bool)":"infinite","build(bytes16,bytes)":"infinite","build(bytes16,bytes16)":"infinite","build(bytes16,bytes16,bool,bool)":"infinite","build(bytes16,bytes16,bytes)":"infinite","build(bytes16,bytes16,uint256)":"infinite","build(bytes16,bytes16,uint256,bool,bool)":"infinite","build(bytes16,bytes16,uint256,bytes)":"infinite","build(bytes16,bytes16,uint256,uint8)":"infinite","build(bytes16,bytes16,uint256,uint8,bool,bool)":"infinite","build(bytes16,bytes16,uint256,uint8,bool,bool,bytes)":"infinite","build(bytes16,bytes16,uint256,uint8,bytes)":"infinite","build(bytes16,bytes16,uint8)":"infinite","build(bytes16,bytes16,uint8,bool,bool)":"infinite","build(bytes16,bytes16,uint8,bytes)":"infinite","build(bytes16,uint256)":"infinite","build(bytes16,uint256,bool,bool)":"infinite","build(bytes16,uint256,bytes)":"infinite","build(bytes16,uint256,uint8)":"infinite","build(bytes16,uint256,uint8,bool,bool)":"infinite","build(bytes16,uint256,uint8,bytes)":"infinite","build(bytes16,uint8)":"infinite","build(bytes16,uint8,bool,bool)":"infinite","build(bytes16,uint8,bytes)":"infinite"}},"methodIdentifiers":{"DEFAULT_CLAIM_REQUEST_EXTRA_DATA()":"d4e694f7","DEFAULT_CLAIM_REQUEST_GROUP_TIMESTAMP()":"749d6d85","DEFAULT_CLAIM_REQUEST_IS_OPTIONAL()":"30c62a4a","DEFAULT_CLAIM_REQUEST_IS_SELECTABLE_BY_USER()":"bd240b86","DEFAULT_CLAIM_REQUEST_TYPE()":"84a0e907","DEFAULT_CLAIM_REQUEST_VALUE()":"6658580a","build(bytes16)":"e379821c","build(bytes16,bool,bool)":"ee5decf2","build(bytes16,bytes)":"a820af1a","build(bytes16,bytes16)":"644c52c8","build(bytes16,bytes16,bool,bool)":"35628e71","build(bytes16,bytes16,bytes)":"f744d654","build(bytes16,bytes16,uint256)":"4d06bd88","build(bytes16,bytes16,uint256,bool,bool)":"d8b6eb2b","build(bytes16,bytes16,uint256,bytes)":"102f7b60","build(bytes16,bytes16,uint256,uint8)":"d035c7ca","build(bytes16,bytes16,uint256,uint8,bool,bool)":"6b945f38","build(bytes16,bytes16,uint256,uint8,bool,bool,bytes)":"e3ec2c99","build(bytes16,bytes16,uint256,uint8,bytes)":"7aadac0d","build(bytes16,bytes16,uint8)":"c9062f31","build(bytes16,bytes16,uint8,bool,bool)":"3b0cb073","build(bytes16,bytes16,uint8,bytes)":"0d55ad28","build(bytes16,uint256)":"8628695b","build(bytes16,uint256,bool,bool)":"3a5dc559","build(bytes16,uint256,bytes)":"ec294078","build(bytes16,uint256,uint8)":"409f789a","build(bytes16,uint256,uint8,bool,bool)":"3880e361","build(bytes16,uint256,uint8,bytes)":"db9178d6","build(bytes16,uint8)":"80decbce","build(bytes16,uint8,bool,bool)":"b5a7fef5","build(bytes16,uint8,bytes)":"97e65353"}},"storageLayout":{"storage":[],"types":null},"userdoc":{"kind":"user","methods":{},"version":1}}}}