{"contracts/helpers/SismoConnectLib.sol":{"SismoConnect":{"abi":[{"inputs":[],"stateMutability":"nonpayable","type":"constructor"},{"inputs":[],"name":"ADDRESSES_PROVIDER_V2","outputs":[{"internalType":"contract IAddressesProvider","name":"","type":"address"}],"stateMutability":"view","type":"function"},{"inputs":[],"name":"APP_ID","outputs":[{"internalType":"bytes16","name":"","type":"bytes16"}],"stateMutability":"view","type":"function"},{"inputs":[],"name":"IS_IMPERSONATION_MODE","outputs":[{"internalType":"bool","name":"","type":"bool"}],"stateMutability":"view","type":"function"},{"inputs":[],"name":"SISMO_CONNECT_LIB_VERSION","outputs":[{"internalType":"uint256","name":"","type":"uint256"}],"stateMutability":"view","type":"function"},{"inputs":[{"internalType":"bytes16","name":"_appId","type":"bytes16"}],"name":"config","outputs":[{"components":[{"internalType":"bytes16","name":"appId","type":"bytes16"},{"components":[{"internalType":"bool","name":"isImpersonationMode","type":"bool"}],"internalType":"struct VaultConfig","name":"vault","type":"tuple"}],"internalType":"struct SismoConnectConfig","name":"","type":"tuple"}],"stateMutability":"pure","type":"function"}],"devdoc":{"kind":"dev","methods":{},"version":1},"evm":{"bytecode":{"linkReferences":{},"object":"61014060409080825234610330576000916101209183835261002081610335565b6019815260207f7369736d6f436f6e6e65637456657269666965722d76312e3200000000000000818301528251918261006763349f642f60e11b92838352600483016103a8565b038284733cd5334eb64ebbd4003b72022cc25465f1bfcee69281845afa938415610326578794610307575b506001600160a01b0393841660805284516100ed9084906100b281610335565b601781527f61757468526571756573744275696c6465722d76312e3100000000000000000082820152875180938192878352600483016103a8565b0381855afa9081156102c35790859189916102ea575b501660a05261015283865161011781610335565b601881527f636c61696d526571756573744275696c6465722d76312e31000000000000000082820152875180938192878352600483016103a8565b0381855afa9081156102c35790859189916102cd575b501660c0526101b783865161017c81610335565b601581527f7369676e61747572654275696c6465722d76312e31000000000000000000000082820152875180938192878352600483016103a8565b0381855afa9081156102c357918585949261022196948b916102a6575b501660e0528651916101e583610335565b601383527f726571756573744275696c6465722d76312e31000000000000000000000000008484015287518096819482938352600483016103a8565b03915afa95861561029b579561026c575b50506101009316835251906102cb92836103f2843960805183505060a05183505060c05183505060e0518350505182505051816101ec0152f35b61028c929550803d10610294575b6102848183610366565b810190610389565b923880610232565b503d61027a565b8451903d90823e3d90fd5b6102bd9150853d8711610294576102848183610366565b386101d4565b86513d8a823e3d90fd5b6102e49150853d8711610294576102848183610366565b38610168565b6103019150853d8711610294576102848183610366565b38610103565b61031f919450833d8511610294576102848183610366565b9238610092565b85513d89823e3d90fd5b600080fd5b604081019081106001600160401b0382111761035057604052565b634e487b7160e01b600052604160045260246000fd5b601f909101601f19168101906001600160401b0382119082101761035057604052565b9081602091031261033057516001600160a01b03811681036103305790565b6020808252825181830181905290939260005b8281106103dd57505060409293506000838284010152601f8019910116010190565b8181018601518482016040015285016103bb56fe6080604090808252600436101561001557600080fd5b600090813560e01c908163469163011461021157508063a183dc27146101d4578063c187bbc1146101aa578063c9512d991461018e5763e88c88971461005a57600080fd5b3461018b5760208060031936011261018757600435916001600160801b03198084168094036101875761008b610275565b8281528361009761023f565b9184835201526100a5610275565b828152836100b161023f565b918483520152816100c061023f565b526100c961023f565b9182526100d4610275565b938085528385019283521561014b578151516100fb57845193511683525151151590820152f35b845162461bcd60e51b815260048101849052602360248201527f696d706572736f6e6174696f6e206d6f6465206973206e6f7420737570706f726044820152621d195960ea1b6064820152608490fd5b845162461bcd60e51b815260048101849052601560248201527461707049642063616e6e6f7420626520656d70747960581b6044820152606490fd5b5080fd5b80fd5b5090346101875781600319360112610187576020905160028152f35b5090346101875781600319360112610187576020915460801b9051906001600160801b0319168152f35b509034610187578160031936011261018757602090517f000000000000000000000000000000000000000000000000000000000000000015158152f35b90503461018757816003193601126101875780733cd5334eb64ebbd4003b72022cc25465f1bfcee660209252f35b604051906020820182811067ffffffffffffffff82111761025f57604052565b634e487b7160e01b600052604160045260246000fd5b604051906040820182811067ffffffffffffffff82111761025f5760405256fea2646970667358221220135cbcddf2196f245e59b63de0f0cd68e947dedd6a988a5d2e3a8c1f0c37272d64736f6c63430008130033","opcodes":"PUSH2 0x140 PUSH1 0x40 SWAP1 DUP1 DUP3 MSTORE CALLVALUE PUSH2 0x330 JUMPI PUSH1 0x0 SWAP2 PUSH2 0x120 SWAP2 DUP4 DUP4 MSTORE PUSH2 0x20 DUP2 PUSH2 0x335 JUMP JUMPDEST PUSH1 0x19 DUP2 MSTORE PUSH1 0x20 PUSH32 0x7369736D6F436F6E6E65637456657269666965722D76312E3200000000000000 DUP2 DUP4 ADD MSTORE DUP3 MLOAD SWAP2 DUP3 PUSH2 0x67 PUSH4 0x349F642F PUSH1 0xE1 SHL SWAP3 DUP4 DUP4 MSTORE PUSH1 0x4 DUP4 ADD PUSH2 0x3A8 JUMP JUMPDEST SUB DUP3 DUP5 PUSH20 0x3CD5334EB64EBBD4003B72022CC25465F1BFCEE6 SWAP3 DUP2 DUP5 GAS STATICCALL SWAP4 DUP5 ISZERO PUSH2 0x326 JUMPI DUP8 SWAP5 PUSH2 0x307 JUMPI JUMPDEST POP PUSH1 0x1 PUSH1 0x1 PUSH1 0xA0 SHL SUB SWAP4 DUP5 AND PUSH1 0x80 MSTORE DUP5 MLOAD PUSH2 0xED SWAP1 DUP5 SWAP1 PUSH2 0xB2 DUP2 PUSH2 0x335 JUMP JUMPDEST PUSH1 0x17 DUP2 MSTORE PUSH32 0x61757468526571756573744275696C6465722D76312E31000000000000000000 DUP3 DUP3 ADD MSTORE DUP8 MLOAD DUP1 SWAP4 DUP2 SWAP3 DUP8 DUP4 MSTORE PUSH1 0x4 DUP4 ADD PUSH2 0x3A8 JUMP JUMPDEST SUB DUP2 DUP6 GAS STATICCALL SWAP1 DUP2 ISZERO PUSH2 0x2C3 JUMPI SWAP1 DUP6 SWAP2 DUP10 SWAP2 PUSH2 0x2EA JUMPI JUMPDEST POP AND PUSH1 0xA0 MSTORE PUSH2 0x152 DUP4 DUP7 MLOAD PUSH2 0x117 DUP2 PUSH2 0x335 JUMP JUMPDEST PUSH1 0x18 DUP2 MSTORE PUSH32 0x636C61696D526571756573744275696C6465722D76312E310000000000000000 DUP3 DUP3 ADD MSTORE DUP8 MLOAD DUP1 SWAP4 DUP2 SWAP3 DUP8 DUP4 MSTORE PUSH1 0x4 DUP4 ADD PUSH2 0x3A8 JUMP JUMPDEST SUB DUP2 DUP6 GAS STATICCALL SWAP1 DUP2 ISZERO PUSH2 0x2C3 JUMPI SWAP1 DUP6 SWAP2 DUP10 SWAP2 PUSH2 0x2CD JUMPI JUMPDEST POP AND PUSH1 0xC0 MSTORE PUSH2 0x1B7 DUP4 DUP7 MLOAD PUSH2 0x17C DUP2 PUSH2 0x335 JUMP JUMPDEST PUSH1 0x15 DUP2 MSTORE PUSH32 0x7369676E61747572654275696C6465722D76312E310000000000000000000000 DUP3 DUP3 ADD MSTORE DUP8 MLOAD DUP1 SWAP4 DUP2 SWAP3 DUP8 DUP4 MSTORE PUSH1 0x4 DUP4 ADD PUSH2 0x3A8 JUMP JUMPDEST SUB DUP2 DUP6 GAS STATICCALL SWAP1 DUP2 ISZERO PUSH2 0x2C3 JUMPI SWAP2 DUP6 DUP6 SWAP5 SWAP3 PUSH2 0x221 SWAP7 SWAP5 DUP12 SWAP2 PUSH2 0x2A6 JUMPI JUMPDEST POP AND PUSH1 0xE0 MSTORE DUP7 MLOAD SWAP2 PUSH2 0x1E5 DUP4 PUSH2 0x335 JUMP JUMPDEST PUSH1 0x13 DUP4 MSTORE PUSH32 0x726571756573744275696C6465722D76312E3100000000000000000000000000 DUP5 DUP5 ADD MSTORE DUP8 MLOAD DUP1 SWAP7 DUP2 SWAP5 DUP3 SWAP4 DUP4 MSTORE PUSH1 0x4 DUP4 ADD PUSH2 0x3A8 JUMP JUMPDEST SUB SWAP2 GAS STATICCALL SWAP6 DUP7 ISZERO PUSH2 0x29B JUMPI SWAP6 PUSH2 0x26C JUMPI JUMPDEST POP POP PUSH2 0x100 SWAP4 AND DUP4 MSTORE MLOAD SWAP1 PUSH2 0x2CB SWAP3 DUP4 PUSH2 0x3F2 DUP5 CODECOPY PUSH1 0x80 MLOAD DUP4 POP POP PUSH1 0xA0 MLOAD DUP4 POP POP PUSH1 0xC0 MLOAD DUP4 POP POP PUSH1 0xE0 MLOAD DUP4 POP POP MLOAD DUP3 POP POP MLOAD DUP2 PUSH2 0x1EC ADD MSTORE RETURN JUMPDEST PUSH2 0x28C SWAP3 SWAP6 POP DUP1 RETURNDATASIZE LT PUSH2 0x294 JUMPI JUMPDEST PUSH2 0x284 DUP2 DUP4 PUSH2 0x366 JUMP JUMPDEST DUP2 ADD SWAP1 PUSH2 0x389 JUMP JUMPDEST SWAP3 CODESIZE DUP1 PUSH2 0x232 JUMP JUMPDEST POP RETURNDATASIZE PUSH2 0x27A JUMP JUMPDEST DUP5 MLOAD SWAP1 RETURNDATASIZE SWAP1 DUP3 RETURNDATACOPY RETURNDATASIZE SWAP1 REVERT JUMPDEST PUSH2 0x2BD SWAP2 POP DUP6 RETURNDATASIZE DUP8 GT PUSH2 0x294 JUMPI PUSH2 0x284 DUP2 DUP4 PUSH2 0x366 JUMP JUMPDEST CODESIZE PUSH2 0x1D4 JUMP JUMPDEST DUP7 MLOAD RETURNDATASIZE DUP11 DUP3 RETURNDATACOPY RETURNDATASIZE SWAP1 REVERT JUMPDEST PUSH2 0x2E4 SWAP2 POP DUP6 RETURNDATASIZE DUP8 GT PUSH2 0x294 JUMPI PUSH2 0x284 DUP2 DUP4 PUSH2 0x366 JUMP JUMPDEST CODESIZE PUSH2 0x168 JUMP JUMPDEST PUSH2 0x301 SWAP2 POP DUP6 RETURNDATASIZE DUP8 GT PUSH2 0x294 JUMPI PUSH2 0x284 DUP2 DUP4 PUSH2 0x366 JUMP JUMPDEST CODESIZE PUSH2 0x103 JUMP JUMPDEST PUSH2 0x31F SWAP2 SWAP5 POP DUP4 RETURNDATASIZE DUP6 GT PUSH2 0x294 JUMPI PUSH2 0x284 DUP2 DUP4 PUSH2 0x366 JUMP JUMPDEST SWAP3 CODESIZE PUSH2 0x92 JUMP JUMPDEST DUP6 MLOAD RETURNDATASIZE DUP10 DUP3 RETURNDATACOPY RETURNDATASIZE SWAP1 REVERT JUMPDEST PUSH1 0x0 DUP1 REVERT JUMPDEST PUSH1 0x40 DUP2 ADD SWAP1 DUP2 LT PUSH1 0x1 PUSH1 0x1 PUSH1 0x40 SHL SUB DUP3 GT OR PUSH2 0x350 JUMPI PUSH1 0x40 MSTORE JUMP JUMPDEST PUSH4 0x4E487B71 PUSH1 0xE0 SHL PUSH1 0x0 MSTORE PUSH1 0x41 PUSH1 0x4 MSTORE PUSH1 0x24 PUSH1 0x0 REVERT JUMPDEST PUSH1 0x1F SWAP1 SWAP2 ADD PUSH1 0x1F NOT AND DUP2 ADD SWAP1 PUSH1 0x1 PUSH1 0x1 PUSH1 0x40 SHL SUB DUP3 GT SWAP1 DUP3 LT OR PUSH2 0x350 JUMPI PUSH1 0x40 MSTORE JUMP JUMPDEST SWAP1 DUP2 PUSH1 0x20 SWAP2 SUB SLT PUSH2 0x330 JUMPI MLOAD PUSH1 0x1 PUSH1 0x1 PUSH1 0xA0 SHL SUB DUP2 AND DUP2 SUB PUSH2 0x330 JUMPI SWAP1 JUMP JUMPDEST PUSH1 0x20 DUP1 DUP3 MSTORE DUP3 MLOAD DUP2 DUP4 ADD DUP2 SWAP1 MSTORE SWAP1 SWAP4 SWAP3 PUSH1 0x0 JUMPDEST DUP3 DUP2 LT PUSH2 0x3DD JUMPI POP POP PUSH1 0x40 SWAP3 SWAP4 POP PUSH1 0x0 DUP4 DUP3 DUP5 ADD ADD MSTORE PUSH1 0x1F DUP1 NOT SWAP2 ADD AND ADD ADD SWAP1 JUMP JUMPDEST DUP2 DUP2 ADD DUP7 ADD MLOAD DUP5 DUP3 ADD PUSH1 0x40 ADD MSTORE DUP6 ADD PUSH2 0x3BB JUMP INVALID PUSH1 0x80 PUSH1 0x40 SWAP1 DUP1 DUP3 MSTORE PUSH1 0x4 CALLDATASIZE LT ISZERO PUSH2 0x15 JUMPI PUSH1 0x0 DUP1 REVERT JUMPDEST PUSH1 0x0 SWAP1 DUP2 CALLDATALOAD PUSH1 0xE0 SHR SWAP1 DUP2 PUSH4 0x46916301 EQ PUSH2 0x211 JUMPI POP DUP1 PUSH4 0xA183DC27 EQ PUSH2 0x1D4 JUMPI DUP1 PUSH4 0xC187BBC1 EQ PUSH2 0x1AA JUMPI DUP1 PUSH4 0xC9512D99 EQ PUSH2 0x18E JUMPI PUSH4 0xE88C8897 EQ PUSH2 0x5A JUMPI PUSH1 0x0 DUP1 REVERT JUMPDEST CALLVALUE PUSH2 0x18B JUMPI PUSH1 0x20 DUP1 PUSH1 0x3 NOT CALLDATASIZE ADD SLT PUSH2 0x187 JUMPI PUSH1 0x4 CALLDATALOAD SWAP2 PUSH1 0x1 PUSH1 0x1 PUSH1 0x80 SHL SUB NOT DUP1 DUP5 AND DUP1 SWAP5 SUB PUSH2 0x187 JUMPI PUSH2 0x8B PUSH2 0x275 JUMP JUMPDEST DUP3 DUP2 MSTORE DUP4 PUSH2 0x97 PUSH2 0x23F JUMP JUMPDEST SWAP2 DUP5 DUP4 MSTORE ADD MSTORE PUSH2 0xA5 PUSH2 0x275 JUMP JUMPDEST DUP3 DUP2 MSTORE DUP4 PUSH2 0xB1 PUSH2 0x23F JUMP JUMPDEST SWAP2 DUP5 DUP4 MSTORE ADD MSTORE DUP2 PUSH2 0xC0 PUSH2 0x23F JUMP JUMPDEST MSTORE PUSH2 0xC9 PUSH2 0x23F JUMP JUMPDEST SWAP2 DUP3 MSTORE PUSH2 0xD4 PUSH2 0x275 JUMP JUMPDEST SWAP4 DUP1 DUP6 MSTORE DUP4 DUP6 ADD SWAP3 DUP4 MSTORE ISZERO PUSH2 0x14B JUMPI DUP2 MLOAD MLOAD PUSH2 0xFB JUMPI DUP5 MLOAD SWAP4 MLOAD AND DUP4 MSTORE MLOAD MLOAD ISZERO ISZERO SWAP1 DUP3 ADD MSTORE RETURN JUMPDEST DUP5 MLOAD PUSH3 0x461BCD PUSH1 0xE5 SHL DUP2 MSTORE PUSH1 0x4 DUP2 ADD DUP5 SWAP1 MSTORE PUSH1 0x23 PUSH1 0x24 DUP3 ADD MSTORE PUSH32 0x696D706572736F6E6174696F6E206D6F6465206973206E6F7420737570706F72 PUSH1 0x44 DUP3 ADD MSTORE PUSH3 0x1D1959 PUSH1 0xEA SHL PUSH1 0x64 DUP3 ADD MSTORE PUSH1 0x84 SWAP1 REVERT JUMPDEST DUP5 MLOAD PUSH3 0x461BCD PUSH1 0xE5 SHL DUP2 MSTORE PUSH1 0x4 DUP2 ADD DUP5 SWAP1 MSTORE PUSH1 0x15 PUSH1 0x24 DUP3 ADD MSTORE PUSH21 0x61707049642063616E6E6F7420626520656D707479 PUSH1 0x58 SHL PUSH1 0x44 DUP3 ADD MSTORE PUSH1 0x64 SWAP1 REVERT JUMPDEST POP DUP1 REVERT JUMPDEST DUP1 REVERT JUMPDEST POP SWAP1 CALLVALUE PUSH2 0x187 JUMPI DUP2 PUSH1 0x3 NOT CALLDATASIZE ADD SLT PUSH2 0x187 JUMPI PUSH1 0x20 SWAP1 MLOAD PUSH1 0x2 DUP2 MSTORE RETURN JUMPDEST POP SWAP1 CALLVALUE PUSH2 0x187 JUMPI DUP2 PUSH1 0x3 NOT CALLDATASIZE ADD SLT PUSH2 0x187 JUMPI PUSH1 0x20 SWAP2 SLOAD PUSH1 0x80 SHL SWAP1 MLOAD SWAP1 PUSH1 0x1 PUSH1 0x1 PUSH1 0x80 SHL SUB NOT AND DUP2 MSTORE RETURN JUMPDEST POP SWAP1 CALLVALUE PUSH2 0x187 JUMPI DUP2 PUSH1 0x3 NOT CALLDATASIZE ADD SLT PUSH2 0x187 JUMPI PUSH1 0x20 SWAP1 MLOAD PUSH32 0x0 ISZERO ISZERO DUP2 MSTORE RETURN JUMPDEST SWAP1 POP CALLVALUE PUSH2 0x187 JUMPI DUP2 PUSH1 0x3 NOT CALLDATASIZE ADD SLT PUSH2 0x187 JUMPI DUP1 PUSH20 0x3CD5334EB64EBBD4003B72022CC25465F1BFCEE6 PUSH1 0x20 SWAP3 MSTORE RETURN JUMPDEST PUSH1 0x40 MLOAD SWAP1 PUSH1 0x20 DUP3 ADD DUP3 DUP2 LT PUSH8 0xFFFFFFFFFFFFFFFF DUP3 GT OR PUSH2 0x25F JUMPI PUSH1 0x40 MSTORE JUMP JUMPDEST PUSH4 0x4E487B71 PUSH1 0xE0 SHL PUSH1 0x0 MSTORE PUSH1 0x41 PUSH1 0x4 MSTORE PUSH1 0x24 PUSH1 0x0 REVERT JUMPDEST PUSH1 0x40 MLOAD SWAP1 PUSH1 0x40 DUP3 ADD DUP3 DUP2 LT PUSH8 0xFFFFFFFFFFFFFFFF DUP3 GT OR PUSH2 0x25F JUMPI PUSH1 0x40 MSTORE JUMP INVALID LOG2 PUSH5 0x6970667358 0x22 SLT KECCAK256 SGT 0x5C 0xBC 0xDD CALLCODE NOT PUSH16 0x245E59B63DE0F0CD68E947DEDD6A988A 0x5D 0x2E GASPRICE DUP13 0x1F 0xC CALLDATACOPY 0x27 0x2D PUSH5 0x736F6C6343 STOP ADDMOD SGT STOP CALLER "},"gasEstimates":{"creation":{"codeDepositCost":"143000","executionCost":"infinite","totalCost":"infinite"},"external":{"ADDRESSES_PROVIDER_V2()":"167","APP_ID()":"2346","IS_IMPERSONATION_MODE()":"infinite","SISMO_CONNECT_LIB_VERSION()":"238","config(bytes16)":"infinite"},"internal":{"_GET_EMPTY_SIGNATURE_REQUEST()":"infinite","buildAuth(enum AuthType)":"infinite","buildAuth(enum AuthType,bool,bool)":"infinite","buildConfig(bytes16)":"infinite","buildRequest(struct AuthRequest memory[] memory,struct SignatureRequest memory)":"infinite","buildSignature(bytes memory)":"infinite","buildVaultConfig()":"infinite","verify(bytes16,bytes memory,struct AuthRequest memory[] memory,struct SignatureRequest memory)":"infinite"}},"methodIdentifiers":{"ADDRESSES_PROVIDER_V2()":"46916301","APP_ID()":"c187bbc1","IS_IMPERSONATION_MODE()":"a183dc27","SISMO_CONNECT_LIB_VERSION()":"c9512d99","config(bytes16)":"e88c8897"}},"storageLayout":{"storage":[{"astId":470,"contract":"contracts/helpers/SismoConnectLib.sol:SismoConnect","label":"APP_ID","offset":0,"slot":"0","type":"t_bytes16"}],"types":{"t_bytes16":{"encoding":"inplace","label":"bytes16","numberOfBytes":"16"}}},"userdoc":{"kind":"user","methods":{},"version":1}}}}