{"contracts/helpers/utils/SignatureBuilder.sol":{"SignatureBuilder":{"abi":[{"inputs":[],"name":"DEFAULT_SIGNATURE_REQUEST_EXTRA_DATA","outputs":[{"internalType":"bytes","name":"","type":"bytes"}],"stateMutability":"view","type":"function"},{"inputs":[],"name":"DEFAULT_SIGNATURE_REQUEST_IS_SELECTABLE_BY_USER","outputs":[{"internalType":"bool","name":"","type":"bool"}],"stateMutability":"view","type":"function"},{"inputs":[],"name":"DEFAULT_SIGNATURE_REQUEST_MESSAGE","outputs":[{"internalType":"bytes","name":"","type":"bytes"}],"stateMutability":"view","type":"function"},{"inputs":[{"internalType":"bytes","name":"message","type":"bytes"},{"internalType":"bool","name":"isSelectableByUser","type":"bool"},{"internalType":"bytes","name":"extraData","type":"bytes"}],"name":"build","outputs":[{"components":[{"internalType":"bytes","name":"message","type":"bytes"},{"internalType":"bool","name":"isSelectableByUser","type":"bool"},{"internalType":"bytes","name":"extraData","type":"bytes"}],"internalType":"struct SignatureRequest","name":"","type":"tuple"}],"stateMutability":"pure","type":"function"},{"inputs":[{"internalType":"bool","name":"isSelectableByUser","type":"bool"}],"name":"build","outputs":[{"components":[{"internalType":"bytes","name":"message","type":"bytes"},{"internalType":"bool","name":"isSelectableByUser","type":"bool"},{"internalType":"bytes","name":"extraData","type":"bytes"}],"internalType":"struct SignatureRequest","name":"","type":"tuple"}],"stateMutability":"pure","type":"function"},{"inputs":[{"internalType":"bytes","name":"message","type":"bytes"},{"internalType":"bytes","name":"extraData","type":"bytes"}],"name":"build","outputs":[{"components":[{"internalType":"bytes","name":"message","type":"bytes"},{"internalType":"bool","name":"isSelectableByUser","type":"bool"},{"internalType":"bytes","name":"extraData","type":"bytes"}],"internalType":"struct SignatureRequest","name":"","type":"tuple"}],"stateMutability":"pure","type":"function"},{"inputs":[{"internalType":"bytes","name":"message","type":"bytes"},{"internalType":"bool","name":"isSelectableByUser","type":"bool"}],"name":"build","outputs":[{"components":[{"internalType":"bytes","name":"message","type":"bytes"},{"internalType":"bool","name":"isSelectableByUser","type":"bool"},{"internalType":"bytes","name":"extraData","type":"bytes"}],"internalType":"struct SignatureRequest","name":"","type":"tuple"}],"stateMutability":"pure","type":"function"},{"inputs":[{"internalType":"bytes","name":"message","type":"bytes"}],"name":"build","outputs":[{"components":[{"internalType":"bytes","name":"message","type":"bytes"},{"internalType":"bool","name":"isSelectableByUser","type":"bool"},{"internalType":"bytes","name":"extraData","type":"bytes"}],"internalType":"struct SignatureRequest","name":"","type":"tuple"}],"stateMutability":"pure","type":"function"},{"inputs":[{"internalType":"bool","name":"isSelectableByUser","type":"bool"},{"internalType":"bytes","name":"extraData","type":"bytes"}],"name":"build","outputs":[{"components":[{"internalType":"bytes","name":"message","type":"bytes"},{"internalType":"bool","name":"isSelectableByUser","type":"bool"},{"internalType":"bytes","name":"extraData","type":"bytes"}],"internalType":"struct SignatureRequest","name":"","type":"tuple"}],"stateMutability":"pure","type":"function"},{"inputs":[],"name":"buildEmpty","outputs":[{"components":[{"internalType":"bytes","name":"message","type":"bytes"},{"internalType":"bool","name":"isSelectableByUser","type":"bool"},{"internalType":"bytes","name":"extraData","type":"bytes"}],"internalType":"struct SignatureRequest","name":"","type":"tuple"}],"stateMutability":"pure","type":"function"}],"devdoc":{"kind":"dev","methods":{},"version":1},"evm":{"bytecode":{"linkReferences":{},"object":"6080806040523461001657610582908161001c8239f35b600080fdfe6040608081526004908136101561001557600080fd5b600091823560e01c9081631f785c951461031f5781633ed8572e146102e45781635c4b7b60146102c95781635de3b44c1461026457816364009b991461020c5781636835f32c146101c257816372915d891461018e5781637476d1ac1461011a57508063800e65f2146100c85763ac799cb31461009157600080fd5b346100c457816003193601126100c4576100c0906100ad6104e5565b9051918291602083526020830190610461565b0390f35b5080fd5b50346100c457816003193601126100c457906100c0916100e661052f565b506100ef6104e5565b916100f86103bb565b90808252610104610385565b93845260208401528183015251918291826104a1565b8383346100c457806003193601126100c457610134610452565b916024359067ffffffffffffffff821161018b57506100c093610159913691016103db565b61016161052f565b5061016a6104e5565b92610173610385565b938452151560208401528183015251918291826104a1565b80fd5b5050346100c457816003193601126100c457906100c0916101ad6103bb565b91825251918291602083526020830190610461565b8383346100c45760203660031901126100c457823567ffffffffffffffff8111610208576100c0936101f6913691016103db565b916101ff61052f565b506100f86103bb565b8280fd5b8383346100c457806003193601126100c457823567ffffffffffffffff8111610208576100c09361023f913691016103db565b91610248610443565b61025061052f565b506102596103bb565b918252610173610385565b9190503461020857806003193601126102085767ffffffffffffffff9180358381116102c55761029790369083016103db565b926024359081116102c5576100c094916102b3913691016103db565b906102bc61052f565b50610104610385565b8480fd5b5050346100c457816003193601126100c45751908152602090f35b5050346100c45760203660031901126100c457906100c091610304610452565b9161030d61052f565b506103166104e5565b926102596103bb565b8383346100c45760603660031901126100c45767ffffffffffffffff9183358381116100c45761035290369086016103db565b9261035b610443565b9160443591821161018b57506100c094610377913691016103db565b9061038061052f565b506101735b604051906060820182811067ffffffffffffffff8211176103a557604052565b634e487b7160e01b600052604160045260246000fd5b604051906020820182811067ffffffffffffffff8211176103a557604052565b81601f8201121561043e5780359067ffffffffffffffff928383116103a55760405193601f8401601f19908116603f01168501908111858210176103a5576040528284526020838301011161043e57816000926020809301838601378301015290565b600080fd5b60243590811515820361043e57565b60043590811515820361043e57565b919082519283825260005b84811061048d575050826000602080949584010152601f8019910116010190565b60208183018101518483018201520161046c565b906104e2916020815260406104c28351606060208501526080840190610461565b9260208101511515828401520151906060601f1982850301910152610461565b90565b604051906040820182811067ffffffffffffffff8211176103a557604052601882527f4d4553534147455f53454c45435445445f42595f5553455200000000000000006020830152565b610537610385565b9060608252600060208301526060604083015256fea2646970667358221220509138588b45540cb08fa0b18171f6fcc0c7d0dff21ccb0aa2d9cdfa43c480f964736f6c63430008130033","opcodes":"PUSH1 0x80 DUP1 PUSH1 0x40 MSTORE CALLVALUE PUSH2 0x16 JUMPI PUSH2 0x582 SWAP1 DUP2 PUSH2 0x1C DUP3 CODECOPY RETURN JUMPDEST PUSH1 0x0 DUP1 REVERT INVALID PUSH1 0x40 PUSH1 0x80 DUP2 MSTORE PUSH1 0x4 SWAP1 DUP2 CALLDATASIZE LT ISZERO PUSH2 0x15 JUMPI PUSH1 0x0 DUP1 REVERT JUMPDEST PUSH1 0x0 SWAP2 DUP3 CALLDATALOAD PUSH1 0xE0 SHR SWAP1 DUP2 PUSH4 0x1F785C95 EQ PUSH2 0x31F JUMPI DUP2 PUSH4 0x3ED8572E EQ PUSH2 0x2E4 JUMPI DUP2 PUSH4 0x5C4B7B60 EQ PUSH2 0x2C9 JUMPI DUP2 PUSH4 0x5DE3B44C EQ PUSH2 0x264 JUMPI DUP2 PUSH4 0x64009B99 EQ PUSH2 0x20C JUMPI DUP2 PUSH4 0x6835F32C EQ PUSH2 0x1C2 JUMPI DUP2 PUSH4 0x72915D89 EQ PUSH2 0x18E JUMPI DUP2 PUSH4 0x7476D1AC EQ PUSH2 0x11A JUMPI POP DUP1 PUSH4 0x800E65F2 EQ PUSH2 0xC8 JUMPI PUSH4 0xAC799CB3 EQ PUSH2 0x91 JUMPI PUSH1 0x0 DUP1 REVERT JUMPDEST CALLVALUE PUSH2 0xC4 JUMPI DUP2 PUSH1 0x3 NOT CALLDATASIZE ADD SLT PUSH2 0xC4 JUMPI PUSH2 0xC0 SWAP1 PUSH2 0xAD PUSH2 0x4E5 JUMP JUMPDEST SWAP1 MLOAD SWAP2 DUP3 SWAP2 PUSH1 0x20 DUP4 MSTORE PUSH1 0x20 DUP4 ADD SWAP1 PUSH2 0x461 JUMP JUMPDEST SUB SWAP1 RETURN JUMPDEST POP DUP1 REVERT JUMPDEST POP CALLVALUE PUSH2 0xC4 JUMPI DUP2 PUSH1 0x3 NOT CALLDATASIZE ADD SLT PUSH2 0xC4 JUMPI SWAP1 PUSH2 0xC0 SWAP2 PUSH2 0xE6 PUSH2 0x52F JUMP JUMPDEST POP PUSH2 0xEF PUSH2 0x4E5 JUMP JUMPDEST SWAP2 PUSH2 0xF8 PUSH2 0x3BB JUMP JUMPDEST SWAP1 DUP1 DUP3 MSTORE PUSH2 0x104 PUSH2 0x385 JUMP JUMPDEST SWAP4 DUP5 MSTORE PUSH1 0x20 DUP5 ADD MSTORE DUP2 DUP4 ADD MSTORE MLOAD SWAP2 DUP3 SWAP2 DUP3 PUSH2 0x4A1 JUMP JUMPDEST DUP4 DUP4 CALLVALUE PUSH2 0xC4 JUMPI DUP1 PUSH1 0x3 NOT CALLDATASIZE ADD SLT PUSH2 0xC4 JUMPI PUSH2 0x134 PUSH2 0x452 JUMP JUMPDEST SWAP2 PUSH1 0x24 CALLDATALOAD SWAP1 PUSH8 0xFFFFFFFFFFFFFFFF DUP3 GT PUSH2 0x18B JUMPI POP PUSH2 0xC0 SWAP4 PUSH2 0x159 SWAP2 CALLDATASIZE SWAP2 ADD PUSH2 0x3DB JUMP JUMPDEST PUSH2 0x161 PUSH2 0x52F JUMP JUMPDEST POP PUSH2 0x16A PUSH2 0x4E5 JUMP JUMPDEST SWAP3 PUSH2 0x173 PUSH2 0x385 JUMP JUMPDEST SWAP4 DUP5 MSTORE ISZERO ISZERO PUSH1 0x20 DUP5 ADD MSTORE DUP2 DUP4 ADD MSTORE MLOAD SWAP2 DUP3 SWAP2 DUP3 PUSH2 0x4A1 JUMP JUMPDEST DUP1 REVERT JUMPDEST POP POP CALLVALUE PUSH2 0xC4 JUMPI DUP2 PUSH1 0x3 NOT CALLDATASIZE ADD SLT PUSH2 0xC4 JUMPI SWAP1 PUSH2 0xC0 SWAP2 PUSH2 0x1AD PUSH2 0x3BB JUMP JUMPDEST SWAP2 DUP3 MSTORE MLOAD SWAP2 DUP3 SWAP2 PUSH1 0x20 DUP4 MSTORE PUSH1 0x20 DUP4 ADD SWAP1 PUSH2 0x461 JUMP JUMPDEST DUP4 DUP4 CALLVALUE PUSH2 0xC4 JUMPI PUSH1 0x20 CALLDATASIZE PUSH1 0x3 NOT ADD SLT PUSH2 0xC4 JUMPI DUP3 CALLDATALOAD PUSH8 0xFFFFFFFFFFFFFFFF DUP2 GT PUSH2 0x208 JUMPI PUSH2 0xC0 SWAP4 PUSH2 0x1F6 SWAP2 CALLDATASIZE SWAP2 ADD PUSH2 0x3DB JUMP JUMPDEST SWAP2 PUSH2 0x1FF PUSH2 0x52F JUMP JUMPDEST POP PUSH2 0xF8 PUSH2 0x3BB JUMP JUMPDEST DUP3 DUP1 REVERT JUMPDEST DUP4 DUP4 CALLVALUE PUSH2 0xC4 JUMPI DUP1 PUSH1 0x3 NOT CALLDATASIZE ADD SLT PUSH2 0xC4 JUMPI DUP3 CALLDATALOAD PUSH8 0xFFFFFFFFFFFFFFFF DUP2 GT PUSH2 0x208 JUMPI PUSH2 0xC0 SWAP4 PUSH2 0x23F SWAP2 CALLDATASIZE SWAP2 ADD PUSH2 0x3DB JUMP JUMPDEST SWAP2 PUSH2 0x248 PUSH2 0x443 JUMP JUMPDEST PUSH2 0x250 PUSH2 0x52F JUMP JUMPDEST POP PUSH2 0x259 PUSH2 0x3BB JUMP JUMPDEST SWAP2 DUP3 MSTORE PUSH2 0x173 PUSH2 0x385 JUMP JUMPDEST SWAP2 SWAP1 POP CALLVALUE PUSH2 0x208 JUMPI DUP1 PUSH1 0x3 NOT CALLDATASIZE ADD SLT PUSH2 0x208 JUMPI PUSH8 0xFFFFFFFFFFFFFFFF SWAP2 DUP1 CALLDATALOAD DUP4 DUP2 GT PUSH2 0x2C5 JUMPI PUSH2 0x297 SWAP1 CALLDATASIZE SWAP1 DUP4 ADD PUSH2 0x3DB JUMP JUMPDEST SWAP3 PUSH1 0x24 CALLDATALOAD SWAP1 DUP2 GT PUSH2 0x2C5 JUMPI PUSH2 0xC0 SWAP5 SWAP2 PUSH2 0x2B3 SWAP2 CALLDATASIZE SWAP2 ADD PUSH2 0x3DB JUMP JUMPDEST SWAP1 PUSH2 0x2BC PUSH2 0x52F JUMP JUMPDEST POP PUSH2 0x104 PUSH2 0x385 JUMP JUMPDEST DUP5 DUP1 REVERT JUMPDEST POP POP CALLVALUE PUSH2 0xC4 JUMPI DUP2 PUSH1 0x3 NOT CALLDATASIZE ADD SLT PUSH2 0xC4 JUMPI MLOAD SWAP1 DUP2 MSTORE PUSH1 0x20 SWAP1 RETURN JUMPDEST POP POP CALLVALUE PUSH2 0xC4 JUMPI PUSH1 0x20 CALLDATASIZE PUSH1 0x3 NOT ADD SLT PUSH2 0xC4 JUMPI SWAP1 PUSH2 0xC0 SWAP2 PUSH2 0x304 PUSH2 0x452 JUMP JUMPDEST SWAP2 PUSH2 0x30D PUSH2 0x52F JUMP JUMPDEST POP PUSH2 0x316 PUSH2 0x4E5 JUMP JUMPDEST SWAP3 PUSH2 0x259 PUSH2 0x3BB JUMP JUMPDEST DUP4 DUP4 CALLVALUE PUSH2 0xC4 JUMPI PUSH1 0x60 CALLDATASIZE PUSH1 0x3 NOT ADD SLT PUSH2 0xC4 JUMPI PUSH8 0xFFFFFFFFFFFFFFFF SWAP2 DUP4 CALLDATALOAD DUP4 DUP2 GT PUSH2 0xC4 JUMPI PUSH2 0x352 SWAP1 CALLDATASIZE SWAP1 DUP7 ADD PUSH2 0x3DB JUMP JUMPDEST SWAP3 PUSH2 0x35B PUSH2 0x443 JUMP JUMPDEST SWAP2 PUSH1 0x44 CALLDATALOAD SWAP2 DUP3 GT PUSH2 0x18B JUMPI POP PUSH2 0xC0 SWAP5 PUSH2 0x377 SWAP2 CALLDATASIZE SWAP2 ADD PUSH2 0x3DB JUMP JUMPDEST SWAP1 PUSH2 0x380 PUSH2 0x52F JUMP JUMPDEST POP PUSH2 0x173 JUMPDEST PUSH1 0x40 MLOAD SWAP1 PUSH1 0x60 DUP3 ADD DUP3 DUP2 LT PUSH8 0xFFFFFFFFFFFFFFFF DUP3 GT OR PUSH2 0x3A5 JUMPI PUSH1 0x40 MSTORE JUMP JUMPDEST PUSH4 0x4E487B71 PUSH1 0xE0 SHL PUSH1 0x0 MSTORE PUSH1 0x41 PUSH1 0x4 MSTORE PUSH1 0x24 PUSH1 0x0 REVERT JUMPDEST PUSH1 0x40 MLOAD SWAP1 PUSH1 0x20 DUP3 ADD DUP3 DUP2 LT PUSH8 0xFFFFFFFFFFFFFFFF DUP3 GT OR PUSH2 0x3A5 JUMPI PUSH1 0x40 MSTORE JUMP JUMPDEST DUP2 PUSH1 0x1F DUP3 ADD SLT ISZERO PUSH2 0x43E JUMPI DUP1 CALLDATALOAD SWAP1 PUSH8 0xFFFFFFFFFFFFFFFF SWAP3 DUP4 DUP4 GT PUSH2 0x3A5 JUMPI PUSH1 0x40 MLOAD SWAP4 PUSH1 0x1F DUP5 ADD PUSH1 0x1F NOT SWAP1 DUP2 AND PUSH1 0x3F ADD AND DUP6 ADD SWAP1 DUP2 GT DUP6 DUP3 LT OR PUSH2 0x3A5 JUMPI PUSH1 0x40 MSTORE DUP3 DUP5 MSTORE PUSH1 0x20 DUP4 DUP4 ADD ADD GT PUSH2 0x43E JUMPI DUP2 PUSH1 0x0 SWAP3 PUSH1 0x20 DUP1 SWAP4 ADD DUP4 DUP7 ADD CALLDATACOPY DUP4 ADD ADD MSTORE SWAP1 JUMP JUMPDEST PUSH1 0x0 DUP1 REVERT JUMPDEST PUSH1 0x24 CALLDATALOAD SWAP1 DUP2 ISZERO ISZERO DUP3 SUB PUSH2 0x43E JUMPI JUMP JUMPDEST PUSH1 0x4 CALLDATALOAD SWAP1 DUP2 ISZERO ISZERO DUP3 SUB PUSH2 0x43E JUMPI JUMP JUMPDEST SWAP2 SWAP1 DUP3 MLOAD SWAP3 DUP4 DUP3 MSTORE PUSH1 0x0 JUMPDEST DUP5 DUP2 LT PUSH2 0x48D JUMPI POP POP DUP3 PUSH1 0x0 PUSH1 0x20 DUP1 SWAP5 SWAP6 DUP5 ADD ADD MSTORE PUSH1 0x1F DUP1 NOT SWAP2 ADD AND ADD ADD SWAP1 JUMP JUMPDEST PUSH1 0x20 DUP2 DUP4 ADD DUP2 ADD MLOAD DUP5 DUP4 ADD DUP3 ADD MSTORE ADD PUSH2 0x46C JUMP JUMPDEST SWAP1 PUSH2 0x4E2 SWAP2 PUSH1 0x20 DUP2 MSTORE PUSH1 0x40 PUSH2 0x4C2 DUP4 MLOAD PUSH1 0x60 PUSH1 0x20 DUP6 ADD MSTORE PUSH1 0x80 DUP5 ADD SWAP1 PUSH2 0x461 JUMP JUMPDEST SWAP3 PUSH1 0x20 DUP2 ADD MLOAD ISZERO ISZERO DUP3 DUP5 ADD MSTORE ADD MLOAD SWAP1 PUSH1 0x60 PUSH1 0x1F NOT DUP3 DUP6 SUB ADD SWAP2 ADD MSTORE PUSH2 0x461 JUMP JUMPDEST SWAP1 JUMP JUMPDEST PUSH1 0x40 MLOAD SWAP1 PUSH1 0x40 DUP3 ADD DUP3 DUP2 LT PUSH8 0xFFFFFFFFFFFFFFFF DUP3 GT OR PUSH2 0x3A5 JUMPI PUSH1 0x40 MSTORE PUSH1 0x18 DUP3 MSTORE PUSH32 0x4D4553534147455F53454C45435445445F42595F555345520000000000000000 PUSH1 0x20 DUP4 ADD MSTORE JUMP JUMPDEST PUSH2 0x537 PUSH2 0x385 JUMP JUMPDEST SWAP1 PUSH1 0x60 DUP3 MSTORE PUSH1 0x0 PUSH1 0x20 DUP4 ADD MSTORE PUSH1 0x60 PUSH1 0x40 DUP4 ADD MSTORE JUMP INVALID LOG2 PUSH5 0x6970667358 0x22 SLT KECCAK256 POP SWAP2 CODESIZE PC DUP12 GASLIMIT SLOAD 0xC 0xB0 DUP16 LOG0 0xB1 DUP2 PUSH18 0xF6FCC0C7D0DFF21CCB0AA2D9CDFA43C480F9 PUSH5 0x736F6C6343 STOP ADDMOD SGT STOP CALLER "},"gasEstimates":{"creation":{"codeDepositCost":"282000","executionCost":"331","totalCost":"282331"},"external":{"DEFAULT_SIGNATURE_REQUEST_EXTRA_DATA()":"563","DEFAULT_SIGNATURE_REQUEST_IS_SELECTABLE_BY_USER()":"213","DEFAULT_SIGNATURE_REQUEST_MESSAGE()":"infinite","build(bool)":"infinite","build(bool,bytes)":"infinite","build(bytes)":"infinite","build(bytes,bool)":"infinite","build(bytes,bool,bytes)":"infinite","build(bytes,bytes)":"infinite","buildEmpty()":"infinite"}},"methodIdentifiers":{"DEFAULT_SIGNATURE_REQUEST_EXTRA_DATA()":"72915d89","DEFAULT_SIGNATURE_REQUEST_IS_SELECTABLE_BY_USER()":"5c4b7b60","DEFAULT_SIGNATURE_REQUEST_MESSAGE()":"ac799cb3","build(bool)":"3ed8572e","build(bool,bytes)":"7476d1ac","build(bytes)":"6835f32c","build(bytes,bool)":"64009b99","build(bytes,bool,bytes)":"1f785c95","build(bytes,bytes)":"5de3b44c","buildEmpty()":"800e65f2"}},"storageLayout":{"storage":[],"types":null},"userdoc":{"kind":"user","methods":{},"version":1}}}}