{"contracts/SismoPK.sol":{"SismoPK":{"abi":[{"inputs":[{"internalType":"uint256","name":"","type":"uint256"}],"name":"allVaultIds","outputs":[{"internalType":"bytes32","name":"","type":"bytes32"}],"stateMutability":"view","type":"function"},{"inputs":[{"internalType":"bytes32","name":"encryptedVaultId","type":"bytes32"},{"internalType":"bytes32","name":"appId","type":"bytes32"}],"name":"getWalletInfo","outputs":[{"internalType":"bytes","name":"","type":"bytes"}],"stateMutability":"view","type":"function"},{"inputs":[{"internalType":"bytes32","name":"encryptedVaultId","type":"bytes32"},{"internalType":"bytes32","name":"appId","type":"bytes32"},{"internalType":"bytes","name":"walletInfo","type":"bytes"}],"name":"setWalletInfo","outputs":[],"stateMutability":"nonpayable","type":"function"}],"devdoc":{"kind":"dev","methods":{},"version":1},"evm":{"bytecode":{"linkReferences":{},"object":"60808060405234610016576104e2908161001c8239f35b600080fdfe6040608081526004908136101561001557600080fd5b600091823560e01c8063018f6e4c146103b55780631e052ed5146102a357633ffe9e821461004257600080fd5b3461029b57606036600319011261029b5780359160249081356044359167ffffffffffffffff9182841161029f573660238501121561029f5783860135918383116102475780519189602096601f19956100a38988601f840116018761043a565b808652368a828401011161029b57808a8a93018388013785010152808a52898652818a20898b5286526100d8828b2054610472565b610259578952888552808920888a528552882093815193841161024757908392916101038654610472565b601f81116101f5575b508092601f85116001146101945750508892610189575b50508160011b916000199060031b1c19161790555b600154916801000000000000000083101561017857505080600161015f92016001556103ed565b819291549060031b91821b91600019901b191617905580f35b634e487b7160e01b85526041905283fd5b015190503880610123565b868b52818b209416908a905b8282106101dd5750509084600195949392106101c4575b505050811b019055610138565b015160001960f88460031b161c191690553880806101b7565b806001869782949787015181550196019401906101a0565b9091929350858a52818a20601f860160051c81019183871061023d575b90601f8796959493920160051c01905b81811061022f575061010c565b8b8155869550600101610222565b9091508190610212565b634e487b7160e01b8952604187528589fd5b815162461bcd60e51b8152808901879052601a818901527f57616c6c657420696e666f20616c7265616479206578697374730000000000006044820152606490fd5b8280fd5b8780fd5b5091346103b257816003193601126103b2576024358152602092818452828220903582528352818120908383518093839080546102df81610472565b8085529160019180831690811561038f5750600114610352575b50505061030c925095939295038261043a565b82519382859384528251928382860152825b84811061033c57505050828201840152601f01601f19168101030190f35b818101830151888201880152879550820161031e565b86528486209492508591905b81831061037757508894505082010161030c38806102f9565b8554888401850152948501948794509183019161035e565b9250505061030c94925060ff191682840152151560051b820101869238806102f9565b80fd5b503461029b57602036600319011261029b5735916001548310156103b257506103df6020926103ed565b91905490519160031b1c8152f35b6001548110156104245760016000527fb10e2d527612073b26eecdfd717e6a320cf44b4afac2b0732d9fcbe2b7fa0cf60190600090565b634e487b7160e01b600052603260045260246000fd5b90601f8019910116810190811067ffffffffffffffff82111761045c57604052565b634e487b7160e01b600052604160045260246000fd5b90600182811c921680156104a2575b602083101461048c57565b634e487b7160e01b600052602260045260246000fd5b91607f169161048156fea264697066735822122031d3a961d9a5dddf7567e171aca33209af1d5d83b2c4cd940135895237d80f1764736f6c63430008130033","opcodes":"PUSH1 0x80 DUP1 PUSH1 0x40 MSTORE CALLVALUE PUSH2 0x16 JUMPI PUSH2 0x4E2 SWAP1 DUP2 PUSH2 0x1C DUP3 CODECOPY RETURN JUMPDEST PUSH1 0x0 DUP1 REVERT INVALID PUSH1 0x40 PUSH1 0x80 DUP2 MSTORE PUSH1 0x4 SWAP1 DUP2 CALLDATASIZE LT ISZERO PUSH2 0x15 JUMPI PUSH1 0x0 DUP1 REVERT JUMPDEST PUSH1 0x0 SWAP2 DUP3 CALLDATALOAD PUSH1 0xE0 SHR DUP1 PUSH4 0x18F6E4C EQ PUSH2 0x3B5 JUMPI DUP1 PUSH4 0x1E052ED5 EQ PUSH2 0x2A3 JUMPI PUSH4 0x3FFE9E82 EQ PUSH2 0x42 JUMPI PUSH1 0x0 DUP1 REVERT JUMPDEST CALLVALUE PUSH2 0x29B JUMPI PUSH1 0x60 CALLDATASIZE PUSH1 0x3 NOT ADD SLT PUSH2 0x29B JUMPI DUP1 CALLDATALOAD SWAP2 PUSH1 0x24 SWAP1 DUP2 CALLDATALOAD PUSH1 0x44 CALLDATALOAD SWAP2 PUSH8 0xFFFFFFFFFFFFFFFF SWAP2 DUP3 DUP5 GT PUSH2 0x29F JUMPI CALLDATASIZE PUSH1 0x23 DUP6 ADD SLT ISZERO PUSH2 0x29F JUMPI DUP4 DUP7 ADD CALLDATALOAD SWAP2 DUP4 DUP4 GT PUSH2 0x247 JUMPI DUP1 MLOAD SWAP2 DUP10 PUSH1 0x20 SWAP7 PUSH1 0x1F NOT SWAP6 PUSH2 0xA3 DUP10 DUP9 PUSH1 0x1F DUP5 ADD AND ADD DUP8 PUSH2 0x43A JUMP JUMPDEST DUP1 DUP7 MSTORE CALLDATASIZE DUP11 DUP3 DUP5 ADD ADD GT PUSH2 0x29B JUMPI DUP1 DUP11 DUP11 SWAP4 ADD DUP4 DUP9 ADD CALLDATACOPY DUP6 ADD ADD MSTORE DUP1 DUP11 MSTORE DUP10 DUP7 MSTORE DUP2 DUP11 KECCAK256 DUP10 DUP12 MSTORE DUP7 MSTORE PUSH2 0xD8 DUP3 DUP12 KECCAK256 SLOAD PUSH2 0x472 JUMP JUMPDEST PUSH2 0x259 JUMPI DUP10 MSTORE DUP9 DUP6 MSTORE DUP1 DUP10 KECCAK256 DUP9 DUP11 MSTORE DUP6 MSTORE DUP9 KECCAK256 SWAP4 DUP2 MLOAD SWAP4 DUP5 GT PUSH2 0x247 JUMPI SWAP1 DUP4 SWAP3 SWAP2 PUSH2 0x103 DUP7 SLOAD PUSH2 0x472 JUMP JUMPDEST PUSH1 0x1F DUP2 GT PUSH2 0x1F5 JUMPI JUMPDEST POP DUP1 SWAP3 PUSH1 0x1F DUP6 GT PUSH1 0x1 EQ PUSH2 0x194 JUMPI POP POP DUP9 SWAP3 PUSH2 0x189 JUMPI JUMPDEST POP POP DUP2 PUSH1 0x1 SHL SWAP2 PUSH1 0x0 NOT SWAP1 PUSH1 0x3 SHL SHR NOT AND OR SWAP1 SSTORE JUMPDEST PUSH1 0x1 SLOAD SWAP2 PUSH9 0x10000000000000000 DUP4 LT ISZERO PUSH2 0x178 JUMPI POP POP DUP1 PUSH1 0x1 PUSH2 0x15F SWAP3 ADD PUSH1 0x1 SSTORE PUSH2 0x3ED JUMP JUMPDEST DUP2 SWAP3 SWAP2 SLOAD SWAP1 PUSH1 0x3 SHL SWAP2 DUP3 SHL SWAP2 PUSH1 0x0 NOT SWAP1 SHL NOT AND OR SWAP1 SSTORE DUP1 RETURN JUMPDEST PUSH4 0x4E487B71 PUSH1 0xE0 SHL DUP6 MSTORE PUSH1 0x41 SWAP1 MSTORE DUP4 REVERT JUMPDEST ADD MLOAD SWAP1 POP CODESIZE DUP1 PUSH2 0x123 JUMP JUMPDEST DUP7 DUP12 MSTORE DUP2 DUP12 KECCAK256 SWAP5 AND SWAP1 DUP11 SWAP1 JUMPDEST DUP3 DUP3 LT PUSH2 0x1DD JUMPI POP POP SWAP1 DUP5 PUSH1 0x1 SWAP6 SWAP5 SWAP4 SWAP3 LT PUSH2 0x1C4 JUMPI JUMPDEST POP POP POP DUP2 SHL ADD SWAP1 SSTORE PUSH2 0x138 JUMP JUMPDEST ADD MLOAD PUSH1 0x0 NOT PUSH1 0xF8 DUP5 PUSH1 0x3 SHL AND SHR NOT AND SWAP1 SSTORE CODESIZE DUP1 DUP1 PUSH2 0x1B7 JUMP JUMPDEST DUP1 PUSH1 0x1 DUP7 SWAP8 DUP3 SWAP5 SWAP8 DUP8 ADD MLOAD DUP2 SSTORE ADD SWAP7 ADD SWAP5 ADD SWAP1 PUSH2 0x1A0 JUMP JUMPDEST SWAP1 SWAP2 SWAP3 SWAP4 POP DUP6 DUP11 MSTORE DUP2 DUP11 KECCAK256 PUSH1 0x1F DUP7 ADD PUSH1 0x5 SHR DUP2 ADD SWAP2 DUP4 DUP8 LT PUSH2 0x23D JUMPI JUMPDEST SWAP1 PUSH1 0x1F DUP8 SWAP7 SWAP6 SWAP5 SWAP4 SWAP3 ADD PUSH1 0x5 SHR ADD SWAP1 JUMPDEST DUP2 DUP2 LT PUSH2 0x22F JUMPI POP PUSH2 0x10C JUMP JUMPDEST DUP12 DUP2 SSTORE DUP7 SWAP6 POP PUSH1 0x1 ADD PUSH2 0x222 JUMP JUMPDEST SWAP1 SWAP2 POP DUP2 SWAP1 PUSH2 0x212 JUMP JUMPDEST PUSH4 0x4E487B71 PUSH1 0xE0 SHL DUP10 MSTORE PUSH1 0x41 DUP8 MSTORE DUP6 DUP10 REVERT JUMPDEST DUP2 MLOAD PUSH3 0x461BCD PUSH1 0xE5 SHL DUP2 MSTORE DUP1 DUP10 ADD DUP8 SWAP1 MSTORE PUSH1 0x1A DUP2 DUP10 ADD MSTORE PUSH32 0x57616C6C657420696E666F20616C726561647920657869737473000000000000 PUSH1 0x44 DUP3 ADD MSTORE PUSH1 0x64 SWAP1 REVERT JUMPDEST DUP3 DUP1 REVERT JUMPDEST DUP8 DUP1 REVERT JUMPDEST POP SWAP2 CALLVALUE PUSH2 0x3B2 JUMPI DUP2 PUSH1 0x3 NOT CALLDATASIZE ADD SLT PUSH2 0x3B2 JUMPI PUSH1 0x24 CALLDATALOAD DUP2 MSTORE PUSH1 0x20 SWAP3 DUP2 DUP5 MSTORE DUP3 DUP3 KECCAK256 SWAP1 CALLDATALOAD DUP3 MSTORE DUP4 MSTORE DUP2 DUP2 KECCAK256 SWAP1 DUP4 DUP4 MLOAD DUP1 SWAP4 DUP4 SWAP1 DUP1 SLOAD PUSH2 0x2DF DUP2 PUSH2 0x472 JUMP JUMPDEST DUP1 DUP6 MSTORE SWAP2 PUSH1 0x1 SWAP2 DUP1 DUP4 AND SWAP1 DUP2 ISZERO PUSH2 0x38F JUMPI POP PUSH1 0x1 EQ PUSH2 0x352 JUMPI JUMPDEST POP POP POP PUSH2 0x30C SWAP3 POP SWAP6 SWAP4 SWAP3 SWAP6 SUB DUP3 PUSH2 0x43A JUMP JUMPDEST DUP3 MLOAD SWAP4 DUP3 DUP6 SWAP4 DUP5 MSTORE DUP3 MLOAD SWAP3 DUP4 DUP3 DUP7 ADD MSTORE DUP3 JUMPDEST DUP5 DUP2 LT PUSH2 0x33C JUMPI POP POP POP DUP3 DUP3 ADD DUP5 ADD MSTORE PUSH1 0x1F ADD PUSH1 0x1F NOT AND DUP2 ADD SUB ADD SWAP1 RETURN JUMPDEST DUP2 DUP2 ADD DUP4 ADD MLOAD DUP9 DUP3 ADD DUP9 ADD MSTORE DUP8 SWAP6 POP DUP3 ADD PUSH2 0x31E JUMP JUMPDEST DUP7 MSTORE DUP5 DUP7 KECCAK256 SWAP5 SWAP3 POP DUP6 SWAP2 SWAP1 JUMPDEST DUP2 DUP4 LT PUSH2 0x377 JUMPI POP DUP9 SWAP5 POP POP DUP3 ADD ADD PUSH2 0x30C CODESIZE DUP1 PUSH2 0x2F9 JUMP JUMPDEST DUP6 SLOAD DUP9 DUP5 ADD DUP6 ADD MSTORE SWAP5 DUP6 ADD SWAP5 DUP8 SWAP5 POP SWAP2 DUP4 ADD SWAP2 PUSH2 0x35E JUMP JUMPDEST SWAP3 POP POP POP PUSH2 0x30C SWAP5 SWAP3 POP PUSH1 0xFF NOT AND DUP3 DUP5 ADD MSTORE ISZERO ISZERO PUSH1 0x5 SHL DUP3 ADD ADD DUP7 SWAP3 CODESIZE DUP1 PUSH2 0x2F9 JUMP JUMPDEST DUP1 REVERT JUMPDEST POP CALLVALUE PUSH2 0x29B JUMPI PUSH1 0x20 CALLDATASIZE PUSH1 0x3 NOT ADD SLT PUSH2 0x29B JUMPI CALLDATALOAD SWAP2 PUSH1 0x1 SLOAD DUP4 LT ISZERO PUSH2 0x3B2 JUMPI POP PUSH2 0x3DF PUSH1 0x20 SWAP3 PUSH2 0x3ED JUMP JUMPDEST SWAP2 SWAP1 SLOAD SWAP1 MLOAD SWAP2 PUSH1 0x3 SHL SHR DUP2 MSTORE RETURN JUMPDEST PUSH1 0x1 SLOAD DUP2 LT ISZERO PUSH2 0x424 JUMPI PUSH1 0x1 PUSH1 0x0 MSTORE PUSH32 0xB10E2D527612073B26EECDFD717E6A320CF44B4AFAC2B0732D9FCBE2B7FA0CF6 ADD SWAP1 PUSH1 0x0 SWAP1 JUMP JUMPDEST PUSH4 0x4E487B71 PUSH1 0xE0 SHL PUSH1 0x0 MSTORE PUSH1 0x32 PUSH1 0x4 MSTORE PUSH1 0x24 PUSH1 0x0 REVERT JUMPDEST SWAP1 PUSH1 0x1F DUP1 NOT SWAP2 ADD AND DUP2 ADD SWAP1 DUP2 LT PUSH8 0xFFFFFFFFFFFFFFFF DUP3 GT OR PUSH2 0x45C JUMPI PUSH1 0x40 MSTORE JUMP JUMPDEST PUSH4 0x4E487B71 PUSH1 0xE0 SHL PUSH1 0x0 MSTORE PUSH1 0x41 PUSH1 0x4 MSTORE PUSH1 0x24 PUSH1 0x0 REVERT JUMPDEST SWAP1 PUSH1 0x1 DUP3 DUP2 SHR SWAP3 AND DUP1 ISZERO PUSH2 0x4A2 JUMPI JUMPDEST PUSH1 0x20 DUP4 LT EQ PUSH2 0x48C JUMPI JUMP JUMPDEST PUSH4 0x4E487B71 PUSH1 0xE0 SHL PUSH1 0x0 MSTORE PUSH1 0x22 PUSH1 0x4 MSTORE PUSH1 0x24 PUSH1 0x0 REVERT JUMPDEST SWAP2 PUSH1 0x7F AND SWAP2 PUSH2 0x481 JUMP INVALID LOG2 PUSH5 0x6970667358 0x22 SLT KECCAK256 BALANCE 0xD3 0xA9 PUSH2 0xD9A5 0xDD 0xDF PUSH22 0x67E171ACA33209AF1D5D83B2C4CD940135895237D80F OR PUSH5 0x736F6C6343 STOP ADDMOD SGT STOP CALLER "},"gasEstimates":{"creation":{"codeDepositCost":"250000","executionCost":"300","totalCost":"250300"},"external":{"allVaultIds(uint256)":"6588","getWalletInfo(bytes32,bytes32)":"infinite","setWalletInfo(bytes32,bytes32,bytes)":"infinite"}},"methodIdentifiers":{"allVaultIds(uint256)":"018f6e4c","getWalletInfo(bytes32,bytes32)":"1e052ed5","setWalletInfo(bytes32,bytes32,bytes)":"3ffe9e82"}},"storageLayout":{"storage":[{"astId":7,"contract":"contracts/SismoPK.sol:SismoPK","label":"vaults","offset":0,"slot":"0","type":"t_mapping(t_bytes32,t_mapping(t_bytes32,t_bytes_storage))"},{"astId":10,"contract":"contracts/SismoPK.sol:SismoPK","label":"allVaultIds","offset":0,"slot":"1","type":"t_array(t_bytes32)dyn_storage"}],"types":{"t_array(t_bytes32)dyn_storage":{"base":"t_bytes32","encoding":"dynamic_array","label":"bytes32[]","numberOfBytes":"32"},"t_bytes32":{"encoding":"inplace","label":"bytes32","numberOfBytes":"32"},"t_bytes_storage":{"encoding":"bytes","label":"bytes","numberOfBytes":"32"},"t_mapping(t_bytes32,t_bytes_storage)":{"encoding":"mapping","key":"t_bytes32","label":"mapping(bytes32 => bytes)","numberOfBytes":"32","value":"t_bytes_storage"},"t_mapping(t_bytes32,t_mapping(t_bytes32,t_bytes_storage))":{"encoding":"mapping","key":"t_bytes32","label":"mapping(bytes32 => mapping(bytes32 => bytes))","numberOfBytes":"32","value":"t_mapping(t_bytes32,t_bytes_storage)"}}},"userdoc":{"kind":"user","methods":{},"version":1}}}}