{
  "address": "0x424d8d41fc1fd1FC6Fe420887027F733c8fCc26a",
  "abi": [
    {
      "inputs": [
        {
          "internalType": "enum AuthType",
          "name": "authType",
          "type": "uint8"
        }
      ],
      "name": "AuthTypeNotFoundInVerifiedResult",
      "type": "error"
    },
    {
      "inputs": [],
      "name": "ADDRESSES_PROVIDER_V2",
      "outputs": [
        {
          "internalType": "contract IAddressesProvider",
          "name": "",
          "type": "address"
        }
      ],
      "stateMutability": "view",
      "type": "function"
    },
    {
      "inputs": [],
      "name": "APP_ID",
      "outputs": [
        {
          "internalType": "bytes16",
          "name": "",
          "type": "bytes16"
        }
      ],
      "stateMutability": "view",
      "type": "function"
    },
    {
      "inputs": [],
      "name": "IS_IMPERSONATION_MODE",
      "outputs": [
        {
          "internalType": "bool",
          "name": "",
          "type": "bool"
        }
      ],
      "stateMutability": "view",
      "type": "function"
    },
    {
      "inputs": [],
      "name": "SISMO_CONNECT_LIB_VERSION",
      "outputs": [
        {
          "internalType": "uint256",
          "name": "",
          "type": "uint256"
        }
      ],
      "stateMutability": "view",
      "type": "function"
    },
    {
      "inputs": [
        {
          "internalType": "bytes16",
          "name": "_appId",
          "type": "bytes16"
        }
      ],
      "name": "config",
      "outputs": [
        {
          "components": [
            {
              "internalType": "bytes16",
              "name": "appId",
              "type": "bytes16"
            },
            {
              "components": [
                {
                  "internalType": "bool",
                  "name": "isImpersonationMode",
                  "type": "bool"
                }
              ],
              "internalType": "struct VaultConfig",
              "name": "vault",
              "type": "tuple"
            }
          ],
          "internalType": "struct SismoConnectConfig",
          "name": "",
          "type": "tuple"
        }
      ],
      "stateMutability": "pure",
      "type": "function"
    },
    {
      "inputs": [
        {
          "internalType": "bytes",
          "name": "sismoConnectResponse",
          "type": "bytes"
        },
        {
          "internalType": "bytes16",
          "name": "_appId",
          "type": "bytes16"
        },
        {
          "internalType": "bytes32",
          "name": "_hash",
          "type": "bytes32"
        }
      ],
      "name": "sismoVerify",
      "outputs": [
        {
          "internalType": "bytes",
          "name": "",
          "type": "bytes"
        },
        {
          "internalType": "bytes",
          "name": "",
          "type": "bytes"
        }
      ],
      "stateMutability": "view",
      "type": "function"
    }
  ],
  "transactionHash": "0xf87e94f703294b2008d4f210ff3c320127ef5680d042d6e037fa706447b42070",
  "args": [],
  "numDeployments": 3,
  "solcInputHash": "533c7a5d21cdee5e1bab9f02926af01c",
  "bytecode": "0x6101406040908082523462000377576000916101209183835262000023816200037c565b6019815260207f7369736d6f436f6e6e65637456657269666965722d76312e320000000000000081830152825191826200006c63349f642f60e11b9283835260048301620003f3565b038284733cd5334eb64ebbd4003b72022cc25465f1bfcee69281845afa9384156200036d57879462000349575b506001600160a01b039384166080528451620000f8908490620000bc816200037c565b601781527f61757468526571756573744275696c6465722d76312e310000000000000000008282015287518093819287835260048301620003f3565b0381855afa908115620002fb57908591899162000327575b501660a0526200016383865162000127816200037c565b601881527f636c61696d526571756573744275696c6465722d76312e3100000000000000008282015287518093819287835260048301620003f3565b0381855afa908115620002fb57908591899162000305575b501660c052620001ce83865162000192816200037c565b601581527f7369676e61747572654275696c6465722d76312e3100000000000000000000008282015287518093819287835260048301620003f3565b0381855afa908115620002fb5791858594926200023e96948b91620002d9575b501660e05286519162000201836200037c565b601383527f726571756573744275696c6465722d76312e3100000000000000000000000000848401528751809681948293835260048301620003f3565b03915afa958615620002ce579562000298575b5050610100931683525190611b6e92836200043f843960805183610685015260a0518361023d015260c05183505060e051836102d7015251826104fa015251816101170152f35b620002bd929550803d10620002c6575b620002b48183620003ae565b810190620003d2565b92388062000251565b503d620002a8565b8451903d90823e3d90fd5b620002f49150853d8711620002c657620002b48183620003ae565b38620001ee565b86513d8a823e3d90fd5b620003209150853d8711620002c657620002b48183620003ae565b386200017b565b620003429150853d8711620002c657620002b48183620003ae565b3862000110565b62000365919450833d8511620002c657620002b48183620003ae565b923862000099565b85513d89823e3d90fd5b600080fd5b604081019081106001600160401b038211176200039857604052565b634e487b7160e01b600052604160045260246000fd5b601f909101601f19168101906001600160401b038211908210176200039857604052565b908160209103126200037757516001600160a01b0381168103620003775790565b6020808252825181830181905290939260005b8281106200042957505060409293506000838284010152601f8019910116010190565b8181018601518482016040015285016200040656fe60c0604052600436101561001257600080fd5b60003560e01c80630fc55f901461016b578063469163011461013c578063a183dc27146100ff578063c187bbc1146100d4578063c9512d99146100b85763e88c88971461005e57600080fd5b346100b35760203660031901126100b3576004356001600160801b0319811681036100b35761008e604091611747565b6100b182518092602080916001600160801b031981511684520151511515910152565bf35b600080fd5b346100b35760003660031901126100b357602060405160028152f35b346100b35760003660031901126100b357602060005460801b604051906001600160801b0319168152f35b346100b35760003660031901126100b35760206040517f000000000000000000000000000000000000000000000000000000000000000015158152f35b346100b35760003660031901126100b3576020604051733cd5334eb64ebbd4003b72022cc25465f1bfcee68152f35b346100b35760603660031901126100b3576004356001600160401b0381116100b357366023820112156100b3578060040135906101b86101aa83611614565b60405160a05260a0516115f3565b8160a0515236602483830101116100b357816000926024602093018360a051013760a0510101526024356001600160801b0319811690036100b35760a05151156114ea57604051610208816115a2565b6001815260005b602081106114d3575061022061168e565b50604051633a0ba6ff60e01b8152600060048201819052816024817f00000000000000000000000000000000000000000000000000000000000000006001600160a01b03165afa908115610b3c57600091611492575b50610280826116c3565b5261028a816116c3565b506102d360006040516044356020820152602081526102a8816115a2565b6102b0611a30565b5060405180938192631a0d7ccb60e21b8352602060048401526024830190611652565b03817f00000000000000000000000000000000000000000000000000000000000000006001600160a01b03165afa908115610b3c57600091611451575b50606060a060405161032181611520565b6000815260006020820152600060408201528280820152826080820152015260a0515160a0510191602060a0518403126100b357602060a05101516001600160401b0381116100b35760a0818151018503126100b3576040519361038485611551565b61039460208360a0510101611835565b85526103a660408360a0510101611835565b602086015260608260a051010151604086015260808260a0510101516001600160401b0381116100b3576103e6906020808401918560a05101010161184a565b606086015260a08281510101516080526001600160401b03608051116100b35760208101603f6080518460a05101010112156100b35760206080518360a0510101015161043281611677565b9261044060405194856115f3565b818452602084016020840160408460051b6080518560a05101010101116100b35760406080518360a051010101905b60408460051b6080518560a05101010101821061102657888860006104e48a8a60808601526040516104a08161156c565b838152606060208201526060604082015260606104bb611a30565b9101526104f66040519485938493632ceb1e8d60e01b85526040600486015260448501906118cc565b8381036003190160248501529061196f565b03817f00000000000000000000000000000000000000000000000000000000000000006001600160a01b03165afa908115610b3c57600091610d8a575b5090610540602435611747565b906040519283916312b037ff60e01b8352608060048401526001600160801b031981511660848401526001600160801b031960208201511660a4840152604081015160c484015260806105a3606083015160a060e4870152610124860190611652565b9101519060831984820301610104850152815180825260208201916020808360051b8301019401926000915b838310610be05750505050506003198382030160248401526001600160801b0319825116815261060e60208301516080602084015260808301906118cc565b916040810151928281036040840152835180825260208201916020808360051b8301019601926000915b838310610b485788600081808d6106816106608e8e60608f015190606081840391015261196f565b82516001600160801b03191660448501526020909201515115156064840152565b03817f00000000000000000000000000000000000000000000000000000000000000006001600160a01b03165afa908115610b3c576000916107c3575b5060a08101516060820190815151906106d682611677565b916106e460405193846115f3565b8083526106f3601f1991611677565b0160005b81811061078a57505060005b8351805182101561073d579061071c81610738936116e6565b5161072782866116e6565b5261073281856116e6565b506116fa565b610703565b6107788361078661074d89611ab6565b9160405192602084015260208352610764836115a2565b604051938493604085526040850190611652565b908382036020850152611652565b0390f35b60209060405161079981611551565b600081526000838201526000604082015260608082015260606080820152828287010152016106f7565b90503d806000833e6107d581836115f3565b60208282810103126100b3578151916001600160401b0383116100b35760c083820183830103126100b3576040519261080d84611520565b610818818301611835565b8452610828602082840101611835565b602085015281810160408181015190860152606001516001600160401b0381116100b357838301601f82848601010112156100b35780828401015161086c81611677565b9161087a60405193846115f3565b8183526020830186860160208460051b84888a01010101116100b3576020828688010101905b60208460051b84888a010101018210610a5257505050506060850152608081830101516001600160401b0381116100b357838301601f82848601010112156100b3578082840101516108f181611677565b916108ff60405193846115f3565b818352602083019086860160208460051b83888a01010101116100b3576020818688010101915b60208460051b83888a0101010183106109715750505050608085015260a08183010151906001600160401b0382116100b35761096693830192010161184a565b60a0820152816106be565b82516001600160401b0381116100b3578287890101019060e0601f19838b8b010301126100b357604051916109a583611587565b602081015160058110156100b35783526109c160408201611835565b60208401526109d260608201611835565b60408401526080810151606084015260a08101516001600160401b0381116100b357610a069060208c8c019184010161184a565b608084015260c081015160a084015260e0810151916001600160401b0383116100b357602093610a408594938580958f8f0192010161184a565b60c08201528152019301929050610926565b81516001600160401b0381116100b35760a0888801850182018a8a0103601f1901126100b35760405191610a8583611551565b602082868a8c010101015160068110156100b3578352610aad604083878b8d0101010161188f565b60208401528888018501820160608101516040850152608001516001600160401b0381116100b357610aed908b8b01908a8c01880185010160200161184a565b606084015260a082868a8c0101010151906001600160401b0382116100b357602093610b2a8b868096958f968b8f8499860195010101010161184a565b608082015281520192019190506108a0565b6040513d6000823e3d90fd5b9193975091939495602080610bcc600193601f1986820301875260e08c5191610b728184516118bf565b6001600160801b03198584015116858201526001600160801b031960408401511660408201526060830151606082015260808301511515608082015260a0830151151560a08201528160c080940151938201520190611652565b990193019301909289979695949293610638565b91939596509193601f1982820301835285519060a0810182519060a08352815180915260c08301602060c08360051b86010193019160005b818110610d27575050505060208301519082810360208401528151808252602082016020808360051b85010194019260005b838110610ca6575050505050610c93836020936080610c82869560406001990151604085015260608501518482036060860152611652565b920151906080818403910152611652565b97019301930190928896959492936105cf565b9091929394602080610d1a600193601f1987820301885260c060a08b51610cce8482516118bf565b6001600160801b03198682015116868501526001600160801b03196040820151166040850152606081015115156060850152608081015160808501520151918160a08201520190611652565b9701959401929101610c4a565b90919293602080610d7e60019360bf198a820301885260a060808a51610d4e84825161189c565b85810151151586850152604081015115156040850152606081015160608501520151918160808201520190611652565b96019401929101610c18565b90503d806000833e610d9c81836115f3565b60208282810103126100b3578151916001600160401b0383116100b357608083820183830103126100b35760405192610dd48461156c565b610ddf818301611835565b8452602081830101516001600160401b0381116100b357838301601f82848601010112156100b357808284010151610e1681611677565b91610e2460405193846115f3565b8183526020830186860160208460051b84888a01010101116100b3576020828688010101905b60208460051b84888a010101018210610fec57505050506020850152604081830101516001600160401b0381116100b357838301601f82848601010112156100b357808284010151610e9b81611677565b91610ea960405193846115f3565b818352602083019086860160208460051b83888a01010101116100b3576020818688010101915b60208460051b83888a010101018310610f1b5750505050604085015260608183010151906001600160401b0382116100b357610f10938301920101611a50565b606082015282610533565b82516001600160401b0381116100b35782878901010160e0601f19828b8b010301126100b35760405190610f4e82611587565b602081015160058110156100b3578252610f6a60408201611835565b6020830152610f7b60608201611835565b604083015260808101516060830152610f9660a0820161188f565b608083015260c092610fa984830161188f565b60a084015260e0820151926001600160401b0384116100b357602094610fdb869594868f968f9782980192010161184a565b908201528152019301929050610ed0565b8151906001600160401b0382116100b35760208092916110198a838095898f8e90850194010101016119a5565b8152019201919050610e4a565b8151906001600160401b0382116100b35760a0601f1983608051878451010101880301126100b3576040519161105b83611551565b6040816080518760a05101010101516001600160401b0381116100b35760208801605f82846080518a60a051010101010112156100b357604081836080518960a051010101010151906110ad82611677565b916110bb60405193846115f3565b808352602083019160208b0160608360051b83888d6080519060a051010101010101116100b357606081866080518c60a0510101010101925b60608360051b83888d6080519060a05101010101010184106113a1575050505083526060816080518760a05101010101516001600160401b0381116100b35760208801605f82846080518a60a051010101010112156100b357604081836080518960a05101010101015161116781611677565b9161117560405193846115f3565b8183526020830160208b0160608460051b84888d6080519060a051010101010101116100b357606082866080518c60a0510101010101905b60608460051b84888d6080519060a05101010101010182106112755750505050602084015260808181518760a0510101010151604084015260a08160805187835101010101516001600160401b0381116100b35761121e90604060208a0191846080518a60a051010101010161184a565b606084015260c0816080518760a0510101010151916001600160401b0383116100b35760409361126360209493868695868d01926080518c60a051010101010161184a565b6080820152815201920191905061046f565b81516001600160401b0381116100b35760805160a05160c09391908d01018801850182018e03603f190183136100b3578b92606083878b604051976112b989611520565b6080519060a051010101010101519060058210156100b357868a8f6113308794610100968a526112f8608087878783518860a051010101010101611835565b60208b015261131660a0878787608051888551010101010101611835565b60408b01528585856080518660a05101010101010161188f565b606089015260e08484846080518560a0510101010101015160808901526080519060a05101010101010151926001600160401b0384116100b3576113918f60608f9196602097968a8e8a809a01956080519060a0510101010101010161184a565b60a08201528152019101906111ad565b83516001600160401b0381116100b35782876080518d60a051010101010160a08d82603f19910301126100b357604051916113db83611551565b606082015160068110156100b35783526113f76080830161188f565b602084015261140860a0830161188f565b604084015260c0820151606084015260e0820151926001600160401b0384116100b3576114418f9360606020968780970192010161184a565b60808201528152019301926110f4565b3d9150816000823e61146382826115f3565b60208183810103126100b35780516001600160401b0381116100b35761148c9282019101611a50565b82610310565b3d9150816000823e6114a482826115f3565b60208183810103126100b35780516001600160401b0381116100b3576114cd92820191016119a5565b82610276565b6020906114de61168e565b8282850101520161020f565b60405162461bcd60e51b815260206004820152600e60248201526d656d70747920726573706f6e736560901b6044820152606490fd5b60c081019081106001600160401b0382111761153b57604052565b634e487b7160e01b600052604160045260246000fd5b60a081019081106001600160401b0382111761153b57604052565b608081019081106001600160401b0382111761153b57604052565b60e081019081106001600160401b0382111761153b57604052565b604081019081106001600160401b0382111761153b57604052565b602081019081106001600160401b0382111761153b57604052565b606081019081106001600160401b0382111761153b57604052565b90601f801991011681019081106001600160401b0382111761153b57604052565b6001600160401b03811161153b57601f01601f191660200190565b60005b8381106116425750506000910152565b8181015183820152602001611632565b9060209161166b8151809281855285808601910161162f565b601f01601f1916010190565b6001600160401b03811161153b5760051b60200190565b6040519061169b82611520565b606060a083600081526000602082015260006040820152600083820152600060808201520152565b8051156116d05760200190565b634e487b7160e01b600052603260045260246000fd5b80518210156116d05760209160051b010190565b60001981146117095760010190565b634e487b7160e01b600052601160045260246000fd5b6040519061172c826115a2565b6000825260405160208361173f836115bd565b600083520152565b61174f61171f565b5061175861171f565b506000604051611767816115bd565b52604051611774816115bd565b6000815260405191611785836115a2565b6001600160801b03191680835260208301918252156117f85751516117a75790565b60405162461bcd60e51b815260206004820152602360248201527f696d706572736f6e6174696f6e206d6f6465206973206e6f7420737570706f726044820152621d195960ea1b6064820152608490fd5b60405162461bcd60e51b815260206004820152601560248201527461707049642063616e6e6f7420626520656d70747960581b6044820152606490fd5b51906001600160801b0319821682036100b357565b81601f820112156100b357805161186081611614565b9261186e60405194856115f3565b818452602082840101116100b35761188c916020808501910161162f565b90565b519081151582036100b357565b9060068210156118a95752565b634e487b7160e01b600052602160045260246000fd5b9060058210156118a95752565b908082519081815260208091019281808460051b8301019501936000915b8483106118fa5750505050505090565b909192939495848061195f600193601f198682030187528a5161191e82825161189c565b838101518483015260408082015115159083015260608082015115159083015260808082015115159083015260a0809101519160c080928201520190611652565b98019301930191949392906118ea565b61188c9160406119888351606084526060840190611652565b926020810151151560208401520151906040818403910152611652565b919060c0838203126100b357604051906119be82611520565b8193805160068110156100b3578352602081015160208401526119e36040820161188f565b60408401526119f46060820161188f565b6060840152611a056080820161188f565b608084015260a0810151916001600160401b0383116100b35760a092611a2b920161184a565b910152565b60405190611a3d826115d8565b6060604083828152600060208201520152565b91906060838203126100b35760405190611a69826115d8565b81938051916001600160401b03928381116100b35781611a8a91840161184a565b8452611a986020830161188f565b602085015260408201519283116100b357604092611a2b920161184a565b6000805b6060830180518051831015611b1f5782611ad3916116e6565b51516006811015611b0b5715611af65750611aef6060916116fa565b9050611aba565b60409350611b059250516116e6565b51015190565b634e487b7160e01b84526021600452602484fd5b60405163267ac2cf60e01b815260048101859052602490fdfea2646970667358221220783e7655b14e79b8780841a4fcbf7ebad38d2550fc7d7840e6347f553217b82b64736f6c63430008130033",
  "devdoc": {
    "kind": "dev",
    "methods": {},
    "version": 1
  },
  "userdoc": {
    "kind": "user",
    "methods": {},
    "version": 1
  },
  "storageLayout": {
    "storage": [
      {
        "astId": 185,
        "contract": "contracts/SismoVerifier.sol:SismoVerifier",
        "label": "APP_ID",
        "offset": 0,
        "slot": "0",
        "type": "t_bytes16"
      }
    ],
    "types": {
      "t_bytes16": {
        "encoding": "inplace",
        "label": "bytes16",
        "numberOfBytes": "16"
      }
    }
  }
}