{
  "address": "0xD69CD918AA6B616A302eCF5975886a85512076Cf",
  "abi": [
    {
      "inputs": [
        {
          "internalType": "uint256",
          "name": "",
          "type": "uint256"
        }
      ],
      "name": "allVaultIds",
      "outputs": [
        {
          "internalType": "bytes32",
          "name": "",
          "type": "bytes32"
        }
      ],
      "stateMutability": "view",
      "type": "function"
    },
    {
      "inputs": [
        {
          "internalType": "bytes32",
          "name": "encryptedVaultId",
          "type": "bytes32"
        },
        {
          "internalType": "bytes32",
          "name": "appId",
          "type": "bytes32"
        }
      ],
      "name": "getWalletInfo",
      "outputs": [
        {
          "internalType": "bytes",
          "name": "",
          "type": "bytes"
        }
      ],
      "stateMutability": "view",
      "type": "function"
    },
    {
      "inputs": [
        {
          "internalType": "bytes32",
          "name": "encryptedVaultId",
          "type": "bytes32"
        },
        {
          "internalType": "bytes32",
          "name": "appId",
          "type": "bytes32"
        },
        {
          "internalType": "bytes",
          "name": "walletInfo",
          "type": "bytes"
        }
      ],
      "name": "setWalletInfo",
      "outputs": [],
      "stateMutability": "nonpayable",
      "type": "function"
    }
  ],
  "transactionHash": "0x5ba746bd4d7f2ad7057c717aafd8ffa8a5fb8d23312ce43dd012697561b23e15",
  "args": [],
  "numDeployments": 1,
  "solcInputHash": "1cffb23759b4efdda5eecef7d2035b73",
  "bytecode": "0x60808060405234610016576104e2908161001c8239f35b600080fdfe6040608081526004908136101561001557600080fd5b600091823560e01c8063018f6e4c146103b55780631e052ed5146102a357633ffe9e821461004257600080fd5b3461029b57606036600319011261029b5780359160249081356044359167ffffffffffffffff9182841161029f573660238501121561029f5783860135918383116102475780519189602096601f19956100a38988601f840116018761043a565b808652368a828401011161029b57808a8a93018388013785010152808a52898652818a20898b5286526100d8828b2054610472565b610259578952888552808920888a528552882093815193841161024757908392916101038654610472565b601f81116101f5575b508092601f85116001146101945750508892610189575b50508160011b916000199060031b1c19161790555b600154916801000000000000000083101561017857505080600161015f92016001556103ed565b819291549060031b91821b91600019901b191617905580f35b634e487b7160e01b85526041905283fd5b015190503880610123565b868b52818b209416908a905b8282106101dd5750509084600195949392106101c4575b505050811b019055610138565b015160001960f88460031b161c191690553880806101b7565b806001869782949787015181550196019401906101a0565b9091929350858a52818a20601f860160051c81019183871061023d575b90601f8796959493920160051c01905b81811061022f575061010c565b8b8155869550600101610222565b9091508190610212565b634e487b7160e01b8952604187528589fd5b815162461bcd60e51b8152808901879052601a818901527f57616c6c657420696e666f20616c7265616479206578697374730000000000006044820152606490fd5b8280fd5b8780fd5b5091346103b257816003193601126103b2576024358152602092818452828220903582528352818120908383518093839080546102df81610472565b8085529160019180831690811561038f5750600114610352575b50505061030c925095939295038261043a565b82519382859384528251928382860152825b84811061033c57505050828201840152601f01601f19168101030190f35b818101830151888201880152879550820161031e565b86528486209492508591905b81831061037757508894505082010161030c38806102f9565b8554888401850152948501948794509183019161035e565b9250505061030c94925060ff191682840152151560051b820101869238806102f9565b80fd5b503461029b57602036600319011261029b5735916001548310156103b257506103df6020926103ed565b91905490519160031b1c8152f35b6001548110156104245760016000527fb10e2d527612073b26eecdfd717e6a320cf44b4afac2b0732d9fcbe2b7fa0cf60190600090565b634e487b7160e01b600052603260045260246000fd5b90601f8019910116810190811067ffffffffffffffff82111761045c57604052565b634e487b7160e01b600052604160045260246000fd5b90600182811c921680156104a2575b602083101461048c57565b634e487b7160e01b600052602260045260246000fd5b91607f169161048156fea264697066735822122031d3a961d9a5dddf7567e171aca33209af1d5d83b2c4cd940135895237d80f1764736f6c63430008130033",
  "devdoc": {
    "kind": "dev",
    "methods": {},
    "version": 1
  },
  "userdoc": {
    "kind": "user",
    "methods": {},
    "version": 1
  },
  "storageLayout": {
    "storage": [
      {
        "astId": 7,
        "contract": "contracts/SismoPK.sol:SismoPK",
        "label": "vaults",
        "offset": 0,
        "slot": "0",
        "type": "t_mapping(t_bytes32,t_mapping(t_bytes32,t_bytes_storage))"
      },
      {
        "astId": 10,
        "contract": "contracts/SismoPK.sol:SismoPK",
        "label": "allVaultIds",
        "offset": 0,
        "slot": "1",
        "type": "t_array(t_bytes32)dyn_storage"
      }
    ],
    "types": {
      "t_array(t_bytes32)dyn_storage": {
        "base": "t_bytes32",
        "encoding": "dynamic_array",
        "label": "bytes32[]",
        "numberOfBytes": "32"
      },
      "t_bytes32": {
        "encoding": "inplace",
        "label": "bytes32",
        "numberOfBytes": "32"
      },
      "t_bytes_storage": {
        "encoding": "bytes",
        "label": "bytes",
        "numberOfBytes": "32"
      },
      "t_mapping(t_bytes32,t_bytes_storage)": {
        "encoding": "mapping",
        "key": "t_bytes32",
        "label": "mapping(bytes32 => bytes)",
        "numberOfBytes": "32",
        "value": "t_bytes_storage"
      },
      "t_mapping(t_bytes32,t_mapping(t_bytes32,t_bytes_storage))": {
        "encoding": "mapping",
        "key": "t_bytes32",
        "label": "mapping(bytes32 => mapping(bytes32 => bytes))",
        "numberOfBytes": "32",
        "value": "t_mapping(t_bytes32,t_bytes_storage)"
      }
    }
  }
}