{
  "address": "0xaD4f6a4eaD2FCd1371927E172c92683A2233Ee81",
  "abi": [
    {
      "inputs": [
        {
          "internalType": "enum AuthType",
          "name": "authType",
          "type": "uint8"
        }
      ],
      "name": "AuthTypeNotFoundInVerifiedResult",
      "type": "error"
    },
    {
      "inputs": [],
      "name": "ADDRESSES_PROVIDER_V2",
      "outputs": [
        {
          "internalType": "contract IAddressesProvider",
          "name": "",
          "type": "address"
        }
      ],
      "stateMutability": "view",
      "type": "function"
    },
    {
      "inputs": [],
      "name": "APP_ID",
      "outputs": [
        {
          "internalType": "bytes16",
          "name": "",
          "type": "bytes16"
        }
      ],
      "stateMutability": "view",
      "type": "function"
    },
    {
      "inputs": [],
      "name": "IS_IMPERSONATION_MODE",
      "outputs": [
        {
          "internalType": "bool",
          "name": "",
          "type": "bool"
        }
      ],
      "stateMutability": "view",
      "type": "function"
    },
    {
      "inputs": [],
      "name": "SISMO_CONNECT_LIB_VERSION",
      "outputs": [
        {
          "internalType": "uint256",
          "name": "",
          "type": "uint256"
        }
      ],
      "stateMutability": "view",
      "type": "function"
    },
    {
      "inputs": [
        {
          "internalType": "bytes16",
          "name": "_appId",
          "type": "bytes16"
        }
      ],
      "name": "config",
      "outputs": [
        {
          "components": [
            {
              "internalType": "bytes16",
              "name": "appId",
              "type": "bytes16"
            },
            {
              "components": [
                {
                  "internalType": "bool",
                  "name": "isImpersonationMode",
                  "type": "bool"
                }
              ],
              "internalType": "struct VaultConfig",
              "name": "vault",
              "type": "tuple"
            }
          ],
          "internalType": "struct SismoConnectConfig",
          "name": "",
          "type": "tuple"
        }
      ],
      "stateMutability": "pure",
      "type": "function"
    },
    {
      "inputs": [
        {
          "internalType": "bytes",
          "name": "sismoConnectResponse",
          "type": "bytes"
        },
        {
          "internalType": "address",
          "name": "_to",
          "type": "address"
        },
        {
          "internalType": "uint256",
          "name": "_value",
          "type": "uint256"
        },
        {
          "internalType": "bytes",
          "name": "_data",
          "type": "bytes"
        },
        {
          "internalType": "bytes16",
          "name": "_appId",
          "type": "bytes16"
        }
      ],
      "name": "sismoVerify",
      "outputs": [
        {
          "internalType": "uint256",
          "name": "",
          "type": "uint256"
        }
      ],
      "stateMutability": "view",
      "type": "function"
    }
  ],
  "transactionHash": "0x7edb94baa9558f14b81e6b134b081d0a58bb09ddf6095b9db76be14ba1519861",
  "args": [],
  "numDeployments": 1,
  "solcInputHash": "54c299417b8b0a53167126a3cd0550ef",
  "bytecode": "0x6101406040908082523462000377576000916101209183835262000023816200037c565b6019815260207f7369736d6f436f6e6e65637456657269666965722d76312e320000000000000081830152825191826200006c63349f642f60e11b9283835260048301620003f3565b038284733cd5334eb64ebbd4003b72022cc25465f1bfcee69281845afa9384156200036d57879462000349575b506001600160a01b039384166080528451620000f8908490620000bc816200037c565b601781527f61757468526571756573744275696c6465722d76312e310000000000000000008282015287518093819287835260048301620003f3565b0381855afa908115620002fb57908591899162000327575b501660a0526200016383865162000127816200037c565b601881527f636c61696d526571756573744275696c6465722d76312e3100000000000000008282015287518093819287835260048301620003f3565b0381855afa908115620002fb57908591899162000305575b501660c052620001ce83865162000192816200037c565b601581527f7369676e61747572654275696c6465722d76312e3100000000000000000000008282015287518093819287835260048301620003f3565b0381855afa908115620002fb5791858594926200023e96948b91620002d9575b501660e05286519162000201836200037c565b601383527f726571756573744275696c6465722d76312e3100000000000000000000000000848401528751809681948293835260048301620003f3565b03915afa958615620002ce579562000298575b5050610100931683525190611e5392836200043f843960805183610bbd015260a051836101df015260c05183505060e051836102ae01525182610a2f0152518161176c0152f35b620002bd929550803d10620002c6575b620002b48183620003ae565b810190620003d2565b92388062000251565b503d620002a8565b8451903d90823e3d90fd5b620002f49150853d8711620002c657620002b48183620003ae565b38620001ee565b86513d8a823e3d90fd5b620003209150853d8711620002c657620002b48183620003ae565b386200017b565b620003429150853d8711620002c657620002b48183620003ae565b3862000110565b62000365919450833d8511620002c657620002b48183620003ae565b923862000099565b85513d89823e3d90fd5b600080fd5b604081019081106001600160401b038211176200039857604052565b634e487b7160e01b600052604160045260246000fd5b601f909101601f19168101906001600160401b038211908210176200039857604052565b908160209103126200037757516001600160a01b0381168103620003775790565b6020808252825181830181905290939260005b8281106200042957505060409293506000838284010152601f8019910116010190565b8181018601518482016040015285016200040656fe61024080604052600436101561001457600080fd5b60003560e01c908163469163011461179157508063a183dc2714611754578063a6213ae714610103578063c187bbc1146100d8578063c9512d99146100bc5763e88c88971461006257600080fd5b346100b75760203660031901126100b7576004356001600160801b0319811681036100b757610092604091611a4c565b6100b582518092602080916001600160801b031981511684520151511515910152565bf35b600080fd5b346100b75760003660031901126100b757602060405160028152f35b346100b75760003660031901126100b757602060005460801b604051906001600160801b0319168152f35b346100b75760a03660031901126100b7576004356001600160401b0381116100b7576101339036906004016118cd565b6080526024356001600160a01b03811690036100b7576064356001600160401b0381116100b7576101689036906004016118cd565b6084356001600160801b0319811690036100b757608051511561171e576040519061019282611840565b6001825260005b60208110156101b9576020906101ad61192b565b82828601015201610199565b506101c261192b565b50604051633a0ba6ff60e01b8152600060048201819052816024817f00000000000000000000000000000000000000000000000000000000000000006001600160a01b03165afa90811561118a576000916116dd575b5061022283611960565b5261022c82611960565b506102aa60006040516bffffffffffffffffffffffff1960243560601b166020820152604435603482015261027f605482865161026f8184840160208b01611997565b8101036034810184520182611891565b610287611d15565b5060405180938192631a0d7ccb60e21b8352602060048401526024830190611b5c565b03817f00000000000000000000000000000000000000000000000000000000000000006001600160a01b03165afa90811561118a5760009161169c575b50606060a06040516102f8816117be565b6000815260006020820152600060408201528280820152826080820152015260805180518101610220526020816102205103126100b7576020810151610100526001600160401b0361010051116100b75760a09061010051016102205103126100b75760405190610368826117ef565b61037b6020610100516080510101611b3a565b82526103906040610100516080510101611b3a565b6020830152606061010051608051010151604083015261010051608051016080810151906001600160401b0382116100b75760206103d6928161022051019201016119df565b6060830152610100516080510160a081015160c0526001600160401b0360c051116100b75760206102205101603f60c05183010112156100b75760c05101602001519361042285611914565b61042f6040519182611891565b8061012052858152602081016101205260c0516101005160805101016020610220510160408860051b830101116100b7576040016101405285858486855b60c05161010051608051010160408660051b8201016101405110156109ba5761014051516101c0526001600160401b036101c051116100b75760a090601f19906101c05101610220510301126100b7576040516101a0526104d06101a0516117ef565b6101c05160c05161010051608051010101604081015160e0526001600160401b0360e051116100b75760206102205101605f60e05183010112156100b75760409060e0510101516101605261052761016051611914565b956105356040519788611891565b610160518752602087019360e0516101c05160c0516101005160805101010101610200526020610220510160606101605160051b610200510101116100b75760606102005101945b60e0516101c05160c05161010051608051010101019060606101605160051b8301018710156106be578651916001600160401b0383116100b7576102205160a09184019003603f1901126100b757604051916105d8836117ef565b60608160e0516101c05160c051610100516080510101010101015160068110156100b757835261061f60808260e0516101c05160c051610100518551010101010101611b4f565b602084015261064660a08260e0516101c05160c05161010051608051010101010101611b4f565b604084015260c08160e0516101c05183516101005160805101010101010151606084015260e0516101c05160c0516101005160805101010101019060e0820151926001600160401b0384116100b7576106ae60209493606086958661022051019201016119df565b608082015281520195019461057d565b5050935093909491956101a051526101c05160c05161010051608051010101606081015160a0526001600160401b0360a051116100b75760206102205101605f60a05183010112156100b75760409060a0510101516101805261072361018051611914565b956107316040519788611891565b610180518752602087019360a0516101c05160c05161010051608051010101016101e0526020610220510160606101805160051b6101e0510101116100b75760606101e05101945b60a0516101c05160c05161010051608051010101019060606101805160051b8301018710156108e1578651916001600160401b0383116100b7576102205160c09184019003603f1901126100b757604051916107d4836117be565b60608160a0516101c05160c051610100516080510101010101015160058110156100b757835261081b60808260a0516101c05160c051610100518551010101010101611b3a565b602084015261084160a08281516101c05160c05161010051608051010101010101611b3a565b604084015261086760c08260a0516101c051835161010051608051010101010101611b4f565b606084015260e08160a0516101c05160c0516101005160805101010101010151608084015260a0516101c05160c05161010051608051010101010190610100820151926001600160401b0384116100b7576108d160209493606086958661022051019201016119df565b60a0820152815201950194610779565b50509350939094919560206101a051015260806101c05160c051610100518351010101015160406101a05101526101c05160c0516101005160805101010160a0810151906001600160401b0382116100b757604061094892602061022051019201016119df565b60606101a05101526101c05160c0516101005160805101010160c0810151906001600160401b0382116100b757604061098a92602061022051019201016119df565b60806101a05101526101a0516101205152602061012051016101205260206101405101610140529493929061046d565b50916000610a1985948860808601526040516109d58161180a565b838152606060208201526060604082015260606109f0611d15565b910152610a2b6040519485938493632ceb1e8d60e01b8552604060048601526044850190611bb1565b83810360031901602485015290611c54565b03817f00000000000000000000000000000000000000000000000000000000000000006001600160a01b03165afa90811561118a576000916113d8575b5090610a75608435611a4c565b906040519283916312b037ff60e01b8352608060048401526001600160801b031981511660848401526001600160801b031960208201511660a4840152604081015160c48401526080610ad8606083015160a060e4870152610124860190611b5c565b9101519060831984820301610104850152815180825260208201916020808360051b8301019401926000915b83831061122e5750505050506003198382030160248401526001600160801b03198251168152610b436020830151608060208401526080830190611bb1565b916040810151928281036040840152835180825260208201916020808360051b8301019601926000915b838310611196575050505050610b988493600096936060610bb9940151906060818403910152611c54565b82516001600160801b03191660448501526020909201515115156064840152565b03817f00000000000000000000000000000000000000000000000000000000000000006001600160a01b03165afa90811561118a57600091610de8575b5060608101515191610c0783611914565b92610c156040519485611891565b808452610c24601f1991611914565b0160005b818110610daf57505060005b60608301518051821015610c715790610c5081610c6c93611983565b51610c5b8287611983565b52610c668186611983565b506119ba565b610c34565b505060a0610c7e83611d9b565b92015180518101906060818303126100b75760208101516001600160a01b03811692908390036100b7576040820151916060810151916001600160401b0383116100b757610cd39260208092019201016119df565b916024356001600160a01b031603610d755760443503610d405760208151910120906020815191012003610d0c57602090604051908152f35b60405162461bcd60e51b815260206004820152600c60248201526b496e76616c6964206461746160a01b6044820152606490fd5b60405162461bcd60e51b815260206004820152600d60248201526c496e76616c69642076616c756560981b6044820152606490fd5b60405162461bcd60e51b8152602060048201526012602482015271496e76616c696420746f206164647265737360701b6044820152606490fd5b602090604051610dbe816117ef565b60008152600083820152600060408201526060808201526060608082015282828801015201610c28565b90503d806000833e610dfa8183611891565b60208282810103126100b7578151916001600160401b0383116100b75760c083820183830103126100b75760405192610e32846117be565b610e3d818301611b3a565b8452610e4d602082840101611b3a565b602085015281810160408181015190860152606001516001600160401b0381116100b757838301601f82848601010112156100b757808284010151610e9181611914565b91610e9f6040519384611891565b8183526020830186860160208460051b84888a01010101116100b7576020828688010101905b60208460051b84888a0101010182106110a057505050506060850152608081830101516001600160401b0381116100b757838301601f82848601010112156100b757808284010151610f1681611914565b91610f246040519384611891565b8183526020830186860160208460051b84888a01010101116100b7576020828688010101905b60208460051b84888a010101018210610f955750505050608085015260a08183010151906001600160401b0382116100b757610f8a9383019201016119df565b60a082015282610bf6565b81516001600160401b0381116100b75760e0888801850182018a8a0103601f1901126100b75760405191610fc883611825565b602082868a8c010101015160058110156100b7578352610ff0604083878b8d01010101611b3a565b6020840152611007606083878b8d01010101611b3a565b6040840152888801850182016080810151606085015260a001516001600160401b0381116100b757611047908b8b01908a8c0188018501016020016119df565b60808401528888018501820160c081015160a085015260e00151906001600160401b0382116100b75760209361108e8b868096958f968b8f849986019501010101016119df565b60c08201528152019201919050610f4a565b81516001600160401b0381116100b75760a0888801850182018a8a0103601f1901126100b757604051916110d3836117ef565b602082868a8c010101015160068110156100b75783526110fb604083878b8d01010101611b4f565b60208401528888018501820160608101516040850152608001516001600160401b0381116100b75761113b908b8b01908a8c0188018501016020016119df565b606084015260a082868a8c0101010151906001600160401b0382116100b7576020936111788b868096958f968b8f849986019501010101016119df565b60808201528152019201919050610ec5565b6040513d6000823e3d90fd5b919397509193949560208061121a600193601f1986820301875260e08c51916111c0818451611ba4565b6001600160801b03198584015116858201526001600160801b031960408401511660408201526060830151606082015260808301511515608082015260a0830151151560a08201528160c080940151938201520190611b5c565b990193019301909289979695949293610b6d565b91939596509193601f1982820301835285519060a0810182519060a08352815180915260c08301602060c08360051b86010193019160005b818110611375575050505060208301519082810360208401528151808252602082016020808360051b85010194019260005b8381106112f45750505050506112e18360209360806112d0869560406001990151604085015260608501518482036060860152611b5c565b920151906080818403910152611b5c565b9701930193019092889695949293610b04565b9091929394602080611368600193601f1987820301885260c060a08b5161131c848251611ba4565b6001600160801b03198682015116868501526001600160801b03196040820151166040850152606081015115156060850152608081015160808501520151918160a08201520190611b5c565b9701959401929101611298565b909192936020806113cc60019360bf198a820301885260a060808a5161139c848251611b81565b85810151151586850152604081015115156040850152606081015160608501520151918160808201520190611b5c565b96019401929101611266565b90503d806000833e6113ea8183611891565b60208282810103126100b7578151916001600160401b0383116100b757608083820183830103126100b757604051926114228461180a565b61142d818301611b3a565b8452602081830101516001600160401b0381116100b757838301601f82848601010112156100b75780828401015161146481611914565b916114726040519384611891565b8183526020830186860160208460051b84888a01010101116100b7576020828688010101905b60208460051b84888a01010101821061166257505050506020850152604081830101516001600160401b0381116100b757838301601f82848601010112156100b7578082840101516114e981611914565b916114f76040519384611891565b8183526020830186860160208460051b84888a01010101116100b7576020828688010101905b60208460051b84888a0101010182106115685750505050604085015260608183010151906001600160401b0382116100b75761155d938301920101611d35565b606082015283610a68565b81516001600160401b0381116100b75760e0888801850182018a8a0103601f1901126100b7576040519161159b83611825565b602082868a8c010101015160058110156100b75783526115c3604083878b8d01010101611b3a565b60208401526115da606083878b8d01010101611b3a565b604084015288880185018201608081015160608501526115fc9060a001611b4f565b608084015261161360c083878b8d01010101611b4f565b60a084015260e082868a8c0101010151906001600160401b0382116100b7576020936116508b868096958f968b8f849986019501010101016119df565b60c0820152815201920191905061151d565b8151906001600160401b0382116100b757602080929161168f8a838095898f8e9085019401010101611c8a565b8152019201919050611498565b3d9150816000823e6116ae8282611891565b60208183810103126100b75780516001600160401b0381116100b7576116d79282019101611d35565b836102e7565b3d9150816000823e6116ef8282611891565b60208183810103126100b75780516001600160401b0381116100b7576117189282019101611c8a565b83610218565b60405162461bcd60e51b815260206004820152600e60248201526d656d70747920726573706f6e736560901b6044820152606490fd5b346100b75760003660031901126100b75760206040517f000000000000000000000000000000000000000000000000000000000000000015158152f35b346100b75760003660031901126100b75780733cd5334eb64ebbd4003b72022cc25465f1bfcee660209252f35b60c081019081106001600160401b038211176117d957604052565b634e487b7160e01b600052604160045260246000fd5b60a081019081106001600160401b038211176117d957604052565b608081019081106001600160401b038211176117d957604052565b60e081019081106001600160401b038211176117d957604052565b604081019081106001600160401b038211176117d957604052565b602081019081106001600160401b038211176117d957604052565b606081019081106001600160401b038211176117d957604052565b90601f801991011681019081106001600160401b038211176117d957604052565b6001600160401b0381116117d957601f01601f191660200190565b81601f820112156100b7578035906118e4826118b2565b926118f26040519485611891565b828452602083830101116100b757816000926020809301838601378301015290565b6001600160401b0381116117d95760051b60200190565b60405190611938826117be565b606060a083600081526000602082015260006040820152600083820152600060808201520152565b80511561196d5760200190565b634e487b7160e01b600052603260045260246000fd5b805182101561196d5760209160051b010190565b60005b8381106119aa5750506000910152565b818101518382015260200161199a565b60001981146119c95760010190565b634e487b7160e01b600052601160045260246000fd5b81601f820112156100b75780516119f5816118b2565b92611a036040519485611891565b818452602082840101116100b757611a219160208085019101611997565b90565b60405190611a3182611840565b60008252604051602083611a448361185b565b600083520152565b611a54611a24565b50611a5d611a24565b506000604051611a6c8161185b565b52604051611a798161185b565b6000815260405191611a8a83611840565b6001600160801b0319168083526020830191825215611afd575151611aac5790565b60405162461bcd60e51b815260206004820152602360248201527f696d706572736f6e6174696f6e206d6f6465206973206e6f7420737570706f726044820152621d195960ea1b6064820152608490fd5b60405162461bcd60e51b815260206004820152601560248201527461707049642063616e6e6f7420626520656d70747960581b6044820152606490fd5b51906001600160801b0319821682036100b757565b519081151582036100b757565b90602091611b7581518092818552858086019101611997565b601f01601f1916010190565b906006821015611b8e5752565b634e487b7160e01b600052602160045260246000fd5b906005821015611b8e5752565b908082519081815260208091019281808460051b8301019501936000915b848310611bdf5750505050505090565b9091929394958480611c44600193601f198682030187528a51611c03828251611b81565b838101518483015260408082015115159083015260608082015115159083015260808082015115159083015260a0809101519160c080928201520190611b5c565b9801930193019194939290611bcf565b611a21916040611c6d8351606084526060840190611b5c565b926020810151151560208401520151906040818403910152611b5c565b919060c0838203126100b75760405190611ca3826117be565b8193805160068110156100b757835260208101516020840152611cc860408201611b4f565b6040840152611cd960608201611b4f565b6060840152611cea60808201611b4f565b608084015260a0810151916001600160401b0383116100b75760a092611d1092016119df565b910152565b60405190611d2282611876565b6060604083828152600060208201520152565b91906060838203126100b75760405190611d4e82611876565b81938051916001600160401b03928381116100b75781611d6f9184016119df565b8452611d7d60208301611b4f565b602085015260408201519283116100b757604092611d1092016119df565b6000805b6060830180518051831015611e045782611db891611983565b51516006811015611df05715611ddb5750611dd46060916119ba565b9050611d9f565b60409350611dea925051611983565b51015190565b634e487b7160e01b84526021600452602484fd5b60405163267ac2cf60e01b815260048101859052602490fdfea264697066735822122009763c09d44f24b4ee726a920449d06895f5be037471183e9f2643e3763f426864736f6c63430008130033",
  "devdoc": {
    "kind": "dev",
    "methods": {},
    "version": 1
  },
  "userdoc": {
    "kind": "user",
    "methods": {},
    "version": 1
  },
  "storageLayout": {
    "storage": [
      {
        "astId": 470,
        "contract": "contracts/SismoVerifier.sol:SismoVerifier",
        "label": "APP_ID",
        "offset": 0,
        "slot": "0",
        "type": "t_bytes16"
      }
    ],
    "types": {
      "t_bytes16": {
        "encoding": "inplace",
        "label": "bytes16",
        "numberOfBytes": "16"
      }
    }
  }
}