{
  "_format": "hh-sol-artifact-1",
  "contractName": "SismoAA",
  "sourceName": "contracts/SismoAA.sol",
  "abi": [
    {
      "inputs": [
        {
          "internalType": "bytes32",
          "name": "_owner",
          "type": "bytes32"
        },
        {
          "internalType": "address",
          "name": "_verifierContract",
          "type": "address"
        }
      ],
      "stateMutability": "nonpayable",
      "type": "constructor"
    },
    {
      "inputs": [
        {
          "internalType": "bytes",
          "name": "sismoConnectResponse",
          "type": "bytes"
        },
        {
          "internalType": "address",
          "name": "_to",
          "type": "address"
        },
        {
          "internalType": "uint256",
          "name": "_value",
          "type": "uint256"
        },
        {
          "internalType": "bytes",
          "name": "_data",
          "type": "bytes"
        },
        {
          "internalType": "bytes16",
          "name": "_appId",
          "type": "bytes16"
        },
        {
          "internalType": "bytes32",
          "name": "_nonce",
          "type": "bytes32"
        }
      ],
      "name": "executeTransaction",
      "outputs": [
        {
          "internalType": "bool",
          "name": "",
          "type": "bool"
        }
      ],
      "stateMutability": "nonpayable",
      "type": "function"
    },
    {
      "inputs": [
        {
          "internalType": "bytes32",
          "name": "",
          "type": "bytes32"
        }
      ],
      "name": "nonce",
      "outputs": [
        {
          "internalType": "bool",
          "name": "",
          "type": "bool"
        }
      ],
      "stateMutability": "view",
      "type": "function"
    },
    {
      "inputs": [],
      "name": "owner",
      "outputs": [
        {
          "internalType": "bytes32",
          "name": "",
          "type": "bytes32"
        }
      ],
      "stateMutability": "view",
      "type": "function"
    },
    {
      "inputs": [
        {
          "internalType": "bytes",
          "name": "sismoConnectResponse",
          "type": "bytes"
        },
        {
          "internalType": "address",
          "name": "_to",
          "type": "address"
        },
        {
          "internalType": "uint256",
          "name": "_value",
          "type": "uint256"
        },
        {
          "internalType": "bytes",
          "name": "_data",
          "type": "bytes"
        },
        {
          "internalType": "bytes16",
          "name": "_appId",
          "type": "bytes16"
        }
      ],
      "name": "testSismoVerify",
      "outputs": [
        {
          "internalType": "uint256",
          "name": "",
          "type": "uint256"
        }
      ],
      "stateMutability": "view",
      "type": "function"
    },
    {
      "inputs": [],
      "name": "verifierContract",
      "outputs": [
        {
          "internalType": "address",
          "name": "",
          "type": "address"
        }
      ],
      "stateMutability": "view",
      "type": "function"
    },
    {
      "stateMutability": "payable",
      "type": "receive"
    }
  ],
  "bytecode": "0x60803461007e57601f61068738819003918201601f19168301916001600160401b0383118484101761008357808492604094855283398101031261007e5780516020909101516001600160a01b038116919082900361007e57600055600180546001600160a01b0319169190911790556040516105ed908161009a8239f35b600080fd5b634e487b7160e01b600052604160045260246000fdfe604060808152600436101561001d575b50361561001b57600080fd5b005b600090813560e01c80635eb6adcd146101ce5780638da5cb5b146101b2578063905da30f14610185578063cf6956881461015d5763ed9d479514610061575061000f565b346101595760a03660031901126101595767ffffffffffffffff906004358281116101555761009490369060040161049d565b9161009d6104e9565b606435918211610151576100b7602092369060040161049d565b906100c06104ff565b9460018060a01b0360015416916100f086519788958694859463a6213ae760e01b8652604435916004870161055f565b03915afa91821561014757839261010c575b6020838351908152f35b9091506020813d821161013f575b8161012760209383610449565b8101031261013b5760209250519038610102565b8280fd5b3d915061011a565b81513d85823e3d90fd5b8480fd5b8380fd5b5080fd5b503461015957816003193601126101595760015490516001600160a01b039091168152602090f35b50346101595760203660031901126101595760ff8160209360043581526002855220541690519015158152f35b5034610159578160031936011261015957602091549051908152f35b50346101595760c03660031901126101595767ffffffffffffffff916004358381116101595761020290369060040161049d565b61020a6104e9565b6064359480861161015557602061022861026097369060040161049d565b936102316104ff565b908560018060a01b03600154169189519a8b948593849363a6213ae760e01b85528a604435916004870161055f565b03915afa95861561043f57849661040b575b5085156103d55760a435808552600260205260ff868620541661039c5784526002602052848420600160ff198254161790558451956020870190815260208752858701918783109083111761038857818652865190208454036103575750818392916020849351920190604435905af1903d15610351573d906102f482610481565b9161030185519384610449565b825260203d92013e5b15610319576020905160018152f35b5162461bcd60e51b8152602060048201526012602482015271151c985b9cd858dd1a5bdb8819985a5b195960721b6044820152606490fd5b5061030a565b6064906c2737ba103a34329037bbb732b960991b60848862461bcd60e51b845260206044820152600d858201520152fd5b634e487b7160e01b85526041600452602485fd5b855162461bcd60e51b8152602060048201526012602482015271139bdb98d948185b1c9958591e481d5cd95960721b6044820152606490fd5b845162461bcd60e51b815260206004820152600f60248201526e125b9d985b1a59081d985d5b1d1259608a1b6044820152606490fd5b9095506020813d602011610437575b8161042760209383610449565b8101031261015557519438610272565b3d915061041a565b85513d86823e3d90fd5b90601f8019910116810190811067ffffffffffffffff82111761046b57604052565b634e487b7160e01b600052604160045260246000fd5b67ffffffffffffffff811161046b57601f01601f191660200190565b81601f820112156104e4578035906104b482610481565b926104c26040519485610449565b828452602083830101116104e457816000926020809301838601378301015290565b600080fd5b602435906001600160a01b03821682036104e457565b608435906fffffffffffffffffffffffffffffffff19821682036104e457565b919082519283825260005b84811061054b575050826000602080949584010152601f8019910116010190565b60208183018101518483018201520161052a565b9360809361057c61059e949398979860a0885260a088019061051f565b6001600160a01b0390931660208701526040860152848203606086015261051f565b936fffffffffffffffffffffffffffffffff191691015256fea26469706673582212203a100a77cf25275fa9929b9a512414b5f9ef49fdae0a314134ed38ac56e68d8d64736f6c63430008130033",
  "linkReferences": {},
  "deployedLinkReferences": {}
}