{
    "_format": "hh-sol-artifact-1",
    "contractName": "SismoAAFactory",
    "sourceName": "contracts/SismoAAFactory.sol",
    "abi": [
        {
            "inputs": [
                {
                    "internalType": "address",
                    "name": "_verifierContract",
                    "type": "address"
                }
            ],
            "stateMutability": "nonpayable",
            "type": "constructor"
        },
        {
            "inputs": [
                {
                    "internalType": "bytes32",
                    "name": "",
                    "type": "bytes32"
                }
            ],
            "name": "accounts",
            "outputs": [
                {
                    "internalType": "address",
                    "name": "",
                    "type": "address"
                }
            ],
            "stateMutability": "view",
            "type": "function"
        },
        {
            "inputs": [
                {
                    "internalType": "bytes32",
                    "name": "_owner",
                    "type": "bytes32"
                }
            ],
            "name": "createAA",
            "outputs": [
                {
                    "internalType": "address",
                    "name": "",
                    "type": "address"
                }
            ],
            "stateMutability": "nonpayable",
            "type": "function"
        },
        {
            "inputs": [
                {
                    "internalType": "uint256",
                    "name": "",
                    "type": "uint256"
                }
            ],
            "name": "deployedAA",
            "outputs": [
                {
                    "internalType": "address",
                    "name": "",
                    "type": "address"
                }
            ],
            "stateMutability": "view",
            "type": "function"
        },
        {
            "inputs": [
                {
                    "internalType": "bytes32",
                    "name": "_owner",
                    "type": "bytes32"
                }
            ],
            "name": "getAAForVaultId",
            "outputs": [
                {
                    "internalType": "address",
                    "name": "",
                    "type": "address"
                }
            ],
            "stateMutability": "view",
            "type": "function"
        },
        {
            "inputs": [],
            "name": "getDeployedAA",
            "outputs": [
                {
                    "internalType": "address[]",
                    "name": "",
                    "type": "address[]"
                }
            ],
            "stateMutability": "view",
            "type": "function"
        },
        {
            "inputs": [],
            "name": "verifierContract",
            "outputs": [
                {
                    "internalType": "address",
                    "name": "",
                    "type": "address"
                }
            ],
            "stateMutability": "view",
            "type": "function"
        }
    ],
    "bytecode": "0x60803461007457601f610ab738819003918201601f19168301916001600160401b038311848410176100795780849260209460405283398101031261007457516001600160a01b0381169081900361007457600080546001600160a01b031916919091179055604051610a2790816100908239f35b600080fd5b634e487b7160e01b600052604160045260246000fdfe6040608081526004908136101561001557600080fd5b600091823560e01c806325dbc22b146102da5780639550a09d146101e4578063b870b0c9146100f6578063bc529c43146100c4578063cf695688146100985763fc4450de1461006357600080fd5b346100945760203660031901126100945735825260026020908152918190205490516001600160a01b039091168152f35b8280fd5b5050346100c057816003193601126100c057905490516001600160a01b039091168152602090f35b5080fd5b50346100945760203660031901126100945735825260026020908152918190205490516001600160a01b039091168152f35b50903461009457826003193601126100945780518060019485549384835260208080940180968985527fb10e2d527612073b26eecdfd717e6a320cf44b4afac2b0732d9fcbe2b7fa0cf6908a865b8281106101c65750505050859003601f01601f1916850196905067ffffffffffffffff8711858810176101b3575092869284878096528186019282875251809352850195925b8281106101975785870386f35b83516001600160a01b031687529581019592810192840161018a565b634e487b7160e01b835260419052602482fd5b83546001600160a01b03168552889590940193928101928101610144565b509190346100c05760203660031901126100c057815481516001600160a01b039391853591906106878083019187169067ffffffffffffffff8311848410176102c757918391879361036b8439858252602082015203019083f080156102bd57841693600154680100000000000000008110156102aa576020965090610273826001879695940160015561031d565b819291549060031b9188831b921b191617905581526002855220826bffffffffffffffffffffffff60a01b82541617905551908152f35b634e487b7160e01b845260418752602484fd5b83513d84823e3d90fd5b634e487b7160e01b865260418952602486fd5b503461009457602036600319011261009457359160015483101561031a575061030460209261031d565b905491519160018060a01b039160031b1c168152f35b80fd5b6001548110156103545760016000527fb10e2d527612073b26eecdfd717e6a320cf44b4afac2b0732d9fcbe2b7fa0cf60190600090565b634e487b7160e01b600052603260045260246000fdfe60803461007e57601f61068738819003918201601f19168301916001600160401b0383118484101761008357808492604094855283398101031261007e5780516020909101516001600160a01b038116919082900361007e57600055600180546001600160a01b0319169190911790556040516105ed908161009a8239f35b600080fd5b634e487b7160e01b600052604160045260246000fdfe604060808152600436101561001d575b50361561001b57600080fd5b005b600090813560e01c80635eb6adcd146101ce5780638da5cb5b146101b2578063905da30f14610185578063cf6956881461015d5763ed9d479514610061575061000f565b346101595760a03660031901126101595767ffffffffffffffff906004358281116101555761009490369060040161049d565b9161009d6104e9565b606435918211610151576100b7602092369060040161049d565b906100c06104ff565b9460018060a01b0360015416916100f086519788958694859463a6213ae760e01b8652604435916004870161055f565b03915afa91821561014757839261010c575b6020838351908152f35b9091506020813d821161013f575b8161012760209383610449565b8101031261013b5760209250519038610102565b8280fd5b3d915061011a565b81513d85823e3d90fd5b8480fd5b8380fd5b5080fd5b503461015957816003193601126101595760015490516001600160a01b039091168152602090f35b50346101595760203660031901126101595760ff8160209360043581526002855220541690519015158152f35b5034610159578160031936011261015957602091549051908152f35b50346101595760c03660031901126101595767ffffffffffffffff916004358381116101595761020290369060040161049d565b61020a6104e9565b6064359480861161015557602061022861026097369060040161049d565b936102316104ff565b908560018060a01b03600154169189519a8b948593849363a6213ae760e01b85528a604435916004870161055f565b03915afa95861561043f57849661040b575b5085156103d55760a435808552600260205260ff868620541661039c5784526002602052848420600160ff198254161790558451956020870190815260208752858701918783109083111761038857818652865190208454036103575750818392916020849351920190604435905af1903d15610351573d906102f482610481565b9161030185519384610449565b825260203d92013e5b15610319576020905160018152f35b5162461bcd60e51b8152602060048201526012602482015271151c985b9cd858dd1a5bdb8819985a5b195960721b6044820152606490fd5b5061030a565b6064906c2737ba103a34329037bbb732b960991b60848862461bcd60e51b845260206044820152600d858201520152fd5b634e487b7160e01b85526041600452602485fd5b855162461bcd60e51b8152602060048201526012602482015271139bdb98d948185b1c9958591e481d5cd95960721b6044820152606490fd5b845162461bcd60e51b815260206004820152600f60248201526e125b9d985b1a59081d985d5b1d1259608a1b6044820152606490fd5b9095506020813d602011610437575b8161042760209383610449565b8101031261015557519438610272565b3d915061041a565b85513d86823e3d90fd5b90601f8019910116810190811067ffffffffffffffff82111761046b57604052565b634e487b7160e01b600052604160045260246000fd5b67ffffffffffffffff811161046b57601f01601f191660200190565b81601f820112156104e4578035906104b482610481565b926104c26040519485610449565b828452602083830101116104e457816000926020809301838601378301015290565b600080fd5b602435906001600160a01b03821682036104e457565b608435906fffffffffffffffffffffffffffffffff19821682036104e457565b919082519283825260005b84811061054b575050826000602080949584010152601f8019910116010190565b60208183018101518483018201520161052a565b9360809361057c61059e949398979860a0885260a088019061051f565b6001600160a01b0390931660208701526040860152848203606086015261051f565b936fffffffffffffffffffffffffffffffff191691015256fea26469706673582212203a100a77cf25275fa9929b9a512414b5f9ef49fdae0a314134ed38ac56e68d8d64736f6c63430008130033a2646970667358221220ce1346b2f7a7d47de85ba56ab942da8030052246d99e5bfc35188d16136da70464736f6c63430008130033",
    "linkReferences": {},
    "deployedLinkReferences": {}
}