{
  "_format": "hh-sol-artifact-1",
  "contractName": "SismoConnect",
  "sourceName": "contracts/helpers/SismoConnectLib.sol",
  "abi": [
    {
      "inputs": [],
      "stateMutability": "nonpayable",
      "type": "constructor"
    },
    {
      "inputs": [],
      "name": "ADDRESSES_PROVIDER_V2",
      "outputs": [
        {
          "internalType": "contract IAddressesProvider",
          "name": "",
          "type": "address"
        }
      ],
      "stateMutability": "view",
      "type": "function"
    },
    {
      "inputs": [],
      "name": "APP_ID",
      "outputs": [
        {
          "internalType": "bytes16",
          "name": "",
          "type": "bytes16"
        }
      ],
      "stateMutability": "view",
      "type": "function"
    },
    {
      "inputs": [],
      "name": "IS_IMPERSONATION_MODE",
      "outputs": [
        {
          "internalType": "bool",
          "name": "",
          "type": "bool"
        }
      ],
      "stateMutability": "view",
      "type": "function"
    },
    {
      "inputs": [],
      "name": "SISMO_CONNECT_LIB_VERSION",
      "outputs": [
        {
          "internalType": "uint256",
          "name": "",
          "type": "uint256"
        }
      ],
      "stateMutability": "view",
      "type": "function"
    },
    {
      "inputs": [
        {
          "internalType": "bytes16",
          "name": "_appId",
          "type": "bytes16"
        }
      ],
      "name": "config",
      "outputs": [
        {
          "components": [
            {
              "internalType": "bytes16",
              "name": "appId",
              "type": "bytes16"
            },
            {
              "components": [
                {
                  "internalType": "bool",
                  "name": "isImpersonationMode",
                  "type": "bool"
                }
              ],
              "internalType": "struct VaultConfig",
              "name": "vault",
              "type": "tuple"
            }
          ],
          "internalType": "struct SismoConnectConfig",
          "name": "",
          "type": "tuple"
        }
      ],
      "stateMutability": "pure",
      "type": "function"
    }
  ],
  "bytecode": "0x61014060409080825234610330576000916101209183835261002081610335565b6019815260207f7369736d6f436f6e6e65637456657269666965722d76312e3200000000000000818301528251918261006763349f642f60e11b92838352600483016103a8565b038284733cd5334eb64ebbd4003b72022cc25465f1bfcee69281845afa938415610326578794610307575b506001600160a01b0393841660805284516100ed9084906100b281610335565b601781527f61757468526571756573744275696c6465722d76312e3100000000000000000082820152875180938192878352600483016103a8565b0381855afa9081156102c35790859189916102ea575b501660a05261015283865161011781610335565b601881527f636c61696d526571756573744275696c6465722d76312e31000000000000000082820152875180938192878352600483016103a8565b0381855afa9081156102c35790859189916102cd575b501660c0526101b783865161017c81610335565b601581527f7369676e61747572654275696c6465722d76312e31000000000000000000000082820152875180938192878352600483016103a8565b0381855afa9081156102c357918585949261022196948b916102a6575b501660e0528651916101e583610335565b601383527f726571756573744275696c6465722d76312e31000000000000000000000000008484015287518096819482938352600483016103a8565b03915afa95861561029b579561026c575b50506101009316835251906102cb92836103f2843960805183505060a05183505060c05183505060e0518350505182505051816101ec0152f35b61028c929550803d10610294575b6102848183610366565b810190610389565b923880610232565b503d61027a565b8451903d90823e3d90fd5b6102bd9150853d8711610294576102848183610366565b386101d4565b86513d8a823e3d90fd5b6102e49150853d8711610294576102848183610366565b38610168565b6103019150853d8711610294576102848183610366565b38610103565b61031f919450833d8511610294576102848183610366565b9238610092565b85513d89823e3d90fd5b600080fd5b604081019081106001600160401b0382111761035057604052565b634e487b7160e01b600052604160045260246000fd5b601f909101601f19168101906001600160401b0382119082101761035057604052565b9081602091031261033057516001600160a01b03811681036103305790565b6020808252825181830181905290939260005b8281106103dd57505060409293506000838284010152601f8019910116010190565b8181018601518482016040015285016103bb56fe6080604090808252600436101561001557600080fd5b600090813560e01c908163469163011461021157508063a183dc27146101d4578063c187bbc1146101aa578063c9512d991461018e5763e88c88971461005a57600080fd5b3461018b5760208060031936011261018757600435916001600160801b03198084168094036101875761008b610275565b8281528361009761023f565b9184835201526100a5610275565b828152836100b161023f565b918483520152816100c061023f565b526100c961023f565b9182526100d4610275565b938085528385019283521561014b578151516100fb57845193511683525151151590820152f35b845162461bcd60e51b815260048101849052602360248201527f696d706572736f6e6174696f6e206d6f6465206973206e6f7420737570706f726044820152621d195960ea1b6064820152608490fd5b845162461bcd60e51b815260048101849052601560248201527461707049642063616e6e6f7420626520656d70747960581b6044820152606490fd5b5080fd5b80fd5b5090346101875781600319360112610187576020905160028152f35b5090346101875781600319360112610187576020915460801b9051906001600160801b0319168152f35b509034610187578160031936011261018757602090517f000000000000000000000000000000000000000000000000000000000000000015158152f35b90503461018757816003193601126101875780733cd5334eb64ebbd4003b72022cc25465f1bfcee660209252f35b604051906020820182811067ffffffffffffffff82111761025f57604052565b634e487b7160e01b600052604160045260246000fd5b604051906040820182811067ffffffffffffffff82111761025f5760405256fea2646970667358221220135cbcddf2196f245e59b63de0f0cd68e947dedd6a988a5d2e3a8c1f0c37272d64736f6c63430008130033",
  "linkReferences": {},
  "deployedLinkReferences": {}
}